{
	"contracts/Bridge.sol": {
		"Bridge": {
			"abi": [
				{
					"inputs": [
						{
							"internalType": "contract ISwapRouter",
							"name": "_swapRouter",
							"type": "address"
						},
						{
							"internalType": "address",
							"name": "relayer",
							"type": "address"
						}
					],
					"stateMutability": "nonpayable",
					"type": "constructor"
				},
				{
					"anonymous": false,
					"inputs": [
						{
							"indexed": false,
							"internalType": "uint256",
							"name": "swapId",
							"type": "uint256"
						},
						{
							"indexed": false,
							"internalType": "bool",
							"name": "isPrivate",
							"type": "bool"
						},
						{
							"indexed": false,
							"internalType": "uint8",
							"name": "inTokenId",
							"type": "uint8"
						},
						{
							"indexed": false,
							"internalType": "uint8",
							"name": "outTokenId",
							"type": "uint8"
						},
						{
							"indexed": false,
							"internalType": "uint256",
							"name": "inTokenAmount",
							"type": "uint256"
						},
						{
							"indexed": false,
							"internalType": "uint256",
							"name": "outTokenAmount",
							"type": "uint256"
						},
						{
							"indexed": false,
							"internalType": "string",
							"name": "l2Address",
							"type": "string"
						},
						{
							"indexed": false,
							"internalType": "string",
							"name": "l2SecretHash",
							"type": "string"
						}
					],
					"name": "SwapCreated",
					"type": "event"
				},
				{
					"anonymous": false,
					"inputs": [
						{
							"indexed": false,
							"internalType": "uint256",
							"name": "swapId",
							"type": "uint256"
						},
						{
							"indexed": false,
							"internalType": "uint256",
							"name": "outTokenAmount",
							"type": "uint256"
						}
					],
					"name": "SwapExecuted",
					"type": "event"
				},
				{
					"inputs": [
						{
							"internalType": "uint256",
							"name": "l2TokenId",
							"type": "uint256"
						},
						{
							"internalType": "address",
							"name": "l1TokenAddress",
							"type": "address"
						}
					],
					"name": "addToken",
					"outputs": [],
					"stateMutability": "nonpayable",
					"type": "function"
				},
				{
					"inputs": [
						{
							"internalType": "uint256",
							"name": "swapId",
							"type": "uint256"
						},
						{
							"internalType": "bool",
							"name": "isPrivate",
							"type": "bool"
						},
						{
							"internalType": "uint8",
							"name": "inTokenId",
							"type": "uint8"
						},
						{
							"internalType": "uint8",
							"name": "outTokenId",
							"type": "uint8"
						},
						{
							"internalType": "uint256",
							"name": "inTokenAmount",
							"type": "uint256"
						},
						{
							"internalType": "string",
							"name": "l2Address",
							"type": "string"
						},
						{
							"internalType": "string",
							"name": "l2SecretHash",
							"type": "string"
						}
					],
					"name": "createSwap",
					"outputs": [],
					"stateMutability": "nonpayable",
					"type": "function"
				},
				{
					"inputs": [
						{
							"internalType": "uint256",
							"name": "swapId",
							"type": "uint256"
						}
					],
					"name": "executeSwap",
					"outputs": [],
					"stateMutability": "nonpayable",
					"type": "function"
				},
				{
					"inputs": [],
					"name": "owner",
					"outputs": [
						{
							"internalType": "address",
							"name": "",
							"type": "address"
						}
					],
					"stateMutability": "view",
					"type": "function"
				},
				{
					"inputs": [
						{
							"internalType": "address",
							"name": "",
							"type": "address"
						}
					],
					"name": "relayers",
					"outputs": [
						{
							"internalType": "bool",
							"name": "",
							"type": "bool"
						}
					],
					"stateMutability": "view",
					"type": "function"
				},
				{
					"inputs": [],
					"name": "swapRouter",
					"outputs": [
						{
							"internalType": "contract ISwapRouter",
							"name": "",
							"type": "address"
						}
					],
					"stateMutability": "view",
					"type": "function"
				},
				{
					"inputs": [
						{
							"internalType": "uint256",
							"name": "",
							"type": "uint256"
						}
					],
					"name": "swaps",
					"outputs": [
						{
							"internalType": "bool",
							"name": "isPrivate",
							"type": "bool"
						},
						{
							"internalType": "uint8",
							"name": "inTokenId",
							"type": "uint8"
						},
						{
							"internalType": "uint8",
							"name": "outTokenId",
							"type": "uint8"
						},
						{
							"internalType": "uint256",
							"name": "inTokenAmount",
							"type": "uint256"
						},
						{
							"internalType": "uint256",
							"name": "outTokenAmount",
							"type": "uint256"
						},
						{
							"internalType": "string",
							"name": "l2Address",
							"type": "string"
						},
						{
							"internalType": "string",
							"name": "l2SecretHash",
							"type": "string"
						},
						{
							"internalType": "bool",
							"name": "isExecuted",
							"type": "bool"
						}
					],
					"stateMutability": "view",
					"type": "function"
				},
				{
					"inputs": [
						{
							"internalType": "uint256",
							"name": "",
							"type": "uint256"
						}
					],
					"name": "tokens",
					"outputs": [
						{
							"internalType": "address",
							"name": "",
							"type": "address"
						}
					],
					"stateMutability": "view",
					"type": "function"
				},
				{
					"inputs": [
						{
							"internalType": "address",
							"name": "token",
							"type": "address"
						}
					],
					"name": "withdraw",
					"outputs": [],
					"stateMutability": "nonpayable",
					"type": "function"
				}
			],
			"devdoc": {
				"kind": "dev",
				"methods": {},
				"version": 1
			},
			"evm": {
				"assembly": "    /* \"contracts/Bridge.sol\":219:3434  contract Bridge {... */\n  mstore(0x40, 0xa0)\n    /* \"contracts/Bridge.sol\":1065:1222  constructor(ISwapRouter _swapRouter, address relayer) {... */\n  callvalue\n  dup1\n  iszero\n  tag_1\n  jumpi\n  0x00\n  dup1\n  revert\ntag_1:\n  pop\n  mload(0x40)\n  sub(codesize, bytecodeSize)\n  dup1\n  bytecodeSize\n  dup4\n  codecopy\n  dup2\n  dup2\n  add\n  0x40\n  mstore\n  dup2\n  add\n  swap1\n  tag_2\n  swap2\n  swap1\n  tag_3\n  jump\t// in\ntag_2:\n    /* \"contracts/Bridge.sol\":1142:1153  _swapRouter */\n  dup2\n    /* \"contracts/Bridge.sol\":1129:1153  swapRouter = _swapRouter */\n  0xffffffffffffffffffffffffffffffffffffffff\n  and\n  0x80\n  dup2\n  0xffffffffffffffffffffffffffffffffffffffff\n  and\n  dup2\n  mstore\n  pop\n  pop\n    /* \"contracts/Bridge.sol\":1171:1181  msg.sender */\n  caller\n    /* \"contracts/Bridge.sol\":1163:1168  owner */\n  0x00\n  dup1\n    /* \"contracts/Bridge.sol\":1163:1181  owner = msg.sender */\n  0x0100\n  exp\n  dup2\n  sload\n  dup2\n  0xffffffffffffffffffffffffffffffffffffffff\n  mul\n  not\n  and\n  swap1\n  dup4\n  0xffffffffffffffffffffffffffffffffffffffff\n  and\n  mul\n  or\n  swap1\n  sstore\n  pop\n    /* \"contracts/Bridge.sol\":1211:1215  true */\n  0x01\n    /* \"contracts/Bridge.sol\":1191:1199  relayers */\n  0x03\n    /* \"contracts/Bridge.sol\":1191:1208  relayers[relayer] */\n  0x00\n    /* \"contracts/Bridge.sol\":1200:1207  relayer */\n  dup4\n    /* \"contracts/Bridge.sol\":1191:1208  relayers[relayer] */\n  0xffffffffffffffffffffffffffffffffffffffff\n  and\n  0xffffffffffffffffffffffffffffffffffffffff\n  and\n  dup2\n  mstore\n  0x20\n  add\n  swap1\n  dup2\n  mstore\n  0x20\n  add\n  0x00\n  keccak256\n  0x00\n    /* \"contracts/Bridge.sol\":1191:1215  relayers[relayer] = true */\n  0x0100\n  exp\n  dup2\n  sload\n  dup2\n  0xff\n  mul\n  not\n  and\n  swap1\n  dup4\n  iszero\n  iszero\n  mul\n  or\n  swap1\n  sstore\n  pop\n    /* \"contracts/Bridge.sol\":1065:1222  constructor(ISwapRouter _swapRouter, address relayer) {... */\n  pop\n  pop\n    /* \"contracts/Bridge.sol\":219:3434  contract Bridge {... */\n  jump(tag_6)\n    /* \"#utility.yul\":88:205   */\ntag_8:\n    /* \"#utility.yul\":197:198   */\n  0x00\n    /* \"#utility.yul\":194:195   */\n  dup1\n    /* \"#utility.yul\":187:199   */\n  revert\n    /* \"#utility.yul\":334:460   */\ntag_10:\n    /* \"#utility.yul\":371:378   */\n  0x00\n    /* \"#utility.yul\":411:453   */\n  0xffffffffffffffffffffffffffffffffffffffff\n    /* \"#utility.yul\":404:409   */\n  dup3\n    /* \"#utility.yul\":400:454   */\n  and\n    /* \"#utility.yul\":389:454   */\n  swap1\n  pop\n    /* \"#utility.yul\":334:460   */\n  swap2\n  swap1\n  pop\n  jump\t// out\n    /* \"#utility.yul\":466:562   */\ntag_11:\n    /* \"#utility.yul\":503:510   */\n  0x00\n    /* \"#utility.yul\":532:556   */\n  tag_23\n    /* \"#utility.yul\":550:555   */\n  dup3\n    /* \"#utility.yul\":532:556   */\n  tag_10\n  jump\t// in\ntag_23:\n    /* \"#utility.yul\":521:556   */\n  swap1\n  pop\n    /* \"#utility.yul\":466:562   */\n  swap2\n  swap1\n  pop\n  jump\t// out\n    /* \"#utility.yul\":568:683   */\ntag_12:\n    /* \"#utility.yul\":624:631   */\n  0x00\n    /* \"#utility.yul\":653:677   */\n  tag_25\n    /* \"#utility.yul\":671:676   */\n  dup3\n    /* \"#utility.yul\":653:677   */\n  tag_11\n  jump\t// in\ntag_25:\n    /* \"#utility.yul\":642:677   */\n  swap1\n  pop\n    /* \"#utility.yul\":568:683   */\n  swap2\n  swap1\n  pop\n  jump\t// out\n    /* \"#utility.yul\":689:849   */\ntag_13:\n    /* \"#utility.yul\":781:824   */\n  tag_27\n    /* \"#utility.yul\":818:823   */\n  dup2\n    /* \"#utility.yul\":781:824   */\n  tag_12\n  jump\t// in\ntag_27:\n    /* \"#utility.yul\":774:779   */\n  dup2\n    /* \"#utility.yul\":771:825   */\n  eq\n    /* \"#utility.yul\":761:843   */\n  tag_28\n  jumpi\n    /* \"#utility.yul\":839:840   */\n  0x00\n    /* \"#utility.yul\":836:837   */\n  dup1\n    /* \"#utility.yul\":829:841   */\n  revert\n    /* \"#utility.yul\":761:843   */\ntag_28:\n    /* \"#utility.yul\":689:849   */\n  pop\n  jump\t// out\n    /* \"#utility.yul\":855:1036   */\ntag_14:\n    /* \"#utility.yul\":931:936   */\n  0x00\n    /* \"#utility.yul\":962:968   */\n  dup2\n    /* \"#utility.yul\":956:969   */\n  mload\n    /* \"#utility.yul\":947:969   */\n  swap1\n  pop\n    /* \"#utility.yul\":978:1030   */\n  tag_30\n    /* \"#utility.yul\":1024:1029   */\n  dup2\n    /* \"#utility.yul\":978:1030   */\n  tag_13\n  jump\t// in\ntag_30:\n    /* \"#utility.yul\":855:1036   */\n  swap3\n  swap2\n  pop\n  pop\n  jump\t// out\n    /* \"#utility.yul\":1042:1164   */\ntag_15:\n    /* \"#utility.yul\":1115:1139   */\n  tag_32\n    /* \"#utility.yul\":1133:1138   */\n  dup2\n    /* \"#utility.yul\":1115:1139   */\n  tag_11\n  jump\t// in\ntag_32:\n    /* \"#utility.yul\":1108:1113   */\n  dup2\n    /* \"#utility.yul\":1105:1140   */\n  eq\n    /* \"#utility.yul\":1095:1158   */\n  tag_33\n  jumpi\n    /* \"#utility.yul\":1154:1155   */\n  0x00\n    /* \"#utility.yul\":1151:1152   */\n  dup1\n    /* \"#utility.yul\":1144:1156   */\n  revert\n    /* \"#utility.yul\":1095:1158   */\ntag_33:\n    /* \"#utility.yul\":1042:1164   */\n  pop\n  jump\t// out\n    /* \"#utility.yul\":1170:1313   */\ntag_16:\n    /* \"#utility.yul\":1227:1232   */\n  0x00\n    /* \"#utility.yul\":1258:1264   */\n  dup2\n    /* \"#utility.yul\":1252:1265   */\n  mload\n    /* \"#utility.yul\":1243:1265   */\n  swap1\n  pop\n    /* \"#utility.yul\":1274:1307   */\n  tag_35\n    /* \"#utility.yul\":1301:1306   */\n  dup2\n    /* \"#utility.yul\":1274:1307   */\n  tag_15\n  jump\t// in\ntag_35:\n    /* \"#utility.yul\":1170:1313   */\n  swap3\n  swap2\n  pop\n  pop\n  jump\t// out\n    /* \"#utility.yul\":1319:1864   */\ntag_3:\n    /* \"#utility.yul\":1417:1423   */\n  0x00\n    /* \"#utility.yul\":1425:1431   */\n  dup1\n    /* \"#utility.yul\":1474:1476   */\n  0x40\n    /* \"#utility.yul\":1462:1471   */\n  dup4\n    /* \"#utility.yul\":1453:1460   */\n  dup6\n    /* \"#utility.yul\":1449:1472   */\n  sub\n    /* \"#utility.yul\":1445:1477   */\n  slt\n    /* \"#utility.yul\":1442:1561   */\n  iszero\n  tag_37\n  jumpi\n    /* \"#utility.yul\":1480:1559   */\n  tag_38\n  tag_8\n  jump\t// in\ntag_38:\n    /* \"#utility.yul\":1442:1561   */\ntag_37:\n    /* \"#utility.yul\":1600:1601   */\n  0x00\n    /* \"#utility.yul\":1625:1708   */\n  tag_39\n    /* \"#utility.yul\":1700:1707   */\n  dup6\n    /* \"#utility.yul\":1691:1697   */\n  dup3\n    /* \"#utility.yul\":1680:1689   */\n  dup7\n    /* \"#utility.yul\":1676:1698   */\n  add\n    /* \"#utility.yul\":1625:1708   */\n  tag_14\n  jump\t// in\ntag_39:\n    /* \"#utility.yul\":1615:1708   */\n  swap3\n  pop\n    /* \"#utility.yul\":1571:1718   */\n  pop\n    /* \"#utility.yul\":1757:1759   */\n  0x20\n    /* \"#utility.yul\":1783:1847   */\n  tag_40\n    /* \"#utility.yul\":1839:1846   */\n  dup6\n    /* \"#utility.yul\":1830:1836   */\n  dup3\n    /* \"#utility.yul\":1819:1828   */\n  dup7\n    /* \"#utility.yul\":1815:1837   */\n  add\n    /* \"#utility.yul\":1783:1847   */\n  tag_16\n  jump\t// in\ntag_40:\n    /* \"#utility.yul\":1773:1847   */\n  swap2\n  pop\n    /* \"#utility.yul\":1728:1857   */\n  pop\n    /* \"#utility.yul\":1319:1864   */\n  swap3\n  pop\n  swap3\n  swap1\n  pop\n  jump\t// out\n    /* \"contracts/Bridge.sol\":219:3434  contract Bridge {... */\ntag_6:\n  mload(0x80)\n  codecopy(0x00, dataOffset(sub_0), dataSize(sub_0))\n  0x00\n  assignImmutable(\"0x865307fd9343f9b21447315c34d5042aa95db66533b26762dae88e17b3c809d7\")\n  return(0x00, dataSize(sub_0))\nstop\n\nsub_0: assembly {\n        /* \"contracts/Bridge.sol\":219:3434  contract Bridge {... */\n      mstore(0x40, 0x80)\n      callvalue\n      dup1\n      iszero\n      tag_1\n      jumpi\n      0x00\n      dup1\n      revert\n    tag_1:\n      pop\n      jumpi(tag_2, lt(calldatasize, 0x04))\n      shr(0xe0, calldataload(0x00))\n      dup1\n      0x78f9c863\n      gt\n      tag_12\n      jumpi\n      dup1\n      0x78f9c863\n      eq\n      tag_7\n      jumpi\n      dup1\n      0x8da5cb5b\n      eq\n      tag_8\n      jumpi\n      dup1\n      0xa9ab232b\n      eq\n      tag_9\n      jumpi\n      dup1\n      0xc31c9c07\n      eq\n      tag_10\n      jumpi\n      dup1\n      0xf09c5829\n      eq\n      tag_11\n      jumpi\n      jump(tag_2)\n    tag_12:\n      dup1\n      0x4f64b2be\n      eq\n      tag_3\n      jumpi\n      dup1\n      0x51cff8d9\n      eq\n      tag_4\n      jumpi\n      dup1\n      0x5300f841\n      eq\n      tag_5\n      jumpi\n      dup1\n      0x57016b0a\n      eq\n      tag_6\n      jumpi\n    tag_2:\n      0x00\n      dup1\n      revert\n        /* \"contracts/Bridge.sol\":600:638  mapping(uint => address) public tokens */\n    tag_3:\n      tag_13\n      0x04\n      dup1\n      calldatasize\n      sub\n      dup2\n      add\n      swap1\n      tag_14\n      swap2\n      swap1\n      tag_15\n      jump\t// in\n    tag_14:\n      tag_16\n      jump\t// in\n    tag_13:\n      mload(0x40)\n      tag_17\n      swap2\n      swap1\n      tag_18\n      jump\t// in\n    tag_17:\n      mload(0x40)\n      dup1\n      swap2\n      sub\n      swap1\n      return\n        /* \"contracts/Bridge.sol\":3204:3432  function withdraw(address token) public onlyAdmin {... */\n    tag_4:\n      tag_19\n      0x04\n      dup1\n      calldatasize\n      sub\n      dup2\n      add\n      swap1\n      tag_20\n      swap2\n      swap1\n      tag_21\n      jump\t// in\n    tag_20:\n      tag_22\n      jump\t// in\n    tag_19:\n      stop\n        /* \"contracts/Bridge.sol\":644:684  mapping(address => bool) public relayers */\n    tag_5:\n      tag_23\n      0x04\n      dup1\n      calldatasize\n      sub\n      dup2\n      add\n      swap1\n      tag_24\n      swap2\n      swap1\n      tag_21\n      jump\t// in\n    tag_24:\n      tag_25\n      jump\t// in\n    tag_23:\n      mload(0x40)\n      tag_26\n      swap2\n      swap1\n      tag_27\n      jump\t// in\n    tag_26:\n      mload(0x40)\n      dup1\n      swap2\n      sub\n      swap1\n      return\n        /* \"contracts/Bridge.sol\":1228:1354  function addToken(uint l2TokenId, address l1TokenAddress) public onlyAdmin {... */\n    tag_6:\n      tag_28\n      0x04\n      dup1\n      calldatasize\n      sub\n      dup2\n      add\n      swap1\n      tag_29\n      swap2\n      swap1\n      tag_30\n      jump\t// in\n    tag_29:\n      tag_31\n      jump\t// in\n    tag_28:\n      stop\n        /* \"contracts/Bridge.sol\":1360:1846  function createSwap(uint swapId, bool isPrivate, uint8 inTokenId, uint8 outTokenId, uint256 inTokenAmount, string memory l2Address, string memory l2SecretHash) public onlyAdmin {... */\n    tag_7:\n      tag_32\n      0x04\n      dup1\n      calldatasize\n      sub\n      dup2\n      add\n      swap1\n      tag_33\n      swap2\n      swap1\n      tag_34\n      jump\t// in\n    tag_33:\n      tag_35\n      jump\t// in\n    tag_32:\n      stop\n        /* \"contracts/Bridge.sol\":484:504  address public owner */\n    tag_8:\n      tag_36\n      tag_37\n      jump\t// in\n    tag_36:\n      mload(0x40)\n      tag_38\n      swap2\n      swap1\n      tag_18\n      jump\t// in\n    tag_38:\n      mload(0x40)\n      dup1\n      swap2\n      sub\n      swap1\n      return\n        /* \"contracts/Bridge.sol\":1852:3198  function executeSwap(uint swapId) public {... */\n    tag_9:\n      tag_39\n      0x04\n      dup1\n      calldatasize\n      sub\n      dup2\n      add\n      swap1\n      tag_40\n      swap2\n      swap1\n      tag_15\n      jump\t// in\n    tag_40:\n      tag_41\n      jump\t// in\n    tag_39:\n      stop\n        /* \"contracts/Bridge.sol\":510:549  ISwapRouter public immutable swapRouter */\n    tag_10:\n      tag_42\n      tag_43\n      jump\t// in\n    tag_42:\n      mload(0x40)\n      tag_44\n      swap2\n      swap1\n      tag_45\n      jump\t// in\n    tag_44:\n      mload(0x40)\n      dup1\n      swap2\n      sub\n      swap1\n      return\n        /* \"contracts/Bridge.sol\":560:594  mapping(uint => Swap) public swaps */\n    tag_11:\n      tag_46\n      0x04\n      dup1\n      calldatasize\n      sub\n      dup2\n      add\n      swap1\n      tag_47\n      swap2\n      swap1\n      tag_15\n      jump\t// in\n    tag_47:\n      tag_48\n      jump\t// in\n    tag_46:\n      mload(0x40)\n      tag_49\n      swap9\n      swap8\n      swap7\n      swap6\n      swap5\n      swap4\n      swap3\n      swap2\n      swap1\n      tag_50\n      jump\t// in\n    tag_49:\n      mload(0x40)\n      dup1\n      swap2\n      sub\n      swap1\n      return\n        /* \"contracts/Bridge.sol\":600:638  mapping(uint => address) public tokens */\n    tag_16:\n      mstore(0x20, 0x02)\n      dup1\n      0x00\n      mstore\n      keccak256(0x00, 0x40)\n      0x00\n      swap2\n      pop\n      sload\n      swap1\n      0x0100\n      exp\n      swap1\n      div\n      0xffffffffffffffffffffffffffffffffffffffff\n      and\n      dup2\n      jump\t// out\n        /* \"contracts/Bridge.sol\":3204:3432  function withdraw(address token) public onlyAdmin {... */\n    tag_22:\n        /* \"contracts/Bridge.sol\":988:992  true */\n      0x01\n        /* \"contracts/Bridge.sol\":964:992  relayers[msg.sender] == true */\n      iszero\n      iszero\n        /* \"contracts/Bridge.sol\":964:972  relayers */\n      0x03\n        /* \"contracts/Bridge.sol\":964:984  relayers[msg.sender] */\n      0x00\n        /* \"contracts/Bridge.sol\":973:983  msg.sender */\n      caller\n        /* \"contracts/Bridge.sol\":964:984  relayers[msg.sender] */\n      0xffffffffffffffffffffffffffffffffffffffff\n      and\n      0xffffffffffffffffffffffffffffffffffffffff\n      and\n      dup2\n      mstore\n      0x20\n      add\n      swap1\n      dup2\n      mstore\n      0x20\n      add\n      0x00\n      keccak256\n      0x00\n      swap1\n      sload\n      swap1\n      0x0100\n      exp\n      swap1\n      div\n      0xff\n      and\n        /* \"contracts/Bridge.sol\":964:992  relayers[msg.sender] == true */\n      iszero\n      iszero\n      eq\n        /* \"contracts/Bridge.sol\":963:1016  (relayers[msg.sender] == true) || msg.sender == owner */\n      dup1\n      tag_52\n      jumpi\n      pop\n        /* \"contracts/Bridge.sol\":1011:1016  owner */\n      0x00\n      dup1\n      sload\n      swap1\n      0x0100\n      exp\n      swap1\n      div\n      0xffffffffffffffffffffffffffffffffffffffff\n      and\n        /* \"contracts/Bridge.sol\":997:1016  msg.sender == owner */\n      0xffffffffffffffffffffffffffffffffffffffff\n      and\n        /* \"contracts/Bridge.sol\":997:1007  msg.sender */\n      caller\n        /* \"contracts/Bridge.sol\":997:1016  msg.sender == owner */\n      0xffffffffffffffffffffffffffffffffffffffff\n      and\n      eq\n        /* \"contracts/Bridge.sol\":963:1016  (relayers[msg.sender] == true) || msg.sender == owner */\n    tag_52:\n        /* \"contracts/Bridge.sol\":955:1041  require((relayers[msg.sender] == true) || msg.sender == owner, \"You're not an admin!\") */\n      tag_53\n      jumpi\n      mload(0x40)\n      0x08c379a000000000000000000000000000000000000000000000000000000000\n      dup2\n      mstore\n      0x04\n      add\n      tag_54\n      swap1\n      tag_55\n      jump\t// in\n    tag_54:\n      mload(0x40)\n      dup1\n      swap2\n      sub\n      swap1\n      revert\n    tag_53:\n        /* \"contracts/Bridge.sol\":3264:3276  uint balance */\n      0x00\n        /* \"contracts/Bridge.sol\":3286:3291  token */\n      dup2\n        /* \"contracts/Bridge.sol\":3279:3302  IERC20(token).balanceOf */\n      0xffffffffffffffffffffffffffffffffffffffff\n      and\n      0x70a08231\n        /* \"contracts/Bridge.sol\":3311:3315  this */\n      address\n        /* \"contracts/Bridge.sol\":3279:3317  IERC20(token).balanceOf(address(this)) */\n      mload(0x40)\n      dup3\n      0xffffffff\n      and\n      0xe0\n      shl\n      dup2\n      mstore\n      0x04\n      add\n      tag_57\n      swap2\n      swap1\n      tag_18\n      jump\t// in\n    tag_57:\n      0x20\n      mload(0x40)\n      dup1\n      dup4\n      sub\n      dup2\n      dup7\n      gas\n      staticcall\n      iszero\n      dup1\n      iszero\n      tag_59\n      jumpi\n      returndatasize\n      0x00\n      dup1\n      returndatacopy\n      revert(0x00, returndatasize)\n    tag_59:\n      pop\n      pop\n      pop\n      pop\n      mload(0x40)\n      returndatasize\n      not(0x1f)\n      0x1f\n      dup3\n      add\n      and\n      dup3\n      add\n      dup1\n      0x40\n      mstore\n      pop\n      dup2\n      add\n      swap1\n      tag_60\n      swap2\n      swap1\n      tag_61\n      jump\t// in\n    tag_60:\n        /* \"contracts/Bridge.sol\":3264:3317  uint balance = IERC20(token).balanceOf(address(this)) */\n      swap1\n      pop\n        /* \"contracts/Bridge.sol\":3334:3339  token */\n      dup2\n        /* \"contracts/Bridge.sol\":3327:3348  IERC20(token).approve */\n      0xffffffffffffffffffffffffffffffffffffffff\n      and\n      0x095ea7b3\n        /* \"contracts/Bridge.sol\":3357:3361  this */\n      address\n        /* \"contracts/Bridge.sol\":3364:3371  balance */\n      dup4\n        /* \"contracts/Bridge.sol\":3327:3372  IERC20(token).approve(address(this), balance) */\n      mload(0x40)\n      dup4\n      0xffffffff\n      and\n      0xe0\n      shl\n      dup2\n      mstore\n      0x04\n      add\n      tag_62\n      swap3\n      swap2\n      swap1\n      tag_63\n      jump\t// in\n    tag_62:\n      0x20\n      mload(0x40)\n      dup1\n      dup4\n      sub\n      dup2\n      0x00\n      dup8\n      gas\n      call\n      iszero\n      dup1\n      iszero\n      tag_65\n      jumpi\n      returndatasize\n      0x00\n      dup1\n      returndatacopy\n      revert(0x00, returndatasize)\n    tag_65:\n      pop\n      pop\n      pop\n      pop\n      mload(0x40)\n      returndatasize\n      not(0x1f)\n      0x1f\n      dup3\n      add\n      and\n      dup3\n      add\n      dup1\n      0x40\n      mstore\n      pop\n      dup2\n      add\n      swap1\n      tag_66\n      swap2\n      swap1\n      tag_67\n      jump\t// in\n    tag_66:\n      pop\n        /* \"contracts/Bridge.sol\":3389:3394  token */\n      dup2\n        /* \"contracts/Bridge.sol\":3382:3404  IERC20(token).transfer */\n      0xffffffffffffffffffffffffffffffffffffffff\n      and\n      0xa9059cbb\n        /* \"contracts/Bridge.sol\":3405:3415  msg.sender */\n      caller\n        /* \"contracts/Bridge.sol\":3417:3424  balance */\n      dup4\n        /* \"contracts/Bridge.sol\":3382:3425  IERC20(token).transfer(msg.sender, balance) */\n      mload(0x40)\n      dup4\n      0xffffffff\n      and\n      0xe0\n      shl\n      dup2\n      mstore\n      0x04\n      add\n      tag_68\n      swap3\n      swap2\n      swap1\n      tag_63\n      jump\t// in\n    tag_68:\n      0x20\n      mload(0x40)\n      dup1\n      dup4\n      sub\n      dup2\n      0x00\n      dup8\n      gas\n      call\n      iszero\n      dup1\n      iszero\n      tag_70\n      jumpi\n      returndatasize\n      0x00\n      dup1\n      returndatacopy\n      revert(0x00, returndatasize)\n    tag_70:\n      pop\n      pop\n      pop\n      pop\n      mload(0x40)\n      returndatasize\n      not(0x1f)\n      0x1f\n      dup3\n      add\n      and\n      dup3\n      add\n      dup1\n      0x40\n      mstore\n      pop\n      dup2\n      add\n      swap1\n      tag_71\n      swap2\n      swap1\n      tag_67\n      jump\t// in\n    tag_71:\n      pop\n        /* \"contracts/Bridge.sol\":3254:3432  {... */\n      pop\n        /* \"contracts/Bridge.sol\":3204:3432  function withdraw(address token) public onlyAdmin {... */\n      pop\n      jump\t// out\n        /* \"contracts/Bridge.sol\":644:684  mapping(address => bool) public relayers */\n    tag_25:\n      mstore(0x20, 0x03)\n      dup1\n      0x00\n      mstore\n      keccak256(0x00, 0x40)\n      0x00\n      swap2\n      pop\n      sload\n      swap1\n      0x0100\n      exp\n      swap1\n      div\n      0xff\n      and\n      dup2\n      jump\t// out\n        /* \"contracts/Bridge.sol\":1228:1354  function addToken(uint l2TokenId, address l1TokenAddress) public onlyAdmin {... */\n    tag_31:\n        /* \"contracts/Bridge.sol\":988:992  true */\n      0x01\n        /* \"contracts/Bridge.sol\":964:992  relayers[msg.sender] == true */\n      iszero\n      iszero\n        /* \"contracts/Bridge.sol\":964:972  relayers */\n      0x03\n        /* \"contracts/Bridge.sol\":964:984  relayers[msg.sender] */\n      0x00\n        /* \"contracts/Bridge.sol\":973:983  msg.sender */\n      caller\n        /* \"contracts/Bridge.sol\":964:984  relayers[msg.sender] */\n      0xffffffffffffffffffffffffffffffffffffffff\n      and\n      0xffffffffffffffffffffffffffffffffffffffff\n      and\n      dup2\n      mstore\n      0x20\n      add\n      swap1\n      dup2\n      mstore\n      0x20\n      add\n      0x00\n      keccak256\n      0x00\n      swap1\n      sload\n      swap1\n      0x0100\n      exp\n      swap1\n      div\n      0xff\n      and\n        /* \"contracts/Bridge.sol\":964:992  relayers[msg.sender] == true */\n      iszero\n      iszero\n      eq\n        /* \"contracts/Bridge.sol\":963:1016  (relayers[msg.sender] == true) || msg.sender == owner */\n      dup1\n      tag_73\n      jumpi\n      pop\n        /* \"contracts/Bridge.sol\":1011:1016  owner */\n      0x00\n      dup1\n      sload\n      swap1\n      0x0100\n      exp\n      swap1\n      div\n      0xffffffffffffffffffffffffffffffffffffffff\n      and\n        /* \"contracts/Bridge.sol\":997:1016  msg.sender == owner */\n      0xffffffffffffffffffffffffffffffffffffffff\n      and\n        /* \"contracts/Bridge.sol\":997:1007  msg.sender */\n      caller\n        /* \"contracts/Bridge.sol\":997:1016  msg.sender == owner */\n      0xffffffffffffffffffffffffffffffffffffffff\n      and\n      eq\n        /* \"contracts/Bridge.sol\":963:1016  (relayers[msg.sender] == true) || msg.sender == owner */\n    tag_73:\n        /* \"contracts/Bridge.sol\":955:1041  require((relayers[msg.sender] == true) || msg.sender == owner, \"You're not an admin!\") */\n      tag_74\n      jumpi\n      mload(0x40)\n      0x08c379a000000000000000000000000000000000000000000000000000000000\n      dup2\n      mstore\n      0x04\n      add\n      tag_75\n      swap1\n      tag_55\n      jump\t// in\n    tag_75:\n      mload(0x40)\n      dup1\n      swap2\n      sub\n      swap1\n      revert\n    tag_74:\n        /* \"contracts/Bridge.sol\":1333:1347  l1TokenAddress */\n      dup1\n        /* \"contracts/Bridge.sol\":1313:1319  tokens */\n      0x02\n        /* \"contracts/Bridge.sol\":1313:1330  tokens[l2TokenId] */\n      0x00\n        /* \"contracts/Bridge.sol\":1320:1329  l2TokenId */\n      dup5\n        /* \"contracts/Bridge.sol\":1313:1330  tokens[l2TokenId] */\n      dup2\n      mstore\n      0x20\n      add\n      swap1\n      dup2\n      mstore\n      0x20\n      add\n      0x00\n      keccak256\n      0x00\n        /* \"contracts/Bridge.sol\":1313:1347  tokens[l2TokenId] = l1TokenAddress */\n      0x0100\n      exp\n      dup2\n      sload\n      dup2\n      0xffffffffffffffffffffffffffffffffffffffff\n      mul\n      not\n      and\n      swap1\n      dup4\n      0xffffffffffffffffffffffffffffffffffffffff\n      and\n      mul\n      or\n      swap1\n      sstore\n      pop\n        /* \"contracts/Bridge.sol\":1228:1354  function addToken(uint l2TokenId, address l1TokenAddress) public onlyAdmin {... */\n      pop\n      pop\n      jump\t// out\n        /* \"contracts/Bridge.sol\":1360:1846  function createSwap(uint swapId, bool isPrivate, uint8 inTokenId, uint8 outTokenId, uint256 inTokenAmount, string memory l2Address, string memory l2SecretHash) public onlyAdmin {... */\n    tag_35:\n        /* \"contracts/Bridge.sol\":988:992  true */\n      0x01\n        /* \"contracts/Bridge.sol\":964:992  relayers[msg.sender] == true */\n      iszero\n      iszero\n        /* \"contracts/Bridge.sol\":964:972  relayers */\n      0x03\n        /* \"contracts/Bridge.sol\":964:984  relayers[msg.sender] */\n      0x00\n        /* \"contracts/Bridge.sol\":973:983  msg.sender */\n      caller\n        /* \"contracts/Bridge.sol\":964:984  relayers[msg.sender] */\n      0xffffffffffffffffffffffffffffffffffffffff\n      and\n      0xffffffffffffffffffffffffffffffffffffffff\n      and\n      dup2\n      mstore\n      0x20\n      add\n      swap1\n      dup2\n      mstore\n      0x20\n      add\n      0x00\n      keccak256\n      0x00\n      swap1\n      sload\n      swap1\n      0x0100\n      exp\n      swap1\n      div\n      0xff\n      and\n        /* \"contracts/Bridge.sol\":964:992  relayers[msg.sender] == true */\n      iszero\n      iszero\n      eq\n        /* \"contracts/Bridge.sol\":963:1016  (relayers[msg.sender] == true) || msg.sender == owner */\n      dup1\n      tag_78\n      jumpi\n      pop\n        /* \"contracts/Bridge.sol\":1011:1016  owner */\n      0x00\n      dup1\n      sload\n      swap1\n      0x0100\n      exp\n      swap1\n      div\n      0xffffffffffffffffffffffffffffffffffffffff\n      and\n        /* \"contracts/Bridge.sol\":997:1016  msg.sender == owner */\n      0xffffffffffffffffffffffffffffffffffffffff\n      and\n        /* \"contracts/Bridge.sol\":997:1007  msg.sender */\n      caller\n        /* \"contracts/Bridge.sol\":997:1016  msg.sender == owner */\n      0xffffffffffffffffffffffffffffffffffffffff\n      and\n      eq\n        /* \"contracts/Bridge.sol\":963:1016  (relayers[msg.sender] == true) || msg.sender == owner */\n    tag_78:\n        /* \"contracts/Bridge.sol\":955:1041  require((relayers[msg.sender] == true) || msg.sender == owner, \"You're not an admin!\") */\n      tag_79\n      jumpi\n      mload(0x40)\n      0x08c379a000000000000000000000000000000000000000000000000000000000\n      dup2\n      mstore\n      0x04\n      add\n      tag_80\n      swap1\n      tag_55\n      jump\t// in\n    tag_80:\n      mload(0x40)\n      dup1\n      swap2\n      sub\n      swap1\n      revert\n    tag_79:\n        /* \"contracts/Bridge.sol\":1586:1587  0 */\n      0x00\n        /* \"contracts/Bridge.sol\":1555:1560  swaps */\n      0x01\n        /* \"contracts/Bridge.sol\":1555:1568  swaps[swapId] */\n      0x00\n        /* \"contracts/Bridge.sol\":1561:1567  swapId */\n      dup10\n        /* \"contracts/Bridge.sol\":1555:1568  swaps[swapId] */\n      dup2\n      mstore\n      0x20\n      add\n      swap1\n      dup2\n      mstore\n      0x20\n      add\n      0x00\n      keccak256\n        /* \"contracts/Bridge.sol\":1555:1582  swaps[swapId].inTokenAmount */\n      0x01\n      add\n      sload\n        /* \"contracts/Bridge.sol\":1555:1587  swaps[swapId].inTokenAmount == 0 */\n      eq\n        /* \"contracts/Bridge.sol\":1547:1612  require(swaps[swapId].inTokenAmount == 0, \"Swap already exists!\") */\n      tag_82\n      jumpi\n      mload(0x40)\n      0x08c379a000000000000000000000000000000000000000000000000000000000\n      dup2\n      mstore\n      0x04\n      add\n      tag_83\n      swap1\n      tag_84\n      jump\t// in\n    tag_83:\n      mload(0x40)\n      dup1\n      swap2\n      sub\n      swap1\n      revert\n    tag_82:\n        /* \"contracts/Bridge.sol\":1639:1727  Swap(isPrivate, inTokenId, outTokenId, inTokenAmount, 0, l2Address, l2SecretHash, false) */\n      mload(0x40)\n      dup1\n      0x0100\n      add\n      0x40\n      mstore\n      dup1\n        /* \"contracts/Bridge.sol\":1644:1653  isPrivate */\n      dup8\n        /* \"contracts/Bridge.sol\":1639:1727  Swap(isPrivate, inTokenId, outTokenId, inTokenAmount, 0, l2Address, l2SecretHash, false) */\n      iszero\n      iszero\n      dup2\n      mstore\n      0x20\n      add\n        /* \"contracts/Bridge.sol\":1655:1664  inTokenId */\n      dup7\n        /* \"contracts/Bridge.sol\":1639:1727  Swap(isPrivate, inTokenId, outTokenId, inTokenAmount, 0, l2Address, l2SecretHash, false) */\n      0xff\n      and\n      dup2\n      mstore\n      0x20\n      add\n        /* \"contracts/Bridge.sol\":1666:1676  outTokenId */\n      dup6\n        /* \"contracts/Bridge.sol\":1639:1727  Swap(isPrivate, inTokenId, outTokenId, inTokenAmount, 0, l2Address, l2SecretHash, false) */\n      0xff\n      and\n      dup2\n      mstore\n      0x20\n      add\n        /* \"contracts/Bridge.sol\":1678:1691  inTokenAmount */\n      dup5\n        /* \"contracts/Bridge.sol\":1639:1727  Swap(isPrivate, inTokenId, outTokenId, inTokenAmount, 0, l2Address, l2SecretHash, false) */\n      dup2\n      mstore\n      0x20\n      add\n        /* \"contracts/Bridge.sol\":1693:1694  0 */\n      0x00\n        /* \"contracts/Bridge.sol\":1639:1727  Swap(isPrivate, inTokenId, outTokenId, inTokenAmount, 0, l2Address, l2SecretHash, false) */\n      dup2\n      mstore\n      0x20\n      add\n        /* \"contracts/Bridge.sol\":1696:1705  l2Address */\n      dup4\n        /* \"contracts/Bridge.sol\":1639:1727  Swap(isPrivate, inTokenId, outTokenId, inTokenAmount, 0, l2Address, l2SecretHash, false) */\n      dup2\n      mstore\n      0x20\n      add\n        /* \"contracts/Bridge.sol\":1707:1719  l2SecretHash */\n      dup3\n        /* \"contracts/Bridge.sol\":1639:1727  Swap(isPrivate, inTokenId, outTokenId, inTokenAmount, 0, l2Address, l2SecretHash, false) */\n      dup2\n      mstore\n      0x20\n      add\n        /* \"contracts/Bridge.sol\":1721:1726  false */\n      0x00\n        /* \"contracts/Bridge.sol\":1639:1727  Swap(isPrivate, inTokenId, outTokenId, inTokenAmount, 0, l2Address, l2SecretHash, false) */\n      iszero\n      iszero\n      dup2\n      mstore\n      pop\n        /* \"contracts/Bridge.sol\":1623:1628  swaps */\n      0x01\n        /* \"contracts/Bridge.sol\":1623:1636  swaps[swapId] */\n      0x00\n        /* \"contracts/Bridge.sol\":1629:1635  swapId */\n      dup10\n        /* \"contracts/Bridge.sol\":1623:1636  swaps[swapId] */\n      dup2\n      mstore\n      0x20\n      add\n      swap1\n      dup2\n      mstore\n      0x20\n      add\n      0x00\n      keccak256\n        /* \"contracts/Bridge.sol\":1623:1727  swaps[swapId] = Swap(isPrivate, inTokenId, outTokenId, inTokenAmount, 0, l2Address, l2SecretHash, false) */\n      0x00\n      dup3\n      add\n      mload\n      dup2\n      0x00\n      add\n      exp(0x0100, 0x00)\n      dup2\n      sload\n      dup2\n      0xff\n      mul\n      not\n      and\n      swap1\n      dup4\n      iszero\n      iszero\n      mul\n      or\n      swap1\n      sstore\n      pop\n      0x20\n      dup3\n      add\n      mload\n      dup2\n      0x00\n      add\n      exp(0x0100, 0x01)\n      dup2\n      sload\n      dup2\n      0xff\n      mul\n      not\n      and\n      swap1\n      dup4\n      0xff\n      and\n      mul\n      or\n      swap1\n      sstore\n      pop\n      0x40\n      dup3\n      add\n      mload\n      dup2\n      0x00\n      add\n      exp(0x0100, 0x02)\n      dup2\n      sload\n      dup2\n      0xff\n      mul\n      not\n      and\n      swap1\n      dup4\n      0xff\n      and\n      mul\n      or\n      swap1\n      sstore\n      pop\n      0x60\n      dup3\n      add\n      mload\n      dup2\n      0x01\n      add\n      sstore\n      0x80\n      dup3\n      add\n      mload\n      dup2\n      0x02\n      add\n      sstore\n      0xa0\n      dup3\n      add\n      mload\n      dup2\n      0x03\n      add\n      swap1\n      dup2\n      tag_85\n      swap2\n      swap1\n      tag_86\n      jump\t// in\n    tag_85:\n      pop\n      0xc0\n      dup3\n      add\n      mload\n      dup2\n      0x04\n      add\n      swap1\n      dup2\n      tag_87\n      swap2\n      swap1\n      tag_86\n      jump\t// in\n    tag_87:\n      pop\n      0xe0\n      dup3\n      add\n      mload\n      dup2\n      0x05\n      add\n      exp(0x0100, 0x00)\n      dup2\n      sload\n      dup2\n      0xff\n      mul\n      not\n      and\n      swap1\n      dup4\n      iszero\n      iszero\n      mul\n      or\n      swap1\n      sstore\n      pop\n      swap1\n      pop\n      pop\n        /* \"contracts/Bridge.sol\":1743:1839  SwapCreated(swapId, isPrivate, inTokenId, outTokenId, inTokenAmount, 0, l2Address, l2SecretHash) */\n      0x71e12b7c2304c92cc1e5751d94104c17c7d8a149f83020da78443fdb59f72e6e\n        /* \"contracts/Bridge.sol\":1755:1761  swapId */\n      dup8\n        /* \"contracts/Bridge.sol\":1763:1772  isPrivate */\n      dup8\n        /* \"contracts/Bridge.sol\":1774:1783  inTokenId */\n      dup8\n        /* \"contracts/Bridge.sol\":1785:1795  outTokenId */\n      dup8\n        /* \"contracts/Bridge.sol\":1797:1810  inTokenAmount */\n      dup8\n        /* \"contracts/Bridge.sol\":1812:1813  0 */\n      0x00\n        /* \"contracts/Bridge.sol\":1815:1824  l2Address */\n      dup9\n        /* \"contracts/Bridge.sol\":1826:1838  l2SecretHash */\n      dup9\n        /* \"contracts/Bridge.sol\":1743:1839  SwapCreated(swapId, isPrivate, inTokenId, outTokenId, inTokenAmount, 0, l2Address, l2SecretHash) */\n      mload(0x40)\n      tag_88\n      swap9\n      swap8\n      swap7\n      swap6\n      swap5\n      swap4\n      swap3\n      swap2\n      swap1\n      tag_89\n      jump\t// in\n    tag_88:\n      mload(0x40)\n      dup1\n      swap2\n      sub\n      swap1\n      log1\n        /* \"contracts/Bridge.sol\":1360:1846  function createSwap(uint swapId, bool isPrivate, uint8 inTokenId, uint8 outTokenId, uint256 inTokenAmount, string memory l2Address, string memory l2SecretHash) public onlyAdmin {... */\n      pop\n      pop\n      pop\n      pop\n      pop\n      pop\n      pop\n      jump\t// out\n        /* \"contracts/Bridge.sol\":484:504  address public owner */\n    tag_37:\n      0x00\n      dup1\n      sload\n      swap1\n      0x0100\n      exp\n      swap1\n      div\n      0xffffffffffffffffffffffffffffffffffffffff\n      and\n      dup2\n      jump\t// out\n        /* \"contracts/Bridge.sol\":1852:3198  function executeSwap(uint swapId) public {... */\n    tag_41:\n        /* \"contracts/Bridge.sol\":1912:1917  swaps */\n      0x01\n        /* \"contracts/Bridge.sol\":1912:1925  swaps[swapId] */\n      0x00\n        /* \"contracts/Bridge.sol\":1918:1924  swapId */\n      dup3\n        /* \"contracts/Bridge.sol\":1912:1925  swaps[swapId] */\n      dup2\n      mstore\n      0x20\n      add\n      swap1\n      dup2\n      mstore\n      0x20\n      add\n      0x00\n      keccak256\n        /* \"contracts/Bridge.sol\":1912:1936  swaps[swapId].isExecuted */\n      0x05\n      add\n      0x00\n      swap1\n      sload\n      swap1\n      0x0100\n      exp\n      swap1\n      div\n      0xff\n      and\n        /* \"contracts/Bridge.sol\":1911:1936  !swaps[swapId].isExecuted */\n      iszero\n        /* \"contracts/Bridge.sol\":1903:1972  require(!swaps[swapId].isExecuted, \"Swap has already been executed!\") */\n      tag_91\n      jumpi\n      mload(0x40)\n      0x08c379a000000000000000000000000000000000000000000000000000000000\n      dup2\n      mstore\n      0x04\n      add\n      tag_92\n      swap1\n      tag_93\n      jump\t// in\n    tag_92:\n      mload(0x40)\n      dup1\n      swap2\n      sub\n      swap1\n      revert\n    tag_91:\n        /* \"contracts/Bridge.sol\":1983:1998  address inToken */\n      0x00\n        /* \"contracts/Bridge.sol\":2001:2007  tokens */\n      0x02\n        /* \"contracts/Bridge.sol\":2001:2032  tokens[swaps[swapId].inTokenId] */\n      0x00\n        /* \"contracts/Bridge.sol\":2008:2013  swaps */\n      0x01\n        /* \"contracts/Bridge.sol\":2008:2021  swaps[swapId] */\n      0x00\n        /* \"contracts/Bridge.sol\":2014:2020  swapId */\n      dup6\n        /* \"contracts/Bridge.sol\":2008:2021  swaps[swapId] */\n      dup2\n      mstore\n      0x20\n      add\n      swap1\n      dup2\n      mstore\n      0x20\n      add\n      0x00\n      keccak256\n        /* \"contracts/Bridge.sol\":2008:2031  swaps[swapId].inTokenId */\n      0x00\n      add\n      0x01\n      swap1\n      sload\n      swap1\n      0x0100\n      exp\n      swap1\n      div\n      0xff\n      and\n        /* \"contracts/Bridge.sol\":2001:2032  tokens[swaps[swapId].inTokenId] */\n      0xff\n      and\n      dup2\n      mstore\n      0x20\n      add\n      swap1\n      dup2\n      mstore\n      0x20\n      add\n      0x00\n      keccak256\n      0x00\n      swap1\n      sload\n      swap1\n      0x0100\n      exp\n      swap1\n      div\n      0xffffffffffffffffffffffffffffffffffffffff\n      and\n        /* \"contracts/Bridge.sol\":1983:2032  address inToken = tokens[swaps[swapId].inTokenId] */\n      swap1\n      pop\n        /* \"contracts/Bridge.sol\":2042:2058  address outToken */\n      0x00\n        /* \"contracts/Bridge.sol\":2061:2067  tokens */\n      0x02\n        /* \"contracts/Bridge.sol\":2061:2093  tokens[swaps[swapId].outTokenId] */\n      0x00\n        /* \"contracts/Bridge.sol\":2068:2073  swaps */\n      0x01\n        /* \"contracts/Bridge.sol\":2068:2081  swaps[swapId] */\n      0x00\n        /* \"contracts/Bridge.sol\":2074:2080  swapId */\n      dup7\n        /* \"contracts/Bridge.sol\":2068:2081  swaps[swapId] */\n      dup2\n      mstore\n      0x20\n      add\n      swap1\n      dup2\n      mstore\n      0x20\n      add\n      0x00\n      keccak256\n        /* \"contracts/Bridge.sol\":2068:2092  swaps[swapId].outTokenId */\n      0x00\n      add\n      0x02\n      swap1\n      sload\n      swap1\n      0x0100\n      exp\n      swap1\n      div\n      0xff\n      and\n        /* \"contracts/Bridge.sol\":2061:2093  tokens[swaps[swapId].outTokenId] */\n      0xff\n      and\n      dup2\n      mstore\n      0x20\n      add\n      swap1\n      dup2\n      mstore\n      0x20\n      add\n      0x00\n      keccak256\n      0x00\n      swap1\n      sload\n      swap1\n      0x0100\n      exp\n      swap1\n      div\n      0xffffffffffffffffffffffffffffffffffffffff\n      and\n        /* \"contracts/Bridge.sol\":2042:2093  address outToken = tokens[swaps[swapId].outTokenId] */\n      swap1\n      pop\n        /* \"contracts/Bridge.sol\":2131:2132  0 */\n      0x00\n        /* \"contracts/Bridge.sol\":2112:2133  inToken != address(0) */\n      0xffffffffffffffffffffffffffffffffffffffff\n      and\n        /* \"contracts/Bridge.sol\":2112:2119  inToken */\n      dup3\n        /* \"contracts/Bridge.sol\":2112:2133  inToken != address(0) */\n      0xffffffffffffffffffffffffffffffffffffffff\n      and\n      sub\n        /* \"contracts/Bridge.sol\":2104:2165  require(inToken != address(0), \"No address for input token!\") */\n      tag_94\n      jumpi\n      mload(0x40)\n      0x08c379a000000000000000000000000000000000000000000000000000000000\n      dup2\n      mstore\n      0x04\n      add\n      tag_95\n      swap1\n      tag_96\n      jump\t// in\n    tag_95:\n      mload(0x40)\n      dup1\n      swap2\n      sub\n      swap1\n      revert\n    tag_94:\n        /* \"contracts/Bridge.sol\":2203:2204  0 */\n      0x00\n        /* \"contracts/Bridge.sol\":2183:2205  outToken != address(0) */\n      0xffffffffffffffffffffffffffffffffffffffff\n      and\n        /* \"contracts/Bridge.sol\":2183:2191  outToken */\n      dup2\n        /* \"contracts/Bridge.sol\":2183:2205  outToken != address(0) */\n      0xffffffffffffffffffffffffffffffffffffffff\n      and\n      sub\n        /* \"contracts/Bridge.sol\":2175:2238  require(outToken != address(0), \"No address for output token!\") */\n      tag_97\n      jumpi\n      mload(0x40)\n      0x08c379a000000000000000000000000000000000000000000000000000000000\n      dup2\n      mstore\n      0x04\n      add\n      tag_98\n      swap1\n      tag_99\n      jump\t// in\n    tag_98:\n      mload(0x40)\n      dup1\n      swap2\n      sub\n      swap1\n      revert\n    tag_97:\n        /* \"contracts/Bridge.sol\":2249:2334  TransferHelper.safeApprove(inToken, address(swapRouter), swaps[swapId].inTokenAmount) */\n      tag_100\n        /* \"contracts/Bridge.sol\":2276:2283  inToken */\n      dup3\n        /* \"contracts/Bridge.sol\":2293:2303  swapRouter */\n      immutable(\"0x865307fd9343f9b21447315c34d5042aa95db66533b26762dae88e17b3c809d7\")\n        /* \"contracts/Bridge.sol\":2306:2311  swaps */\n      0x01\n        /* \"contracts/Bridge.sol\":2306:2319  swaps[swapId] */\n      0x00\n        /* \"contracts/Bridge.sol\":2312:2318  swapId */\n      dup8\n        /* \"contracts/Bridge.sol\":2306:2319  swaps[swapId] */\n      dup2\n      mstore\n      0x20\n      add\n      swap1\n      dup2\n      mstore\n      0x20\n      add\n      0x00\n      keccak256\n        /* \"contracts/Bridge.sol\":2306:2333  swaps[swapId].inTokenAmount */\n      0x01\n      add\n      sload\n        /* \"contracts/Bridge.sol\":2249:2275  TransferHelper.safeApprove */\n      tag_101\n        /* \"contracts/Bridge.sol\":2249:2334  TransferHelper.safeApprove(inToken, address(swapRouter), swaps[swapId].inTokenAmount) */\n      jump\t// in\n    tag_100:\n        /* \"contracts/Bridge.sol\":2581:2629  ISwapRouter.ExactInputSingleParams memory params */\n      0x00\n        /* \"contracts/Bridge.sol\":2644:3006  ISwapRouter.ExactInputSingleParams({... */\n      mload(0x40)\n      dup1\n      0x0100\n      add\n      0x40\n      mstore\n      dup1\n        /* \"contracts/Bridge.sol\":2706:2713  inToken */\n      dup5\n        /* \"contracts/Bridge.sol\":2644:3006  ISwapRouter.ExactInputSingleParams({... */\n      0xffffffffffffffffffffffffffffffffffffffff\n      and\n      dup2\n      mstore\n      0x20\n      add\n        /* \"contracts/Bridge.sol\":2741:2749  outToken */\n      dup4\n        /* \"contracts/Bridge.sol\":2644:3006  ISwapRouter.ExactInputSingleParams({... */\n      0xffffffffffffffffffffffffffffffffffffffff\n      and\n      dup2\n      mstore\n      0x20\n      add\n        /* \"contracts/Bridge.sol\":2772:2776  3000 */\n      0x0bb8\n        /* \"contracts/Bridge.sol\":2644:3006  ISwapRouter.ExactInputSingleParams({... */\n      0xffffff\n      and\n      dup2\n      mstore\n      0x20\n      add\n        /* \"contracts/Bridge.sol\":2813:2817  this */\n      address\n        /* \"contracts/Bridge.sol\":2644:3006  ISwapRouter.ExactInputSingleParams({... */\n      0xffffffffffffffffffffffffffffffffffffffff\n      and\n      dup2\n      mstore\n      0x20\n      add\n        /* \"contracts/Bridge.sol\":2846:2861  block.timestamp */\n      timestamp\n        /* \"contracts/Bridge.sol\":2644:3006  ISwapRouter.ExactInputSingleParams({... */\n      dup2\n      mstore\n      0x20\n      add\n        /* \"contracts/Bridge.sol\":2889:2894  swaps */\n      0x01\n        /* \"contracts/Bridge.sol\":2889:2902  swaps[swapId] */\n      0x00\n        /* \"contracts/Bridge.sol\":2895:2901  swapId */\n      dup8\n        /* \"contracts/Bridge.sol\":2889:2902  swaps[swapId] */\n      dup2\n      mstore\n      0x20\n      add\n      swap1\n      dup2\n      mstore\n      0x20\n      add\n      0x00\n      keccak256\n        /* \"contracts/Bridge.sol\":2889:2916  swaps[swapId].inTokenAmount */\n      0x01\n      add\n      sload\n        /* \"contracts/Bridge.sol\":2644:3006  ISwapRouter.ExactInputSingleParams({... */\n      dup2\n      mstore\n      0x20\n      add\n        /* \"contracts/Bridge.sol\":2952:2953  0 */\n      0x00\n        /* \"contracts/Bridge.sol\":2644:3006  ISwapRouter.ExactInputSingleParams({... */\n      dup2\n      mstore\n      0x20\n      add\n        /* \"contracts/Bridge.sol\":2990:2991  0 */\n      0x00\n        /* \"contracts/Bridge.sol\":2644:3006  ISwapRouter.ExactInputSingleParams({... */\n      0xffffffffffffffffffffffffffffffffffffffff\n      and\n      dup2\n      mstore\n      pop\n        /* \"contracts/Bridge.sol\":2581:3006  ISwapRouter.ExactInputSingleParams memory params =... */\n      swap1\n      pop\n        /* \"contracts/Bridge.sol\":3048:3058  swapRouter */\n      immutable(\"0x865307fd9343f9b21447315c34d5042aa95db66533b26762dae88e17b3c809d7\")\n        /* \"contracts/Bridge.sol\":3048:3075  swapRouter.exactInputSingle */\n      0xffffffffffffffffffffffffffffffffffffffff\n      and\n      0x414bf389\n        /* \"contracts/Bridge.sol\":3076:3082  params */\n      dup3\n        /* \"contracts/Bridge.sol\":3048:3083  swapRouter.exactInputSingle(params) */\n      mload(0x40)\n      dup3\n      0xffffffff\n      and\n      0xe0\n      shl\n      dup2\n      mstore\n      0x04\n      add\n      tag_102\n      swap2\n      swap1\n      tag_103\n      jump\t// in\n    tag_102:\n      0x20\n      mload(0x40)\n      dup1\n      dup4\n      sub\n      dup2\n      0x00\n      dup8\n      gas\n      call\n      iszero\n      dup1\n      iszero\n      tag_105\n      jumpi\n      returndatasize\n      0x00\n      dup1\n      returndatacopy\n      revert(0x00, returndatasize)\n    tag_105:\n      pop\n      pop\n      pop\n      pop\n      mload(0x40)\n      returndatasize\n      not(0x1f)\n      0x1f\n      dup3\n      add\n      and\n      dup3\n      add\n      dup1\n      0x40\n      mstore\n      pop\n      dup2\n      add\n      swap1\n      tag_106\n      swap2\n      swap1\n      tag_61\n      jump\t// in\n    tag_106:\n        /* \"contracts/Bridge.sol\":3017:3022  swaps */\n      0x01\n        /* \"contracts/Bridge.sol\":3017:3030  swaps[swapId] */\n      0x00\n        /* \"contracts/Bridge.sol\":3023:3029  swapId */\n      dup7\n        /* \"contracts/Bridge.sol\":3017:3030  swaps[swapId] */\n      dup2\n      mstore\n      0x20\n      add\n      swap1\n      dup2\n      mstore\n      0x20\n      add\n      0x00\n      keccak256\n        /* \"contracts/Bridge.sol\":3017:3045  swaps[swapId].outTokenAmount */\n      0x02\n      add\n        /* \"contracts/Bridge.sol\":3017:3083  swaps[swapId].outTokenAmount = swapRouter.exactInputSingle(params) */\n      dup2\n      swap1\n      sstore\n      pop\n        /* \"contracts/Bridge.sol\":3099:3149  SwapExecuted(swapId, swaps[swapId].outTokenAmount) */\n      0x4f73e5828387c436ef01a51b03853873e76d7a5551556837d452cbeb6f285cb5\n        /* \"contracts/Bridge.sol\":3112:3118  swapId */\n      dup5\n        /* \"contracts/Bridge.sol\":3120:3125  swaps */\n      0x01\n        /* \"contracts/Bridge.sol\":3120:3133  swaps[swapId] */\n      0x00\n        /* \"contracts/Bridge.sol\":3126:3132  swapId */\n      dup8\n        /* \"contracts/Bridge.sol\":3120:3133  swaps[swapId] */\n      dup2\n      mstore\n      0x20\n      add\n      swap1\n      dup2\n      mstore\n      0x20\n      add\n      0x00\n      keccak256\n        /* \"contracts/Bridge.sol\":3120:3148  swaps[swapId].outTokenAmount */\n      0x02\n      add\n      sload\n        /* \"contracts/Bridge.sol\":3099:3149  SwapExecuted(swapId, swaps[swapId].outTokenAmount) */\n      mload(0x40)\n      tag_107\n      swap3\n      swap2\n      swap1\n      tag_108\n      jump\t// in\n    tag_107:\n      mload(0x40)\n      dup1\n      swap2\n      sub\n      swap1\n      log1\n        /* \"contracts/Bridge.sol\":3187:3191  true */\n      0x01\n        /* \"contracts/Bridge.sol\":3160:3165  swaps */\n      dup1\n        /* \"contracts/Bridge.sol\":3160:3173  swaps[swapId] */\n      0x00\n        /* \"contracts/Bridge.sol\":3166:3172  swapId */\n      dup7\n        /* \"contracts/Bridge.sol\":3160:3173  swaps[swapId] */\n      dup2\n      mstore\n      0x20\n      add\n      swap1\n      dup2\n      mstore\n      0x20\n      add\n      0x00\n      keccak256\n        /* \"contracts/Bridge.sol\":3160:3184  swaps[swapId].isExecuted */\n      0x05\n      add\n      0x00\n        /* \"contracts/Bridge.sol\":3160:3191  swaps[swapId].isExecuted = true */\n      0x0100\n      exp\n      dup2\n      sload\n      dup2\n      0xff\n      mul\n      not\n      and\n      swap1\n      dup4\n      iszero\n      iszero\n      mul\n      or\n      swap1\n      sstore\n      pop\n        /* \"contracts/Bridge.sol\":1893:3198  {... */\n      pop\n      pop\n      pop\n        /* \"contracts/Bridge.sol\":1852:3198  function executeSwap(uint swapId) public {... */\n      pop\n      jump\t// out\n        /* \"contracts/Bridge.sol\":510:549  ISwapRouter public immutable swapRouter */\n    tag_43:\n      immutable(\"0x865307fd9343f9b21447315c34d5042aa95db66533b26762dae88e17b3c809d7\")\n      dup2\n      jump\t// out\n        /* \"contracts/Bridge.sol\":560:594  mapping(uint => Swap) public swaps */\n    tag_48:\n      mstore(0x20, 0x01)\n      dup1\n      0x00\n      mstore\n      keccak256(0x00, 0x40)\n      0x00\n      swap2\n      pop\n      swap1\n      pop\n      dup1\n      0x00\n      add\n      0x00\n      swap1\n      sload\n      swap1\n      0x0100\n      exp\n      swap1\n      div\n      0xff\n      and\n      swap1\n      dup1\n      0x00\n      add\n      0x01\n      swap1\n      sload\n      swap1\n      0x0100\n      exp\n      swap1\n      div\n      0xff\n      and\n      swap1\n      dup1\n      0x00\n      add\n      0x02\n      swap1\n      sload\n      swap1\n      0x0100\n      exp\n      swap1\n      div\n      0xff\n      and\n      swap1\n      dup1\n      0x01\n      add\n      sload\n      swap1\n      dup1\n      0x02\n      add\n      sload\n      swap1\n      dup1\n      0x03\n      add\n      dup1\n      sload\n      tag_109\n      swap1\n      tag_110\n      jump\t// in\n    tag_109:\n      dup1\n      0x1f\n      add\n      0x20\n      dup1\n      swap2\n      div\n      mul\n      0x20\n      add\n      mload(0x40)\n      swap1\n      dup2\n      add\n      0x40\n      mstore\n      dup1\n      swap3\n      swap2\n      swap1\n      dup2\n      dup2\n      mstore\n      0x20\n      add\n      dup3\n      dup1\n      sload\n      tag_111\n      swap1\n      tag_110\n      jump\t// in\n    tag_111:\n      dup1\n      iszero\n      tag_112\n      jumpi\n      dup1\n      0x1f\n      lt\n      tag_113\n      jumpi\n      0x0100\n      dup1\n      dup4\n      sload\n      div\n      mul\n      dup4\n      mstore\n      swap2\n      0x20\n      add\n      swap2\n      jump(tag_112)\n    tag_113:\n      dup3\n      add\n      swap2\n      swap1\n      0x00\n      mstore\n      keccak256(0x00, 0x20)\n      swap1\n    tag_114:\n      dup2\n      sload\n      dup2\n      mstore\n      swap1\n      0x01\n      add\n      swap1\n      0x20\n      add\n      dup1\n      dup4\n      gt\n      tag_114\n      jumpi\n      dup3\n      swap1\n      sub\n      0x1f\n      and\n      dup3\n      add\n      swap2\n    tag_112:\n      pop\n      pop\n      pop\n      pop\n      pop\n      swap1\n      dup1\n      0x04\n      add\n      dup1\n      sload\n      tag_115\n      swap1\n      tag_110\n      jump\t// in\n    tag_115:\n      dup1\n      0x1f\n      add\n      0x20\n      dup1\n      swap2\n      div\n      mul\n      0x20\n      add\n      mload(0x40)\n      swap1\n      dup2\n      add\n      0x40\n      mstore\n      dup1\n      swap3\n      swap2\n      swap1\n      dup2\n      dup2\n      mstore\n      0x20\n      add\n      dup3\n      dup1\n      sload\n      tag_116\n      swap1\n      tag_110\n      jump\t// in\n    tag_116:\n      dup1\n      iszero\n      tag_117\n      jumpi\n      dup1\n      0x1f\n      lt\n      tag_118\n      jumpi\n      0x0100\n      dup1\n      dup4\n      sload\n      div\n      mul\n      dup4\n      mstore\n      swap2\n      0x20\n      add\n      swap2\n      jump(tag_117)\n    tag_118:\n      dup3\n      add\n      swap2\n      swap1\n      0x00\n      mstore\n      keccak256(0x00, 0x20)\n      swap1\n    tag_119:\n      dup2\n      sload\n      dup2\n      mstore\n      swap1\n      0x01\n      add\n      swap1\n      0x20\n      add\n      dup1\n      dup4\n      gt\n      tag_119\n      jumpi\n      dup3\n      swap1\n      sub\n      0x1f\n      and\n      dup3\n      add\n      swap2\n    tag_117:\n      pop\n      pop\n      pop\n      pop\n      pop\n      swap1\n      dup1\n      0x05\n      add\n      0x00\n      swap1\n      sload\n      swap1\n      0x0100\n      exp\n      swap1\n      div\n      0xff\n      and\n      swap1\n      pop\n      dup9\n      jump\t// out\n        /* \"@uniswap/v3-periphery/contracts/libraries/TransferHelper.sol\":1873:2180  function safeApprove(... */\n    tag_101:\n        /* \"@uniswap/v3-periphery/contracts/libraries/TransferHelper.sol\":1986:1998  bool success */\n      0x00\n        /* \"@uniswap/v3-periphery/contracts/libraries/TransferHelper.sol\":2000:2017  bytes memory data */\n      dup1\n        /* \"@uniswap/v3-periphery/contracts/libraries/TransferHelper.sol\":2021:2026  token */\n      dup5\n        /* \"@uniswap/v3-periphery/contracts/libraries/TransferHelper.sol\":2021:2031  token.call */\n      0xffffffffffffffffffffffffffffffffffffffff\n      and\n        /* \"@uniswap/v3-periphery/contracts/libraries/TransferHelper.sol\":2055:2078  IERC20.approve.selector */\n      shl(0xe0, 0x095ea7b3)\n        /* \"@uniswap/v3-periphery/contracts/libraries/TransferHelper.sol\":2080:2082  to */\n      dup6\n        /* \"@uniswap/v3-periphery/contracts/libraries/TransferHelper.sol\":2084:2089  value */\n      dup6\n        /* \"@uniswap/v3-periphery/contracts/libraries/TransferHelper.sol\":2032:2090  abi.encodeWithSelector(IERC20.approve.selector, to, value) */\n      add(0x24, mload(0x40))\n      tag_121\n      swap3\n      swap2\n      swap1\n      tag_63\n      jump\t// in\n    tag_121:\n      mload(0x40)\n      0x20\n      dup2\n      dup4\n      sub\n      sub\n      dup2\n      mstore\n      swap1\n      0x40\n      mstore\n      swap1\n      not(0xffffffffffffffffffffffffffffffffffffffffffffffffffffffff)\n      and\n      0x20\n      dup3\n      add\n      dup1\n      mload\n      0xffffffffffffffffffffffffffffffffffffffffffffffffffffffff\n      dup4\n      dup2\n      dup4\n      and\n      or\n      dup4\n      mstore\n      pop\n      pop\n      pop\n      pop\n        /* \"@uniswap/v3-periphery/contracts/libraries/TransferHelper.sol\":2021:2091  token.call(abi.encodeWithSelector(IERC20.approve.selector, to, value)) */\n      mload(0x40)\n      tag_122\n      swap2\n      swap1\n      tag_123\n      jump\t// in\n    tag_122:\n      0x00\n      mload(0x40)\n      dup1\n      dup4\n      sub\n      dup2\n      0x00\n      dup7\n      gas\n      call\n      swap2\n      pop\n      pop\n      returndatasize\n      dup1\n      0x00\n      dup2\n      eq\n      tag_126\n      jumpi\n      mload(0x40)\n      swap2\n      pop\n      and(add(returndatasize, 0x3f), not(0x1f))\n      dup3\n      add\n      0x40\n      mstore\n      returndatasize\n      dup3\n      mstore\n      returndatasize\n      0x00\n      0x20\n      dup5\n      add\n      returndatacopy\n      jump(tag_125)\n    tag_126:\n      0x60\n      swap2\n      pop\n    tag_125:\n      pop\n        /* \"@uniswap/v3-periphery/contracts/libraries/TransferHelper.sol\":1985:2091  (bool success, bytes memory data) = token.call(abi.encodeWithSelector(IERC20.approve.selector, to, value)) */\n      swap2\n      pop\n      swap2\n      pop\n        /* \"@uniswap/v3-periphery/contracts/libraries/TransferHelper.sol\":2109:2116  success */\n      dup2\n        /* \"@uniswap/v3-periphery/contracts/libraries/TransferHelper.sol\":2109:2166  success && (data.length == 0 || abi.decode(data, (bool))) */\n      dup1\n      iszero\n      tag_127\n      jumpi\n      pop\n        /* \"@uniswap/v3-periphery/contracts/libraries/TransferHelper.sol\":2136:2137  0 */\n      0x00\n        /* \"@uniswap/v3-periphery/contracts/libraries/TransferHelper.sol\":2121:2125  data */\n      dup2\n        /* \"@uniswap/v3-periphery/contracts/libraries/TransferHelper.sol\":2121:2132  data.length */\n      mload\n        /* \"@uniswap/v3-periphery/contracts/libraries/TransferHelper.sol\":2121:2137  data.length == 0 */\n      eq\n        /* \"@uniswap/v3-periphery/contracts/libraries/TransferHelper.sol\":2121:2165  data.length == 0 || abi.decode(data, (bool)) */\n      dup1\n      tag_128\n      jumpi\n      pop\n        /* \"@uniswap/v3-periphery/contracts/libraries/TransferHelper.sol\":2152:2156  data */\n      dup1\n        /* \"@uniswap/v3-periphery/contracts/libraries/TransferHelper.sol\":2141:2165  abi.decode(data, (bool)) */\n      dup1\n      0x20\n      add\n      swap1\n      mload\n      dup2\n      add\n      swap1\n      tag_129\n      swap2\n      swap1\n      tag_67\n      jump\t// in\n    tag_129:\n        /* \"@uniswap/v3-periphery/contracts/libraries/TransferHelper.sol\":2121:2165  data.length == 0 || abi.decode(data, (bool)) */\n    tag_128:\n        /* \"@uniswap/v3-periphery/contracts/libraries/TransferHelper.sol\":2109:2166  success && (data.length == 0 || abi.decode(data, (bool))) */\n    tag_127:\n        /* \"@uniswap/v3-periphery/contracts/libraries/TransferHelper.sol\":2101:2173  require(success && (data.length == 0 || abi.decode(data, (bool))), 'SA') */\n      tag_130\n      jumpi\n      mload(0x40)\n      0x08c379a000000000000000000000000000000000000000000000000000000000\n      dup2\n      mstore\n      0x04\n      add\n      tag_131\n      swap1\n      tag_132\n      jump\t// in\n    tag_131:\n      mload(0x40)\n      dup1\n      swap2\n      sub\n      swap1\n      revert\n    tag_130:\n        /* \"@uniswap/v3-periphery/contracts/libraries/TransferHelper.sol\":1975:2180  {... */\n      pop\n      pop\n        /* \"@uniswap/v3-periphery/contracts/libraries/TransferHelper.sol\":1873:2180  function safeApprove(... */\n      pop\n      pop\n      pop\n      jump\t// out\n        /* \"#utility.yul\":7:82   */\n    tag_133:\n        /* \"#utility.yul\":40:46   */\n      0x00\n        /* \"#utility.yul\":73:75   */\n      0x40\n        /* \"#utility.yul\":67:76   */\n      mload\n        /* \"#utility.yul\":57:76   */\n      swap1\n      pop\n        /* \"#utility.yul\":7:82   */\n      swap1\n      jump\t// out\n        /* \"#utility.yul\":88:205   */\n    tag_134:\n        /* \"#utility.yul\":197:198   */\n      0x00\n        /* \"#utility.yul\":194:195   */\n      dup1\n        /* \"#utility.yul\":187:199   */\n      revert\n        /* \"#utility.yul\":211:328   */\n    tag_135:\n        /* \"#utility.yul\":320:321   */\n      0x00\n        /* \"#utility.yul\":317:318   */\n      dup1\n        /* \"#utility.yul\":310:322   */\n      revert\n        /* \"#utility.yul\":334:411   */\n    tag_136:\n        /* \"#utility.yul\":371:378   */\n      0x00\n        /* \"#utility.yul\":400:405   */\n      dup2\n        /* \"#utility.yul\":389:405   */\n      swap1\n      pop\n        /* \"#utility.yul\":334:411   */\n      swap2\n      swap1\n      pop\n      jump\t// out\n        /* \"#utility.yul\":417:539   */\n    tag_137:\n        /* \"#utility.yul\":490:514   */\n      tag_219\n        /* \"#utility.yul\":508:513   */\n      dup2\n        /* \"#utility.yul\":490:514   */\n      tag_136\n      jump\t// in\n    tag_219:\n        /* \"#utility.yul\":483:488   */\n      dup2\n        /* \"#utility.yul\":480:515   */\n      eq\n        /* \"#utility.yul\":470:533   */\n      tag_220\n      jumpi\n        /* \"#utility.yul\":529:530   */\n      0x00\n        /* \"#utility.yul\":526:527   */\n      dup1\n        /* \"#utility.yul\":519:531   */\n      revert\n        /* \"#utility.yul\":470:533   */\n    tag_220:\n        /* \"#utility.yul\":417:539   */\n      pop\n      jump\t// out\n        /* \"#utility.yul\":545:684   */\n    tag_138:\n        /* \"#utility.yul\":591:596   */\n      0x00\n        /* \"#utility.yul\":629:635   */\n      dup2\n        /* \"#utility.yul\":616:636   */\n      calldataload\n        /* \"#utility.yul\":607:636   */\n      swap1\n      pop\n        /* \"#utility.yul\":645:678   */\n      tag_222\n        /* \"#utility.yul\":672:677   */\n      dup2\n        /* \"#utility.yul\":645:678   */\n      tag_137\n      jump\t// in\n    tag_222:\n        /* \"#utility.yul\":545:684   */\n      swap3\n      swap2\n      pop\n      pop\n      jump\t// out\n        /* \"#utility.yul\":690:1019   */\n    tag_15:\n        /* \"#utility.yul\":749:755   */\n      0x00\n        /* \"#utility.yul\":798:800   */\n      0x20\n        /* \"#utility.yul\":786:795   */\n      dup3\n        /* \"#utility.yul\":777:784   */\n      dup5\n        /* \"#utility.yul\":773:796   */\n      sub\n        /* \"#utility.yul\":769:801   */\n      slt\n        /* \"#utility.yul\":766:885   */\n      iszero\n      tag_224\n      jumpi\n        /* \"#utility.yul\":804:883   */\n      tag_225\n      tag_134\n      jump\t// in\n    tag_225:\n        /* \"#utility.yul\":766:885   */\n    tag_224:\n        /* \"#utility.yul\":924:925   */\n      0x00\n        /* \"#utility.yul\":949:1002   */\n      tag_226\n        /* \"#utility.yul\":994:1001   */\n      dup5\n        /* \"#utility.yul\":985:991   */\n      dup3\n        /* \"#utility.yul\":974:983   */\n      dup6\n        /* \"#utility.yul\":970:992   */\n      add\n        /* \"#utility.yul\":949:1002   */\n      tag_138\n      jump\t// in\n    tag_226:\n        /* \"#utility.yul\":939:1002   */\n      swap2\n      pop\n        /* \"#utility.yul\":895:1012   */\n      pop\n        /* \"#utility.yul\":690:1019   */\n      swap3\n      swap2\n      pop\n      pop\n      jump\t// out\n        /* \"#utility.yul\":1025:1151   */\n    tag_139:\n        /* \"#utility.yul\":1062:1069   */\n      0x00\n        /* \"#utility.yul\":1102:1144   */\n      0xffffffffffffffffffffffffffffffffffffffff\n        /* \"#utility.yul\":1095:1100   */\n      dup3\n        /* \"#utility.yul\":1091:1145   */\n      and\n        /* \"#utility.yul\":1080:1145   */\n      swap1\n      pop\n        /* \"#utility.yul\":1025:1151   */\n      swap2\n      swap1\n      pop\n      jump\t// out\n        /* \"#utility.yul\":1157:1253   */\n    tag_140:\n        /* \"#utility.yul\":1194:1201   */\n      0x00\n        /* \"#utility.yul\":1223:1247   */\n      tag_229\n        /* \"#utility.yul\":1241:1246   */\n      dup3\n        /* \"#utility.yul\":1223:1247   */\n      tag_139\n      jump\t// in\n    tag_229:\n        /* \"#utility.yul\":1212:1247   */\n      swap1\n      pop\n        /* \"#utility.yul\":1157:1253   */\n      swap2\n      swap1\n      pop\n      jump\t// out\n        /* \"#utility.yul\":1259:1377   */\n    tag_141:\n        /* \"#utility.yul\":1346:1370   */\n      tag_231\n        /* \"#utility.yul\":1364:1369   */\n      dup2\n        /* \"#utility.yul\":1346:1370   */\n      tag_140\n      jump\t// in\n    tag_231:\n        /* \"#utility.yul\":1341:1344   */\n      dup3\n        /* \"#utility.yul\":1334:1371   */\n      mstore\n        /* \"#utility.yul\":1259:1377   */\n      pop\n      pop\n      jump\t// out\n        /* \"#utility.yul\":1383:1605   */\n    tag_18:\n        /* \"#utility.yul\":1476:1480   */\n      0x00\n        /* \"#utility.yul\":1514:1516   */\n      0x20\n        /* \"#utility.yul\":1503:1512   */\n      dup3\n        /* \"#utility.yul\":1499:1517   */\n      add\n        /* \"#utility.yul\":1491:1517   */\n      swap1\n      pop\n        /* \"#utility.yul\":1527:1598   */\n      tag_233\n        /* \"#utility.yul\":1595:1596   */\n      0x00\n        /* \"#utility.yul\":1584:1593   */\n      dup4\n        /* \"#utility.yul\":1580:1597   */\n      add\n        /* \"#utility.yul\":1571:1577   */\n      dup5\n        /* \"#utility.yul\":1527:1598   */\n      tag_141\n      jump\t// in\n    tag_233:\n        /* \"#utility.yul\":1383:1605   */\n      swap3\n      swap2\n      pop\n      pop\n      jump\t// out\n        /* \"#utility.yul\":1611:1733   */\n    tag_142:\n        /* \"#utility.yul\":1684:1708   */\n      tag_235\n        /* \"#utility.yul\":1702:1707   */\n      dup2\n        /* \"#utility.yul\":1684:1708   */\n      tag_140\n      jump\t// in\n    tag_235:\n        /* \"#utility.yul\":1677:1682   */\n      dup2\n        /* \"#utility.yul\":1674:1709   */\n      eq\n        /* \"#utility.yul\":1664:1727   */\n      tag_236\n      jumpi\n        /* \"#utility.yul\":1723:1724   */\n      0x00\n        /* \"#utility.yul\":1720:1721   */\n      dup1\n        /* \"#utility.yul\":1713:1725   */\n      revert\n        /* \"#utility.yul\":1664:1727   */\n    tag_236:\n        /* \"#utility.yul\":1611:1733   */\n      pop\n      jump\t// out\n        /* \"#utility.yul\":1739:1878   */\n    tag_143:\n        /* \"#utility.yul\":1785:1790   */\n      0x00\n        /* \"#utility.yul\":1823:1829   */\n      dup2\n        /* \"#utility.yul\":1810:1830   */\n      calldataload\n        /* \"#utility.yul\":1801:1830   */\n      swap1\n      pop\n        /* \"#utility.yul\":1839:1872   */\n      tag_238\n        /* \"#utility.yul\":1866:1871   */\n      dup2\n        /* \"#utility.yul\":1839:1872   */\n      tag_142\n      jump\t// in\n    tag_238:\n        /* \"#utility.yul\":1739:1878   */\n      swap3\n      swap2\n      pop\n      pop\n      jump\t// out\n        /* \"#utility.yul\":1884:2213   */\n    tag_21:\n        /* \"#utility.yul\":1943:1949   */\n      0x00\n        /* \"#utility.yul\":1992:1994   */\n      0x20\n        /* \"#utility.yul\":1980:1989   */\n      dup3\n        /* \"#utility.yul\":1971:1978   */\n      dup5\n        /* \"#utility.yul\":1967:1990   */\n      sub\n        /* \"#utility.yul\":1963:1995   */\n      slt\n        /* \"#utility.yul\":1960:2079   */\n      iszero\n      tag_240\n      jumpi\n        /* \"#utility.yul\":1998:2077   */\n      tag_241\n      tag_134\n      jump\t// in\n    tag_241:\n        /* \"#utility.yul\":1960:2079   */\n    tag_240:\n        /* \"#utility.yul\":2118:2119   */\n      0x00\n        /* \"#utility.yul\":2143:2196   */\n      tag_242\n        /* \"#utility.yul\":2188:2195   */\n      dup5\n        /* \"#utility.yul\":2179:2185   */\n      dup3\n        /* \"#utility.yul\":2168:2177   */\n      dup6\n        /* \"#utility.yul\":2164:2186   */\n      add\n        /* \"#utility.yul\":2143:2196   */\n      tag_143\n      jump\t// in\n    tag_242:\n        /* \"#utility.yul\":2133:2196   */\n      swap2\n      pop\n        /* \"#utility.yul\":2089:2206   */\n      pop\n        /* \"#utility.yul\":1884:2213   */\n      swap3\n      swap2\n      pop\n      pop\n      jump\t// out\n        /* \"#utility.yul\":2219:2309   */\n    tag_144:\n        /* \"#utility.yul\":2253:2260   */\n      0x00\n        /* \"#utility.yul\":2296:2301   */\n      dup2\n        /* \"#utility.yul\":2289:2302   */\n      iszero\n        /* \"#utility.yul\":2282:2303   */\n      iszero\n        /* \"#utility.yul\":2271:2303   */\n      swap1\n      pop\n        /* \"#utility.yul\":2219:2309   */\n      swap2\n      swap1\n      pop\n      jump\t// out\n        /* \"#utility.yul\":2315:2424   */\n    tag_145:\n        /* \"#utility.yul\":2396:2417   */\n      tag_245\n        /* \"#utility.yul\":2411:2416   */\n      dup2\n        /* \"#utility.yul\":2396:2417   */\n      tag_144\n      jump\t// in\n    tag_245:\n        /* \"#utility.yul\":2391:2394   */\n      dup3\n        /* \"#utility.yul\":2384:2418   */\n      mstore\n        /* \"#utility.yul\":2315:2424   */\n      pop\n      pop\n      jump\t// out\n        /* \"#utility.yul\":2430:2640   */\n    tag_27:\n        /* \"#utility.yul\":2517:2521   */\n      0x00\n        /* \"#utility.yul\":2555:2557   */\n      0x20\n        /* \"#utility.yul\":2544:2553   */\n      dup3\n        /* \"#utility.yul\":2540:2558   */\n      add\n        /* \"#utility.yul\":2532:2558   */\n      swap1\n      pop\n        /* \"#utility.yul\":2568:2633   */\n      tag_247\n        /* \"#utility.yul\":2630:2631   */\n      0x00\n        /* \"#utility.yul\":2619:2628   */\n      dup4\n        /* \"#utility.yul\":2615:2632   */\n      add\n        /* \"#utility.yul\":2606:2612   */\n      dup5\n        /* \"#utility.yul\":2568:2633   */\n      tag_145\n      jump\t// in\n    tag_247:\n        /* \"#utility.yul\":2430:2640   */\n      swap3\n      swap2\n      pop\n      pop\n      jump\t// out\n        /* \"#utility.yul\":2646:3120   */\n    tag_30:\n        /* \"#utility.yul\":2714:2720   */\n      0x00\n        /* \"#utility.yul\":2722:2728   */\n      dup1\n        /* \"#utility.yul\":2771:2773   */\n      0x40\n        /* \"#utility.yul\":2759:2768   */\n      dup4\n        /* \"#utility.yul\":2750:2757   */\n      dup6\n        /* \"#utility.yul\":2746:2769   */\n      sub\n        /* \"#utility.yul\":2742:2774   */\n      slt\n        /* \"#utility.yul\":2739:2858   */\n      iszero\n      tag_249\n      jumpi\n        /* \"#utility.yul\":2777:2856   */\n      tag_250\n      tag_134\n      jump\t// in\n    tag_250:\n        /* \"#utility.yul\":2739:2858   */\n    tag_249:\n        /* \"#utility.yul\":2897:2898   */\n      0x00\n        /* \"#utility.yul\":2922:2975   */\n      tag_251\n        /* \"#utility.yul\":2967:2974   */\n      dup6\n        /* \"#utility.yul\":2958:2964   */\n      dup3\n        /* \"#utility.yul\":2947:2956   */\n      dup7\n        /* \"#utility.yul\":2943:2965   */\n      add\n        /* \"#utility.yul\":2922:2975   */\n      tag_138\n      jump\t// in\n    tag_251:\n        /* \"#utility.yul\":2912:2975   */\n      swap3\n      pop\n        /* \"#utility.yul\":2868:2985   */\n      pop\n        /* \"#utility.yul\":3024:3026   */\n      0x20\n        /* \"#utility.yul\":3050:3103   */\n      tag_252\n        /* \"#utility.yul\":3095:3102   */\n      dup6\n        /* \"#utility.yul\":3086:3092   */\n      dup3\n        /* \"#utility.yul\":3075:3084   */\n      dup7\n        /* \"#utility.yul\":3071:3093   */\n      add\n        /* \"#utility.yul\":3050:3103   */\n      tag_143\n      jump\t// in\n    tag_252:\n        /* \"#utility.yul\":3040:3103   */\n      swap2\n      pop\n        /* \"#utility.yul\":2995:3113   */\n      pop\n        /* \"#utility.yul\":2646:3120   */\n      swap3\n      pop\n      swap3\n      swap1\n      pop\n      jump\t// out\n        /* \"#utility.yul\":3126:3242   */\n    tag_146:\n        /* \"#utility.yul\":3196:3217   */\n      tag_254\n        /* \"#utility.yul\":3211:3216   */\n      dup2\n        /* \"#utility.yul\":3196:3217   */\n      tag_144\n      jump\t// in\n    tag_254:\n        /* \"#utility.yul\":3189:3194   */\n      dup2\n        /* \"#utility.yul\":3186:3218   */\n      eq\n        /* \"#utility.yul\":3176:3236   */\n      tag_255\n      jumpi\n        /* \"#utility.yul\":3232:3233   */\n      0x00\n        /* \"#utility.yul\":3229:3230   */\n      dup1\n        /* \"#utility.yul\":3222:3234   */\n      revert\n        /* \"#utility.yul\":3176:3236   */\n    tag_255:\n        /* \"#utility.yul\":3126:3242   */\n      pop\n      jump\t// out\n        /* \"#utility.yul\":3248:3381   */\n    tag_147:\n        /* \"#utility.yul\":3291:3296   */\n      0x00\n        /* \"#utility.yul\":3329:3335   */\n      dup2\n        /* \"#utility.yul\":3316:3336   */\n      calldataload\n        /* \"#utility.yul\":3307:3336   */\n      swap1\n      pop\n        /* \"#utility.yul\":3345:3375   */\n      tag_257\n        /* \"#utility.yul\":3369:3374   */\n      dup2\n        /* \"#utility.yul\":3345:3375   */\n      tag_146\n      jump\t// in\n    tag_257:\n        /* \"#utility.yul\":3248:3381   */\n      swap3\n      swap2\n      pop\n      pop\n      jump\t// out\n        /* \"#utility.yul\":3387:3473   */\n    tag_148:\n        /* \"#utility.yul\":3422:3429   */\n      0x00\n        /* \"#utility.yul\":3462:3466   */\n      0xff\n        /* \"#utility.yul\":3455:3460   */\n      dup3\n        /* \"#utility.yul\":3451:3467   */\n      and\n        /* \"#utility.yul\":3440:3467   */\n      swap1\n      pop\n        /* \"#utility.yul\":3387:3473   */\n      swap2\n      swap1\n      pop\n      jump\t// out\n        /* \"#utility.yul\":3479:3597   */\n    tag_149:\n        /* \"#utility.yul\":3550:3572   */\n      tag_260\n        /* \"#utility.yul\":3566:3571   */\n      dup2\n        /* \"#utility.yul\":3550:3572   */\n      tag_148\n      jump\t// in\n    tag_260:\n        /* \"#utility.yul\":3543:3548   */\n      dup2\n        /* \"#utility.yul\":3540:3573   */\n      eq\n        /* \"#utility.yul\":3530:3591   */\n      tag_261\n      jumpi\n        /* \"#utility.yul\":3587:3588   */\n      0x00\n        /* \"#utility.yul\":3584:3585   */\n      dup1\n        /* \"#utility.yul\":3577:3589   */\n      revert\n        /* \"#utility.yul\":3530:3591   */\n    tag_261:\n        /* \"#utility.yul\":3479:3597   */\n      pop\n      jump\t// out\n        /* \"#utility.yul\":3603:3738   */\n    tag_150:\n        /* \"#utility.yul\":3647:3652   */\n      0x00\n        /* \"#utility.yul\":3685:3691   */\n      dup2\n        /* \"#utility.yul\":3672:3692   */\n      calldataload\n        /* \"#utility.yul\":3663:3692   */\n      swap1\n      pop\n        /* \"#utility.yul\":3701:3732   */\n      tag_263\n        /* \"#utility.yul\":3726:3731   */\n      dup2\n        /* \"#utility.yul\":3701:3732   */\n      tag_149\n      jump\t// in\n    tag_263:\n        /* \"#utility.yul\":3603:3738   */\n      swap3\n      swap2\n      pop\n      pop\n      jump\t// out\n        /* \"#utility.yul\":3744:3861   */\n    tag_151:\n        /* \"#utility.yul\":3853:3854   */\n      0x00\n        /* \"#utility.yul\":3850:3851   */\n      dup1\n        /* \"#utility.yul\":3843:3855   */\n      revert\n        /* \"#utility.yul\":3867:3984   */\n    tag_152:\n        /* \"#utility.yul\":3976:3977   */\n      0x00\n        /* \"#utility.yul\":3973:3974   */\n      dup1\n        /* \"#utility.yul\":3966:3978   */\n      revert\n        /* \"#utility.yul\":3990:4092   */\n    tag_153:\n        /* \"#utility.yul\":4031:4037   */\n      0x00\n        /* \"#utility.yul\":4082:4084   */\n      0x1f\n        /* \"#utility.yul\":4078:4085   */\n      not\n        /* \"#utility.yul\":4073:4075   */\n      0x1f\n        /* \"#utility.yul\":4066:4071   */\n      dup4\n        /* \"#utility.yul\":4062:4076   */\n      add\n        /* \"#utility.yul\":4058:4086   */\n      and\n        /* \"#utility.yul\":4048:4086   */\n      swap1\n      pop\n        /* \"#utility.yul\":3990:4092   */\n      swap2\n      swap1\n      pop\n      jump\t// out\n        /* \"#utility.yul\":4098:4278   */\n    tag_154:\n        /* \"#utility.yul\":4146:4223   */\n      0x4e487b7100000000000000000000000000000000000000000000000000000000\n        /* \"#utility.yul\":4143:4144   */\n      0x00\n        /* \"#utility.yul\":4136:4224   */\n      mstore\n        /* \"#utility.yul\":4243:4247   */\n      0x41\n        /* \"#utility.yul\":4240:4241   */\n      0x04\n        /* \"#utility.yul\":4233:4248   */\n      mstore\n        /* \"#utility.yul\":4267:4271   */\n      0x24\n        /* \"#utility.yul\":4264:4265   */\n      0x00\n        /* \"#utility.yul\":4257:4272   */\n      revert\n        /* \"#utility.yul\":4284:4565   */\n    tag_155:\n        /* \"#utility.yul\":4367:4394   */\n      tag_269\n        /* \"#utility.yul\":4389:4393   */\n      dup3\n        /* \"#utility.yul\":4367:4394   */\n      tag_153\n      jump\t// in\n    tag_269:\n        /* \"#utility.yul\":4359:4365   */\n      dup2\n        /* \"#utility.yul\":4355:4395   */\n      add\n        /* \"#utility.yul\":4497:4503   */\n      dup2\n        /* \"#utility.yul\":4485:4495   */\n      dup2\n        /* \"#utility.yul\":4482:4504   */\n      lt\n        /* \"#utility.yul\":4461:4479   */\n      0xffffffffffffffff\n        /* \"#utility.yul\":4449:4459   */\n      dup3\n        /* \"#utility.yul\":4446:4480   */\n      gt\n        /* \"#utility.yul\":4443:4505   */\n      or\n        /* \"#utility.yul\":4440:4528   */\n      iszero\n      tag_270\n      jumpi\n        /* \"#utility.yul\":4508:4526   */\n      tag_271\n      tag_154\n      jump\t// in\n    tag_271:\n        /* \"#utility.yul\":4440:4528   */\n    tag_270:\n        /* \"#utility.yul\":4548:4558   */\n      dup1\n        /* \"#utility.yul\":4544:4546   */\n      0x40\n        /* \"#utility.yul\":4537:4559   */\n      mstore\n        /* \"#utility.yul\":4327:4565   */\n      pop\n        /* \"#utility.yul\":4284:4565   */\n      pop\n      pop\n      jump\t// out\n        /* \"#utility.yul\":4571:4700   */\n    tag_156:\n        /* \"#utility.yul\":4605:4611   */\n      0x00\n        /* \"#utility.yul\":4632:4652   */\n      tag_273\n      tag_133\n      jump\t// in\n    tag_273:\n        /* \"#utility.yul\":4622:4652   */\n      swap1\n      pop\n        /* \"#utility.yul\":4661:4694   */\n      tag_274\n        /* \"#utility.yul\":4689:4693   */\n      dup3\n        /* \"#utility.yul\":4681:4687   */\n      dup3\n        /* \"#utility.yul\":4661:4694   */\n      tag_155\n      jump\t// in\n    tag_274:\n        /* \"#utility.yul\":4571:4700   */\n      swap2\n      swap1\n      pop\n      jump\t// out\n        /* \"#utility.yul\":4706:5014   */\n    tag_157:\n        /* \"#utility.yul\":4768:4772   */\n      0x00\n        /* \"#utility.yul\":4858:4876   */\n      0xffffffffffffffff\n        /* \"#utility.yul\":4850:4856   */\n      dup3\n        /* \"#utility.yul\":4847:4877   */\n      gt\n        /* \"#utility.yul\":4844:4900   */\n      iszero\n      tag_276\n      jumpi\n        /* \"#utility.yul\":4880:4898   */\n      tag_277\n      tag_154\n      jump\t// in\n    tag_277:\n        /* \"#utility.yul\":4844:4900   */\n    tag_276:\n        /* \"#utility.yul\":4918:4947   */\n      tag_278\n        /* \"#utility.yul\":4940:4946   */\n      dup3\n        /* \"#utility.yul\":4918:4947   */\n      tag_153\n      jump\t// in\n    tag_278:\n        /* \"#utility.yul\":4910:4947   */\n      swap1\n      pop\n        /* \"#utility.yul\":5002:5006   */\n      0x20\n        /* \"#utility.yul\":4996:5000   */\n      dup2\n        /* \"#utility.yul\":4992:5007   */\n      add\n        /* \"#utility.yul\":4984:5007   */\n      swap1\n      pop\n        /* \"#utility.yul\":4706:5014   */\n      swap2\n      swap1\n      pop\n      jump\t// out\n        /* \"#utility.yul\":5020:5166   */\n    tag_158:\n        /* \"#utility.yul\":5117:5123   */\n      dup3\n        /* \"#utility.yul\":5112:5115   */\n      dup2\n        /* \"#utility.yul\":5107:5110   */\n      dup4\n        /* \"#utility.yul\":5094:5124   */\n      calldatacopy\n        /* \"#utility.yul\":5158:5159   */\n      0x00\n        /* \"#utility.yul\":5149:5155   */\n      dup4\n        /* \"#utility.yul\":5144:5147   */\n      dup4\n        /* \"#utility.yul\":5140:5156   */\n      add\n        /* \"#utility.yul\":5133:5160   */\n      mstore\n        /* \"#utility.yul\":5020:5166   */\n      pop\n      pop\n      pop\n      jump\t// out\n        /* \"#utility.yul\":5172:5597   */\n    tag_159:\n        /* \"#utility.yul\":5250:5255   */\n      0x00\n        /* \"#utility.yul\":5275:5341   */\n      tag_281\n        /* \"#utility.yul\":5291:5340   */\n      tag_282\n        /* \"#utility.yul\":5333:5339   */\n      dup5\n        /* \"#utility.yul\":5291:5340   */\n      tag_157\n      jump\t// in\n    tag_282:\n        /* \"#utility.yul\":5275:5341   */\n      tag_156\n      jump\t// in\n    tag_281:\n        /* \"#utility.yul\":5266:5341   */\n      swap1\n      pop\n        /* \"#utility.yul\":5364:5370   */\n      dup3\n        /* \"#utility.yul\":5357:5362   */\n      dup2\n        /* \"#utility.yul\":5350:5371   */\n      mstore\n        /* \"#utility.yul\":5402:5406   */\n      0x20\n        /* \"#utility.yul\":5395:5400   */\n      dup2\n        /* \"#utility.yul\":5391:5407   */\n      add\n        /* \"#utility.yul\":5440:5443   */\n      dup5\n        /* \"#utility.yul\":5431:5437   */\n      dup5\n        /* \"#utility.yul\":5426:5429   */\n      dup5\n        /* \"#utility.yul\":5422:5438   */\n      add\n        /* \"#utility.yul\":5419:5444   */\n      gt\n        /* \"#utility.yul\":5416:5528   */\n      iszero\n      tag_283\n      jumpi\n        /* \"#utility.yul\":5447:5526   */\n      tag_284\n      tag_152\n      jump\t// in\n    tag_284:\n        /* \"#utility.yul\":5416:5528   */\n    tag_283:\n        /* \"#utility.yul\":5537:5591   */\n      tag_285\n        /* \"#utility.yul\":5584:5590   */\n      dup5\n        /* \"#utility.yul\":5579:5582   */\n      dup3\n        /* \"#utility.yul\":5574:5577   */\n      dup6\n        /* \"#utility.yul\":5537:5591   */\n      tag_158\n      jump\t// in\n    tag_285:\n        /* \"#utility.yul\":5256:5597   */\n      pop\n        /* \"#utility.yul\":5172:5597   */\n      swap4\n      swap3\n      pop\n      pop\n      pop\n      jump\t// out\n        /* \"#utility.yul\":5617:5957   */\n    tag_160:\n        /* \"#utility.yul\":5673:5678   */\n      0x00\n        /* \"#utility.yul\":5722:5725   */\n      dup3\n        /* \"#utility.yul\":5715:5719   */\n      0x1f\n        /* \"#utility.yul\":5707:5713   */\n      dup4\n        /* \"#utility.yul\":5703:5720   */\n      add\n        /* \"#utility.yul\":5699:5726   */\n      slt\n        /* \"#utility.yul\":5689:5811   */\n      tag_287\n      jumpi\n        /* \"#utility.yul\":5730:5809   */\n      tag_288\n      tag_151\n      jump\t// in\n    tag_288:\n        /* \"#utility.yul\":5689:5811   */\n    tag_287:\n        /* \"#utility.yul\":5847:5853   */\n      dup2\n        /* \"#utility.yul\":5834:5854   */\n      calldataload\n        /* \"#utility.yul\":5872:5951   */\n      tag_289\n        /* \"#utility.yul\":5947:5950   */\n      dup5\n        /* \"#utility.yul\":5939:5945   */\n      dup3\n        /* \"#utility.yul\":5932:5936   */\n      0x20\n        /* \"#utility.yul\":5924:5930   */\n      dup7\n        /* \"#utility.yul\":5920:5937   */\n      add\n        /* \"#utility.yul\":5872:5951   */\n      tag_159\n      jump\t// in\n    tag_289:\n        /* \"#utility.yul\":5863:5951   */\n      swap2\n      pop\n        /* \"#utility.yul\":5679:5957   */\n      pop\n        /* \"#utility.yul\":5617:5957   */\n      swap3\n      swap2\n      pop\n      pop\n      jump\t// out\n        /* \"#utility.yul\":5963:7512   */\n    tag_34:\n        /* \"#utility.yul\":6089:6095   */\n      0x00\n        /* \"#utility.yul\":6097:6103   */\n      dup1\n        /* \"#utility.yul\":6105:6111   */\n      0x00\n        /* \"#utility.yul\":6113:6119   */\n      dup1\n        /* \"#utility.yul\":6121:6127   */\n      0x00\n        /* \"#utility.yul\":6129:6135   */\n      dup1\n        /* \"#utility.yul\":6137:6143   */\n      0x00\n        /* \"#utility.yul\":6186:6189   */\n      0xe0\n        /* \"#utility.yul\":6174:6183   */\n      dup9\n        /* \"#utility.yul\":6165:6172   */\n      dup11\n        /* \"#utility.yul\":6161:6184   */\n      sub\n        /* \"#utility.yul\":6157:6190   */\n      slt\n        /* \"#utility.yul\":6154:6274   */\n      iszero\n      tag_291\n      jumpi\n        /* \"#utility.yul\":6193:6272   */\n      tag_292\n      tag_134\n      jump\t// in\n    tag_292:\n        /* \"#utility.yul\":6154:6274   */\n    tag_291:\n        /* \"#utility.yul\":6313:6314   */\n      0x00\n        /* \"#utility.yul\":6338:6391   */\n      tag_293\n        /* \"#utility.yul\":6383:6390   */\n      dup11\n        /* \"#utility.yul\":6374:6380   */\n      dup3\n        /* \"#utility.yul\":6363:6372   */\n      dup12\n        /* \"#utility.yul\":6359:6381   */\n      add\n        /* \"#utility.yul\":6338:6391   */\n      tag_138\n      jump\t// in\n    tag_293:\n        /* \"#utility.yul\":6328:6391   */\n      swap8\n      pop\n        /* \"#utility.yul\":6284:6401   */\n      pop\n        /* \"#utility.yul\":6440:6442   */\n      0x20\n        /* \"#utility.yul\":6466:6516   */\n      tag_294\n        /* \"#utility.yul\":6508:6515   */\n      dup11\n        /* \"#utility.yul\":6499:6505   */\n      dup3\n        /* \"#utility.yul\":6488:6497   */\n      dup12\n        /* \"#utility.yul\":6484:6506   */\n      add\n        /* \"#utility.yul\":6466:6516   */\n      tag_147\n      jump\t// in\n    tag_294:\n        /* \"#utility.yul\":6456:6516   */\n      swap7\n      pop\n        /* \"#utility.yul\":6411:6526   */\n      pop\n        /* \"#utility.yul\":6565:6567   */\n      0x40\n        /* \"#utility.yul\":6591:6642   */\n      tag_295\n        /* \"#utility.yul\":6634:6641   */\n      dup11\n        /* \"#utility.yul\":6625:6631   */\n      dup3\n        /* \"#utility.yul\":6614:6623   */\n      dup12\n        /* \"#utility.yul\":6610:6632   */\n      add\n        /* \"#utility.yul\":6591:6642   */\n      tag_150\n      jump\t// in\n    tag_295:\n        /* \"#utility.yul\":6581:6642   */\n      swap6\n      pop\n        /* \"#utility.yul\":6536:6652   */\n      pop\n        /* \"#utility.yul\":6691:6693   */\n      0x60\n        /* \"#utility.yul\":6717:6768   */\n      tag_296\n        /* \"#utility.yul\":6760:6767   */\n      dup11\n        /* \"#utility.yul\":6751:6757   */\n      dup3\n        /* \"#utility.yul\":6740:6749   */\n      dup12\n        /* \"#utility.yul\":6736:6758   */\n      add\n        /* \"#utility.yul\":6717:6768   */\n      tag_150\n      jump\t// in\n    tag_296:\n        /* \"#utility.yul\":6707:6768   */\n      swap5\n      pop\n        /* \"#utility.yul\":6662:6778   */\n      pop\n        /* \"#utility.yul\":6817:6820   */\n      0x80\n        /* \"#utility.yul\":6844:6897   */\n      tag_297\n        /* \"#utility.yul\":6889:6896   */\n      dup11\n        /* \"#utility.yul\":6880:6886   */\n      dup3\n        /* \"#utility.yul\":6869:6878   */\n      dup12\n        /* \"#utility.yul\":6865:6887   */\n      add\n        /* \"#utility.yul\":6844:6897   */\n      tag_138\n      jump\t// in\n    tag_297:\n        /* \"#utility.yul\":6834:6897   */\n      swap4\n      pop\n        /* \"#utility.yul\":6788:6907   */\n      pop\n        /* \"#utility.yul\":6974:6977   */\n      0xa0\n        /* \"#utility.yul\":6963:6972   */\n      dup9\n        /* \"#utility.yul\":6959:6978   */\n      add\n        /* \"#utility.yul\":6946:6979   */\n      calldataload\n        /* \"#utility.yul\":7006:7024   */\n      0xffffffffffffffff\n        /* \"#utility.yul\":6998:7004   */\n      dup2\n        /* \"#utility.yul\":6995:7025   */\n      gt\n        /* \"#utility.yul\":6992:7109   */\n      iszero\n      tag_298\n      jumpi\n        /* \"#utility.yul\":7028:7107   */\n      tag_299\n      tag_135\n      jump\t// in\n    tag_299:\n        /* \"#utility.yul\":6992:7109   */\n    tag_298:\n        /* \"#utility.yul\":7133:7196   */\n      tag_300\n        /* \"#utility.yul\":7188:7195   */\n      dup11\n        /* \"#utility.yul\":7179:7185   */\n      dup3\n        /* \"#utility.yul\":7168:7177   */\n      dup12\n        /* \"#utility.yul\":7164:7186   */\n      add\n        /* \"#utility.yul\":7133:7196   */\n      tag_160\n      jump\t// in\n    tag_300:\n        /* \"#utility.yul\":7123:7196   */\n      swap3\n      pop\n        /* \"#utility.yul\":6917:7206   */\n      pop\n        /* \"#utility.yul\":7273:7276   */\n      0xc0\n        /* \"#utility.yul\":7262:7271   */\n      dup9\n        /* \"#utility.yul\":7258:7277   */\n      add\n        /* \"#utility.yul\":7245:7278   */\n      calldataload\n        /* \"#utility.yul\":7305:7323   */\n      0xffffffffffffffff\n        /* \"#utility.yul\":7297:7303   */\n      dup2\n        /* \"#utility.yul\":7294:7324   */\n      gt\n        /* \"#utility.yul\":7291:7408   */\n      iszero\n      tag_301\n      jumpi\n        /* \"#utility.yul\":7327:7406   */\n      tag_302\n      tag_135\n      jump\t// in\n    tag_302:\n        /* \"#utility.yul\":7291:7408   */\n    tag_301:\n        /* \"#utility.yul\":7432:7495   */\n      tag_303\n        /* \"#utility.yul\":7487:7494   */\n      dup11\n        /* \"#utility.yul\":7478:7484   */\n      dup3\n        /* \"#utility.yul\":7467:7476   */\n      dup12\n        /* \"#utility.yul\":7463:7485   */\n      add\n        /* \"#utility.yul\":7432:7495   */\n      tag_160\n      jump\t// in\n    tag_303:\n        /* \"#utility.yul\":7422:7495   */\n      swap2\n      pop\n        /* \"#utility.yul\":7216:7505   */\n      pop\n        /* \"#utility.yul\":5963:7512   */\n      swap3\n      swap6\n      swap9\n      swap2\n      swap5\n      swap8\n      pop\n      swap3\n      swap6\n      pop\n      jump\t// out\n        /* \"#utility.yul\":7518:7578   */\n    tag_161:\n        /* \"#utility.yul\":7546:7549   */\n      0x00\n        /* \"#utility.yul\":7567:7572   */\n      dup2\n        /* \"#utility.yul\":7560:7572   */\n      swap1\n      pop\n        /* \"#utility.yul\":7518:7578   */\n      swap2\n      swap1\n      pop\n      jump\t// out\n        /* \"#utility.yul\":7584:7726   */\n    tag_162:\n        /* \"#utility.yul\":7634:7643   */\n      0x00\n        /* \"#utility.yul\":7667:7720   */\n      tag_306\n        /* \"#utility.yul\":7685:7719   */\n      tag_307\n        /* \"#utility.yul\":7694:7718   */\n      tag_308\n        /* \"#utility.yul\":7712:7717   */\n      dup5\n        /* \"#utility.yul\":7694:7718   */\n      tag_139\n      jump\t// in\n    tag_308:\n        /* \"#utility.yul\":7685:7719   */\n      tag_161\n      jump\t// in\n    tag_307:\n        /* \"#utility.yul\":7667:7720   */\n      tag_139\n      jump\t// in\n    tag_306:\n        /* \"#utility.yul\":7654:7720   */\n      swap1\n      pop\n        /* \"#utility.yul\":7584:7726   */\n      swap2\n      swap1\n      pop\n      jump\t// out\n        /* \"#utility.yul\":7732:7858   */\n    tag_163:\n        /* \"#utility.yul\":7782:7791   */\n      0x00\n        /* \"#utility.yul\":7815:7852   */\n      tag_310\n        /* \"#utility.yul\":7846:7851   */\n      dup3\n        /* \"#utility.yul\":7815:7852   */\n      tag_162\n      jump\t// in\n    tag_310:\n        /* \"#utility.yul\":7802:7852   */\n      swap1\n      pop\n        /* \"#utility.yul\":7732:7858   */\n      swap2\n      swap1\n      pop\n      jump\t// out\n        /* \"#utility.yul\":7864:8009   */\n    tag_164:\n        /* \"#utility.yul\":7933:7942   */\n      0x00\n        /* \"#utility.yul\":7966:8003   */\n      tag_312\n        /* \"#utility.yul\":7997:8002   */\n      dup3\n        /* \"#utility.yul\":7966:8003   */\n      tag_163\n      jump\t// in\n    tag_312:\n        /* \"#utility.yul\":7953:8003   */\n      swap1\n      pop\n        /* \"#utility.yul\":7864:8009   */\n      swap2\n      swap1\n      pop\n      jump\t// out\n        /* \"#utility.yul\":8015:8184   */\n    tag_165:\n        /* \"#utility.yul\":8121:8177   */\n      tag_314\n        /* \"#utility.yul\":8171:8176   */\n      dup2\n        /* \"#utility.yul\":8121:8177   */\n      tag_164\n      jump\t// in\n    tag_314:\n        /* \"#utility.yul\":8116:8119   */\n      dup3\n        /* \"#utility.yul\":8109:8178   */\n      mstore\n        /* \"#utility.yul\":8015:8184   */\n      pop\n      pop\n      jump\t// out\n        /* \"#utility.yul\":8190:8450   */\n    tag_45:\n        /* \"#utility.yul\":8302:8306   */\n      0x00\n        /* \"#utility.yul\":8340:8342   */\n      0x20\n        /* \"#utility.yul\":8329:8338   */\n      dup3\n        /* \"#utility.yul\":8325:8343   */\n      add\n        /* \"#utility.yul\":8317:8343   */\n      swap1\n      pop\n        /* \"#utility.yul\":8353:8443   */\n      tag_316\n        /* \"#utility.yul\":8440:8441   */\n      0x00\n        /* \"#utility.yul\":8429:8438   */\n      dup4\n        /* \"#utility.yul\":8425:8442   */\n      add\n        /* \"#utility.yul\":8416:8422   */\n      dup5\n        /* \"#utility.yul\":8353:8443   */\n      tag_165\n      jump\t// in\n    tag_316:\n        /* \"#utility.yul\":8190:8450   */\n      swap3\n      swap2\n      pop\n      pop\n      jump\t// out\n        /* \"#utility.yul\":8456:8568   */\n    tag_166:\n        /* \"#utility.yul\":8539:8561   */\n      tag_318\n        /* \"#utility.yul\":8555:8560   */\n      dup2\n        /* \"#utility.yul\":8539:8561   */\n      tag_148\n      jump\t// in\n    tag_318:\n        /* \"#utility.yul\":8534:8537   */\n      dup3\n        /* \"#utility.yul\":8527:8562   */\n      mstore\n        /* \"#utility.yul\":8456:8568   */\n      pop\n      pop\n      jump\t// out\n        /* \"#utility.yul\":8574:8692   */\n    tag_167:\n        /* \"#utility.yul\":8661:8685   */\n      tag_320\n        /* \"#utility.yul\":8679:8684   */\n      dup2\n        /* \"#utility.yul\":8661:8685   */\n      tag_136\n      jump\t// in\n    tag_320:\n        /* \"#utility.yul\":8656:8659   */\n      dup3\n        /* \"#utility.yul\":8649:8686   */\n      mstore\n        /* \"#utility.yul\":8574:8692   */\n      pop\n      pop\n      jump\t// out\n        /* \"#utility.yul\":8698:8797   */\n    tag_168:\n        /* \"#utility.yul\":8750:8756   */\n      0x00\n        /* \"#utility.yul\":8784:8789   */\n      dup2\n        /* \"#utility.yul\":8778:8790   */\n      mload\n        /* \"#utility.yul\":8768:8790   */\n      swap1\n      pop\n        /* \"#utility.yul\":8698:8797   */\n      swap2\n      swap1\n      pop\n      jump\t// out\n        /* \"#utility.yul\":8803:8972   */\n    tag_169:\n        /* \"#utility.yul\":8887:8898   */\n      0x00\n        /* \"#utility.yul\":8921:8927   */\n      dup3\n        /* \"#utility.yul\":8916:8919   */\n      dup3\n        /* \"#utility.yul\":8909:8928   */\n      mstore\n        /* \"#utility.yul\":8961:8965   */\n      0x20\n        /* \"#utility.yul\":8956:8959   */\n      dup3\n        /* \"#utility.yul\":8952:8966   */\n      add\n        /* \"#utility.yul\":8937:8966   */\n      swap1\n      pop\n        /* \"#utility.yul\":8803:8972   */\n      swap3\n      swap2\n      pop\n      pop\n      jump\t// out\n        /* \"#utility.yul\":8978:9224   */\n    tag_170:\n        /* \"#utility.yul\":9059:9060   */\n      0x00\n        /* \"#utility.yul\":9069:9182   */\n    tag_324:\n        /* \"#utility.yul\":9083:9089   */\n      dup4\n        /* \"#utility.yul\":9080:9081   */\n      dup2\n        /* \"#utility.yul\":9077:9090   */\n      lt\n        /* \"#utility.yul\":9069:9182   */\n      iszero\n      tag_326\n      jumpi\n        /* \"#utility.yul\":9168:9169   */\n      dup1\n        /* \"#utility.yul\":9163:9166   */\n      dup3\n        /* \"#utility.yul\":9159:9170   */\n      add\n        /* \"#utility.yul\":9153:9171   */\n      mload\n        /* \"#utility.yul\":9149:9150   */\n      dup2\n        /* \"#utility.yul\":9144:9147   */\n      dup5\n        /* \"#utility.yul\":9140:9151   */\n      add\n        /* \"#utility.yul\":9133:9172   */\n      mstore\n        /* \"#utility.yul\":9105:9107   */\n      0x20\n        /* \"#utility.yul\":9102:9103   */\n      dup2\n        /* \"#utility.yul\":9098:9108   */\n      add\n        /* \"#utility.yul\":9093:9108   */\n      swap1\n      pop\n        /* \"#utility.yul\":9069:9182   */\n      jump(tag_324)\n    tag_326:\n        /* \"#utility.yul\":9216:9217   */\n      0x00\n        /* \"#utility.yul\":9207:9213   */\n      dup5\n        /* \"#utility.yul\":9202:9205   */\n      dup5\n        /* \"#utility.yul\":9198:9214   */\n      add\n        /* \"#utility.yul\":9191:9218   */\n      mstore\n        /* \"#utility.yul\":9040:9224   */\n      pop\n        /* \"#utility.yul\":8978:9224   */\n      pop\n      pop\n      pop\n      jump\t// out\n        /* \"#utility.yul\":9230:9607   */\n    tag_171:\n        /* \"#utility.yul\":9318:9321   */\n      0x00\n        /* \"#utility.yul\":9346:9385   */\n      tag_328\n        /* \"#utility.yul\":9379:9384   */\n      dup3\n        /* \"#utility.yul\":9346:9385   */\n      tag_168\n      jump\t// in\n    tag_328:\n        /* \"#utility.yul\":9401:9472   */\n      tag_329\n        /* \"#utility.yul\":9465:9471   */\n      dup2\n        /* \"#utility.yul\":9460:9463   */\n      dup6\n        /* \"#utility.yul\":9401:9472   */\n      tag_169\n      jump\t// in\n    tag_329:\n        /* \"#utility.yul\":9394:9472   */\n      swap4\n      pop\n        /* \"#utility.yul\":9481:9546   */\n      tag_330\n        /* \"#utility.yul\":9539:9545   */\n      dup2\n        /* \"#utility.yul\":9534:9537   */\n      dup6\n        /* \"#utility.yul\":9527:9531   */\n      0x20\n        /* \"#utility.yul\":9520:9525   */\n      dup7\n        /* \"#utility.yul\":9516:9532   */\n      add\n        /* \"#utility.yul\":9481:9546   */\n      tag_170\n      jump\t// in\n    tag_330:\n        /* \"#utility.yul\":9571:9600   */\n      tag_331\n        /* \"#utility.yul\":9593:9599   */\n      dup2\n        /* \"#utility.yul\":9571:9600   */\n      tag_153\n      jump\t// in\n    tag_331:\n        /* \"#utility.yul\":9566:9569   */\n      dup5\n        /* \"#utility.yul\":9562:9601   */\n      add\n        /* \"#utility.yul\":9555:9601   */\n      swap2\n      pop\n        /* \"#utility.yul\":9322:9607   */\n      pop\n        /* \"#utility.yul\":9230:9607   */\n      swap3\n      swap2\n      pop\n      pop\n      jump\t// out\n        /* \"#utility.yul\":9613:10752   */\n    tag_50:\n        /* \"#utility.yul\":9922:9926   */\n      0x00\n        /* \"#utility.yul\":9960:9963   */\n      0x0100\n        /* \"#utility.yul\":9949:9958   */\n      dup3\n        /* \"#utility.yul\":9945:9964   */\n      add\n        /* \"#utility.yul\":9937:9964   */\n      swap1\n      pop\n        /* \"#utility.yul\":9974:10039   */\n      tag_333\n        /* \"#utility.yul\":10036:10037   */\n      0x00\n        /* \"#utility.yul\":10025:10034   */\n      dup4\n        /* \"#utility.yul\":10021:10038   */\n      add\n        /* \"#utility.yul\":10012:10018   */\n      dup12\n        /* \"#utility.yul\":9974:10039   */\n      tag_145\n      jump\t// in\n    tag_333:\n        /* \"#utility.yul\":10049:10117   */\n      tag_334\n        /* \"#utility.yul\":10113:10115   */\n      0x20\n        /* \"#utility.yul\":10102:10111   */\n      dup4\n        /* \"#utility.yul\":10098:10116   */\n      add\n        /* \"#utility.yul\":10089:10095   */\n      dup11\n        /* \"#utility.yul\":10049:10117   */\n      tag_166\n      jump\t// in\n    tag_334:\n        /* \"#utility.yul\":10127:10195   */\n      tag_335\n        /* \"#utility.yul\":10191:10193   */\n      0x40\n        /* \"#utility.yul\":10180:10189   */\n      dup4\n        /* \"#utility.yul\":10176:10194   */\n      add\n        /* \"#utility.yul\":10167:10173   */\n      dup10\n        /* \"#utility.yul\":10127:10195   */\n      tag_166\n      jump\t// in\n    tag_335:\n        /* \"#utility.yul\":10205:10277   */\n      tag_336\n        /* \"#utility.yul\":10273:10275   */\n      0x60\n        /* \"#utility.yul\":10262:10271   */\n      dup4\n        /* \"#utility.yul\":10258:10276   */\n      add\n        /* \"#utility.yul\":10249:10255   */\n      dup9\n        /* \"#utility.yul\":10205:10277   */\n      tag_167\n      jump\t// in\n    tag_336:\n        /* \"#utility.yul\":10287:10360   */\n      tag_337\n        /* \"#utility.yul\":10355:10358   */\n      0x80\n        /* \"#utility.yul\":10344:10353   */\n      dup4\n        /* \"#utility.yul\":10340:10359   */\n      add\n        /* \"#utility.yul\":10331:10337   */\n      dup8\n        /* \"#utility.yul\":10287:10360   */\n      tag_167\n      jump\t// in\n    tag_337:\n        /* \"#utility.yul\":10408:10417   */\n      dup2\n        /* \"#utility.yul\":10402:10406   */\n      dup2\n        /* \"#utility.yul\":10398:10418   */\n      sub\n        /* \"#utility.yul\":10392:10395   */\n      0xa0\n        /* \"#utility.yul\":10381:10390   */\n      dup4\n        /* \"#utility.yul\":10377:10396   */\n      add\n        /* \"#utility.yul\":10370:10419   */\n      mstore\n        /* \"#utility.yul\":10436:10514   */\n      tag_338\n        /* \"#utility.yul\":10509:10513   */\n      dup2\n        /* \"#utility.yul\":10500:10506   */\n      dup7\n        /* \"#utility.yul\":10436:10514   */\n      tag_171\n      jump\t// in\n    tag_338:\n        /* \"#utility.yul\":10428:10514   */\n      swap1\n      pop\n        /* \"#utility.yul\":10562:10571   */\n      dup2\n        /* \"#utility.yul\":10556:10560   */\n      dup2\n        /* \"#utility.yul\":10552:10572   */\n      sub\n        /* \"#utility.yul\":10546:10549   */\n      0xc0\n        /* \"#utility.yul\":10535:10544   */\n      dup4\n        /* \"#utility.yul\":10531:10550   */\n      add\n        /* \"#utility.yul\":10524:10573   */\n      mstore\n        /* \"#utility.yul\":10590:10668   */\n      tag_339\n        /* \"#utility.yul\":10663:10667   */\n      dup2\n        /* \"#utility.yul\":10654:10660   */\n      dup6\n        /* \"#utility.yul\":10590:10668   */\n      tag_171\n      jump\t// in\n    tag_339:\n        /* \"#utility.yul\":10582:10668   */\n      swap1\n      pop\n        /* \"#utility.yul\":10678:10745   */\n      tag_340\n        /* \"#utility.yul\":10740:10743   */\n      0xe0\n        /* \"#utility.yul\":10729:10738   */\n      dup4\n        /* \"#utility.yul\":10725:10744   */\n      add\n        /* \"#utility.yul\":10716:10722   */\n      dup5\n        /* \"#utility.yul\":10678:10745   */\n      tag_145\n      jump\t// in\n    tag_340:\n        /* \"#utility.yul\":9613:10752   */\n      swap10\n      swap9\n      pop\n      pop\n      pop\n      pop\n      pop\n      pop\n      pop\n      pop\n      pop\n      jump\t// out\n        /* \"#utility.yul\":10758:10928   */\n    tag_172:\n        /* \"#utility.yul\":10898:10920   */\n      0x596f75277265206e6f7420616e2061646d696e21000000000000000000000000\n        /* \"#utility.yul\":10894:10895   */\n      0x00\n        /* \"#utility.yul\":10886:10892   */\n      dup3\n        /* \"#utility.yul\":10882:10896   */\n      add\n        /* \"#utility.yul\":10875:10921   */\n      mstore\n        /* \"#utility.yul\":10758:10928   */\n      pop\n      jump\t// out\n        /* \"#utility.yul\":10934:11300   */\n    tag_173:\n        /* \"#utility.yul\":11076:11079   */\n      0x00\n        /* \"#utility.yul\":11097:11164   */\n      tag_343\n        /* \"#utility.yul\":11161:11163   */\n      0x14\n        /* \"#utility.yul\":11156:11159   */\n      dup4\n        /* \"#utility.yul\":11097:11164   */\n      tag_169\n      jump\t// in\n    tag_343:\n        /* \"#utility.yul\":11090:11164   */\n      swap2\n      pop\n        /* \"#utility.yul\":11173:11266   */\n      tag_344\n        /* \"#utility.yul\":11262:11265   */\n      dup3\n        /* \"#utility.yul\":11173:11266   */\n      tag_172\n      jump\t// in\n    tag_344:\n        /* \"#utility.yul\":11291:11293   */\n      0x20\n        /* \"#utility.yul\":11286:11289   */\n      dup3\n        /* \"#utility.yul\":11282:11294   */\n      add\n        /* \"#utility.yul\":11275:11294   */\n      swap1\n      pop\n        /* \"#utility.yul\":10934:11300   */\n      swap2\n      swap1\n      pop\n      jump\t// out\n        /* \"#utility.yul\":11306:11725   */\n    tag_55:\n        /* \"#utility.yul\":11472:11476   */\n      0x00\n        /* \"#utility.yul\":11510:11512   */\n      0x20\n        /* \"#utility.yul\":11499:11508   */\n      dup3\n        /* \"#utility.yul\":11495:11513   */\n      add\n        /* \"#utility.yul\":11487:11513   */\n      swap1\n      pop\n        /* \"#utility.yul\":11559:11568   */\n      dup2\n        /* \"#utility.yul\":11553:11557   */\n      dup2\n        /* \"#utility.yul\":11549:11569   */\n      sub\n        /* \"#utility.yul\":11545:11546   */\n      0x00\n        /* \"#utility.yul\":11534:11543   */\n      dup4\n        /* \"#utility.yul\":11530:11547   */\n      add\n        /* \"#utility.yul\":11523:11570   */\n      mstore\n        /* \"#utility.yul\":11587:11718   */\n      tag_346\n        /* \"#utility.yul\":11713:11717   */\n      dup2\n        /* \"#utility.yul\":11587:11718   */\n      tag_173\n      jump\t// in\n    tag_346:\n        /* \"#utility.yul\":11579:11718   */\n      swap1\n      pop\n        /* \"#utility.yul\":11306:11725   */\n      swap2\n      swap1\n      pop\n      jump\t// out\n        /* \"#utility.yul\":11731:11874   */\n    tag_174:\n        /* \"#utility.yul\":11788:11793   */\n      0x00\n        /* \"#utility.yul\":11819:11825   */\n      dup2\n        /* \"#utility.yul\":11813:11826   */\n      mload\n        /* \"#utility.yul\":11804:11826   */\n      swap1\n      pop\n        /* \"#utility.yul\":11835:11868   */\n      tag_348\n        /* \"#utility.yul\":11862:11867   */\n      dup2\n        /* \"#utility.yul\":11835:11868   */\n      tag_137\n      jump\t// in\n    tag_348:\n        /* \"#utility.yul\":11731:11874   */\n      swap3\n      swap2\n      pop\n      pop\n      jump\t// out\n        /* \"#utility.yul\":11880:12231   */\n    tag_61:\n        /* \"#utility.yul\":11950:11956   */\n      0x00\n        /* \"#utility.yul\":11999:12001   */\n      0x20\n        /* \"#utility.yul\":11987:11996   */\n      dup3\n        /* \"#utility.yul\":11978:11985   */\n      dup5\n        /* \"#utility.yul\":11974:11997   */\n      sub\n        /* \"#utility.yul\":11970:12002   */\n      slt\n        /* \"#utility.yul\":11967:12086   */\n      iszero\n      tag_350\n      jumpi\n        /* \"#utility.yul\":12005:12084   */\n      tag_351\n      tag_134\n      jump\t// in\n    tag_351:\n        /* \"#utility.yul\":11967:12086   */\n    tag_350:\n        /* \"#utility.yul\":12125:12126   */\n      0x00\n        /* \"#utility.yul\":12150:12214   */\n      tag_352\n        /* \"#utility.yul\":12206:12213   */\n      dup5\n        /* \"#utility.yul\":12197:12203   */\n      dup3\n        /* \"#utility.yul\":12186:12195   */\n      dup6\n        /* \"#utility.yul\":12182:12204   */\n      add\n        /* \"#utility.yul\":12150:12214   */\n      tag_174\n      jump\t// in\n    tag_352:\n        /* \"#utility.yul\":12140:12214   */\n      swap2\n      pop\n        /* \"#utility.yul\":12096:12224   */\n      pop\n        /* \"#utility.yul\":11880:12231   */\n      swap3\n      swap2\n      pop\n      pop\n      jump\t// out\n        /* \"#utility.yul\":12237:12569   */\n    tag_63:\n        /* \"#utility.yul\":12358:12362   */\n      0x00\n        /* \"#utility.yul\":12396:12398   */\n      0x40\n        /* \"#utility.yul\":12385:12394   */\n      dup3\n        /* \"#utility.yul\":12381:12399   */\n      add\n        /* \"#utility.yul\":12373:12399   */\n      swap1\n      pop\n        /* \"#utility.yul\":12409:12480   */\n      tag_354\n        /* \"#utility.yul\":12477:12478   */\n      0x00\n        /* \"#utility.yul\":12466:12475   */\n      dup4\n        /* \"#utility.yul\":12462:12479   */\n      add\n        /* \"#utility.yul\":12453:12459   */\n      dup6\n        /* \"#utility.yul\":12409:12480   */\n      tag_141\n      jump\t// in\n    tag_354:\n        /* \"#utility.yul\":12490:12562   */\n      tag_355\n        /* \"#utility.yul\":12558:12560   */\n      0x20\n        /* \"#utility.yul\":12547:12556   */\n      dup4\n        /* \"#utility.yul\":12543:12561   */\n      add\n        /* \"#utility.yul\":12534:12540   */\n      dup5\n        /* \"#utility.yul\":12490:12562   */\n      tag_167\n      jump\t// in\n    tag_355:\n        /* \"#utility.yul\":12237:12569   */\n      swap4\n      swap3\n      pop\n      pop\n      pop\n      jump\t// out\n        /* \"#utility.yul\":12575:12712   */\n    tag_175:\n        /* \"#utility.yul\":12629:12634   */\n      0x00\n        /* \"#utility.yul\":12660:12666   */\n      dup2\n        /* \"#utility.yul\":12654:12667   */\n      mload\n        /* \"#utility.yul\":12645:12667   */\n      swap1\n      pop\n        /* \"#utility.yul\":12676:12706   */\n      tag_357\n        /* \"#utility.yul\":12700:12705   */\n      dup2\n        /* \"#utility.yul\":12676:12706   */\n      tag_146\n      jump\t// in\n    tag_357:\n        /* \"#utility.yul\":12575:12712   */\n      swap3\n      swap2\n      pop\n      pop\n      jump\t// out\n        /* \"#utility.yul\":12718:13063   */\n    tag_67:\n        /* \"#utility.yul\":12785:12791   */\n      0x00\n        /* \"#utility.yul\":12834:12836   */\n      0x20\n        /* \"#utility.yul\":12822:12831   */\n      dup3\n        /* \"#utility.yul\":12813:12820   */\n      dup5\n        /* \"#utility.yul\":12809:12832   */\n      sub\n        /* \"#utility.yul\":12805:12837   */\n      slt\n        /* \"#utility.yul\":12802:12921   */\n      iszero\n      tag_359\n      jumpi\n        /* \"#utility.yul\":12840:12919   */\n      tag_360\n      tag_134\n      jump\t// in\n    tag_360:\n        /* \"#utility.yul\":12802:12921   */\n    tag_359:\n        /* \"#utility.yul\":12960:12961   */\n      0x00\n        /* \"#utility.yul\":12985:13046   */\n      tag_361\n        /* \"#utility.yul\":13038:13045   */\n      dup5\n        /* \"#utility.yul\":13029:13035   */\n      dup3\n        /* \"#utility.yul\":13018:13027   */\n      dup6\n        /* \"#utility.yul\":13014:13036   */\n      add\n        /* \"#utility.yul\":12985:13046   */\n      tag_175\n      jump\t// in\n    tag_361:\n        /* \"#utility.yul\":12975:13046   */\n      swap2\n      pop\n        /* \"#utility.yul\":12931:13056   */\n      pop\n        /* \"#utility.yul\":12718:13063   */\n      swap3\n      swap2\n      pop\n      pop\n      jump\t// out\n        /* \"#utility.yul\":13069:13239   */\n    tag_176:\n        /* \"#utility.yul\":13209:13231   */\n      0x5377617020616c72656164792065786973747321000000000000000000000000\n        /* \"#utility.yul\":13205:13206   */\n      0x00\n        /* \"#utility.yul\":13197:13203   */\n      dup3\n        /* \"#utility.yul\":13193:13207   */\n      add\n        /* \"#utility.yul\":13186:13232   */\n      mstore\n        /* \"#utility.yul\":13069:13239   */\n      pop\n      jump\t// out\n        /* \"#utility.yul\":13245:13611   */\n    tag_177:\n        /* \"#utility.yul\":13387:13390   */\n      0x00\n        /* \"#utility.yul\":13408:13475   */\n      tag_364\n        /* \"#utility.yul\":13472:13474   */\n      0x14\n        /* \"#utility.yul\":13467:13470   */\n      dup4\n        /* \"#utility.yul\":13408:13475   */\n      tag_169\n      jump\t// in\n    tag_364:\n        /* \"#utility.yul\":13401:13475   */\n      swap2\n      pop\n        /* \"#utility.yul\":13484:13577   */\n      tag_365\n        /* \"#utility.yul\":13573:13576   */\n      dup3\n        /* \"#utility.yul\":13484:13577   */\n      tag_176\n      jump\t// in\n    tag_365:\n        /* \"#utility.yul\":13602:13604   */\n      0x20\n        /* \"#utility.yul\":13597:13600   */\n      dup3\n        /* \"#utility.yul\":13593:13605   */\n      add\n        /* \"#utility.yul\":13586:13605   */\n      swap1\n      pop\n        /* \"#utility.yul\":13245:13611   */\n      swap2\n      swap1\n      pop\n      jump\t// out\n        /* \"#utility.yul\":13617:14036   */\n    tag_84:\n        /* \"#utility.yul\":13783:13787   */\n      0x00\n        /* \"#utility.yul\":13821:13823   */\n      0x20\n        /* \"#utility.yul\":13810:13819   */\n      dup3\n        /* \"#utility.yul\":13806:13824   */\n      add\n        /* \"#utility.yul\":13798:13824   */\n      swap1\n      pop\n        /* \"#utility.yul\":13870:13879   */\n      dup2\n        /* \"#utility.yul\":13864:13868   */\n      dup2\n        /* \"#utility.yul\":13860:13880   */\n      sub\n        /* \"#utility.yul\":13856:13857   */\n      0x00\n        /* \"#utility.yul\":13845:13854   */\n      dup4\n        /* \"#utility.yul\":13841:13858   */\n      add\n        /* \"#utility.yul\":13834:13881   */\n      mstore\n        /* \"#utility.yul\":13898:14029   */\n      tag_367\n        /* \"#utility.yul\":14024:14028   */\n      dup2\n        /* \"#utility.yul\":13898:14029   */\n      tag_177\n      jump\t// in\n    tag_367:\n        /* \"#utility.yul\":13890:14029   */\n      swap1\n      pop\n        /* \"#utility.yul\":13617:14036   */\n      swap2\n      swap1\n      pop\n      jump\t// out\n        /* \"#utility.yul\":14042:14222   */\n    tag_178:\n        /* \"#utility.yul\":14090:14167   */\n      0x4e487b7100000000000000000000000000000000000000000000000000000000\n        /* \"#utility.yul\":14087:14088   */\n      0x00\n        /* \"#utility.yul\":14080:14168   */\n      mstore\n        /* \"#utility.yul\":14187:14191   */\n      0x22\n        /* \"#utility.yul\":14184:14185   */\n      0x04\n        /* \"#utility.yul\":14177:14192   */\n      mstore\n        /* \"#utility.yul\":14211:14215   */\n      0x24\n        /* \"#utility.yul\":14208:14209   */\n      0x00\n        /* \"#utility.yul\":14201:14216   */\n      revert\n        /* \"#utility.yul\":14228:14548   */\n    tag_110:\n        /* \"#utility.yul\":14272:14278   */\n      0x00\n        /* \"#utility.yul\":14309:14310   */\n      0x02\n        /* \"#utility.yul\":14303:14307   */\n      dup3\n        /* \"#utility.yul\":14299:14311   */\n      div\n        /* \"#utility.yul\":14289:14311   */\n      swap1\n      pop\n        /* \"#utility.yul\":14356:14357   */\n      0x01\n        /* \"#utility.yul\":14350:14354   */\n      dup3\n        /* \"#utility.yul\":14346:14358   */\n      and\n        /* \"#utility.yul\":14377:14395   */\n      dup1\n        /* \"#utility.yul\":14367:14448   */\n      tag_370\n      jumpi\n        /* \"#utility.yul\":14433:14437   */\n      0x7f\n        /* \"#utility.yul\":14425:14431   */\n      dup3\n        /* \"#utility.yul\":14421:14438   */\n      and\n        /* \"#utility.yul\":14411:14438   */\n      swap2\n      pop\n        /* \"#utility.yul\":14367:14448   */\n    tag_370:\n        /* \"#utility.yul\":14495:14497   */\n      0x20\n        /* \"#utility.yul\":14487:14493   */\n      dup3\n        /* \"#utility.yul\":14484:14498   */\n      lt\n        /* \"#utility.yul\":14464:14482   */\n      dup2\n        /* \"#utility.yul\":14461:14499   */\n      sub\n        /* \"#utility.yul\":14458:14542   */\n      tag_371\n      jumpi\n        /* \"#utility.yul\":14514:14532   */\n      tag_372\n      tag_178\n      jump\t// in\n    tag_372:\n        /* \"#utility.yul\":14458:14542   */\n    tag_371:\n        /* \"#utility.yul\":14279:14548   */\n      pop\n        /* \"#utility.yul\":14228:14548   */\n      swap2\n      swap1\n      pop\n      jump\t// out\n        /* \"#utility.yul\":14554:14695   */\n    tag_179:\n        /* \"#utility.yul\":14603:14607   */\n      0x00\n        /* \"#utility.yul\":14626:14629   */\n      dup2\n        /* \"#utility.yul\":14618:14629   */\n      swap1\n      pop\n        /* \"#utility.yul\":14649:14652   */\n      dup2\n        /* \"#utility.yul\":14646:14647   */\n      0x00\n        /* \"#utility.yul\":14639:14653   */\n      mstore\n        /* \"#utility.yul\":14683:14687   */\n      0x20\n        /* \"#utility.yul\":14680:14681   */\n      0x00\n        /* \"#utility.yul\":14670:14688   */\n      keccak256\n        /* \"#utility.yul\":14662:14688   */\n      swap1\n      pop\n        /* \"#utility.yul\":14554:14695   */\n      swap2\n      swap1\n      pop\n      jump\t// out\n        /* \"#utility.yul\":14701:14794   */\n    tag_180:\n        /* \"#utility.yul\":14738:14744   */\n      0x00\n        /* \"#utility.yul\":14785:14787   */\n      0x20\n        /* \"#utility.yul\":14780:14782   */\n      0x1f\n        /* \"#utility.yul\":14773:14778   */\n      dup4\n        /* \"#utility.yul\":14769:14783   */\n      add\n        /* \"#utility.yul\":14765:14788   */\n      div\n        /* \"#utility.yul\":14755:14788   */\n      swap1\n      pop\n        /* \"#utility.yul\":14701:14794   */\n      swap2\n      swap1\n      pop\n      jump\t// out\n        /* \"#utility.yul\":14800:14907   */\n    tag_181:\n        /* \"#utility.yul\":14844:14852   */\n      0x00\n        /* \"#utility.yul\":14894:14899   */\n      dup3\n        /* \"#utility.yul\":14888:14892   */\n      dup3\n        /* \"#utility.yul\":14884:14900   */\n      shl\n        /* \"#utility.yul\":14863:14900   */\n      swap1\n      pop\n        /* \"#utility.yul\":14800:14907   */\n      swap3\n      swap2\n      pop\n      pop\n      jump\t// out\n        /* \"#utility.yul\":14913:15306   */\n    tag_182:\n        /* \"#utility.yul\":14982:14988   */\n      0x00\n        /* \"#utility.yul\":15032:15033   */\n      0x08\n        /* \"#utility.yul\":15020:15030   */\n      dup4\n        /* \"#utility.yul\":15016:15034   */\n      mul\n        /* \"#utility.yul\":15055:15152   */\n      tag_377\n        /* \"#utility.yul\":15085:15151   */\n      0xffffffffffffffffffffffffffffffffffffffffffffffffffffffffffffffff\n        /* \"#utility.yul\":15074:15083   */\n      dup3\n        /* \"#utility.yul\":15055:15152   */\n      tag_181\n      jump\t// in\n    tag_377:\n        /* \"#utility.yul\":15173:15212   */\n      tag_378\n        /* \"#utility.yul\":15203:15211   */\n      dup7\n        /* \"#utility.yul\":15192:15201   */\n      dup4\n        /* \"#utility.yul\":15173:15212   */\n      tag_181\n      jump\t// in\n    tag_378:\n        /* \"#utility.yul\":15161:15212   */\n      swap6\n      pop\n        /* \"#utility.yul\":15245:15249   */\n      dup1\n        /* \"#utility.yul\":15241:15250   */\n      not\n        /* \"#utility.yul\":15234:15239   */\n      dup5\n        /* \"#utility.yul\":15230:15251   */\n      and\n        /* \"#utility.yul\":15221:15251   */\n      swap4\n      pop\n        /* \"#utility.yul\":15294:15298   */\n      dup1\n        /* \"#utility.yul\":15284:15292   */\n      dup7\n        /* \"#utility.yul\":15280:15299   */\n      and\n        /* \"#utility.yul\":15273:15278   */\n      dup5\n        /* \"#utility.yul\":15270:15300   */\n      or\n        /* \"#utility.yul\":15260:15300   */\n      swap3\n      pop\n        /* \"#utility.yul\":14989:15306   */\n      pop\n      pop\n        /* \"#utility.yul\":14913:15306   */\n      swap4\n      swap3\n      pop\n      pop\n      pop\n      jump\t// out\n        /* \"#utility.yul\":15312:15454   */\n    tag_183:\n        /* \"#utility.yul\":15362:15371   */\n      0x00\n        /* \"#utility.yul\":15395:15448   */\n      tag_380\n        /* \"#utility.yul\":15413:15447   */\n      tag_381\n        /* \"#utility.yul\":15422:15446   */\n      tag_382\n        /* \"#utility.yul\":15440:15445   */\n      dup5\n        /* \"#utility.yul\":15422:15446   */\n      tag_136\n      jump\t// in\n    tag_382:\n        /* \"#utility.yul\":15413:15447   */\n      tag_161\n      jump\t// in\n    tag_381:\n        /* \"#utility.yul\":15395:15448   */\n      tag_136\n      jump\t// in\n    tag_380:\n        /* \"#utility.yul\":15382:15448   */\n      swap1\n      pop\n        /* \"#utility.yul\":15312:15454   */\n      swap2\n      swap1\n      pop\n      jump\t// out\n        /* \"#utility.yul\":15460:15535   */\n    tag_184:\n        /* \"#utility.yul\":15503:15506   */\n      0x00\n        /* \"#utility.yul\":15524:15529   */\n      dup2\n        /* \"#utility.yul\":15517:15529   */\n      swap1\n      pop\n        /* \"#utility.yul\":15460:15535   */\n      swap2\n      swap1\n      pop\n      jump\t// out\n        /* \"#utility.yul\":15541:15810   */\n    tag_185:\n        /* \"#utility.yul\":15651:15690   */\n      tag_385\n        /* \"#utility.yul\":15682:15689   */\n      dup4\n        /* \"#utility.yul\":15651:15690   */\n      tag_183\n      jump\t// in\n    tag_385:\n        /* \"#utility.yul\":15712:15803   */\n      tag_386\n        /* \"#utility.yul\":15761:15802   */\n      tag_387\n        /* \"#utility.yul\":15785:15801   */\n      dup3\n        /* \"#utility.yul\":15761:15802   */\n      tag_184\n      jump\t// in\n    tag_387:\n        /* \"#utility.yul\":15753:15759   */\n      dup5\n        /* \"#utility.yul\":15746:15750   */\n      dup5\n        /* \"#utility.yul\":15740:15751   */\n      sload\n        /* \"#utility.yul\":15712:15803   */\n      tag_182\n      jump\t// in\n    tag_386:\n        /* \"#utility.yul\":15706:15710   */\n      dup3\n        /* \"#utility.yul\":15699:15804   */\n      sstore\n        /* \"#utility.yul\":15617:15810   */\n      pop\n        /* \"#utility.yul\":15541:15810   */\n      pop\n      pop\n      pop\n      jump\t// out\n        /* \"#utility.yul\":15816:15889   */\n    tag_186:\n        /* \"#utility.yul\":15861:15864   */\n      0x00\n        /* \"#utility.yul\":15816:15889   */\n      swap1\n      jump\t// out\n        /* \"#utility.yul\":15895:16084   */\n    tag_187:\n        /* \"#utility.yul\":15972:16004   */\n      tag_390\n      tag_186\n      jump\t// in\n    tag_390:\n        /* \"#utility.yul\":16013:16078   */\n      tag_391\n        /* \"#utility.yul\":16071:16077   */\n      dup2\n        /* \"#utility.yul\":16063:16069   */\n      dup5\n        /* \"#utility.yul\":16057:16061   */\n      dup5\n        /* \"#utility.yul\":16013:16078   */\n      tag_185\n      jump\t// in\n    tag_391:\n        /* \"#utility.yul\":15948:16084   */\n      pop\n        /* \"#utility.yul\":15895:16084   */\n      pop\n      pop\n      jump\t// out\n        /* \"#utility.yul\":16090:16276   */\n    tag_188:\n        /* \"#utility.yul\":16150:16270   */\n    tag_393:\n        /* \"#utility.yul\":16167:16170   */\n      dup2\n        /* \"#utility.yul\":16160:16165   */\n      dup2\n        /* \"#utility.yul\":16157:16171   */\n      lt\n        /* \"#utility.yul\":16150:16270   */\n      iszero\n      tag_395\n      jumpi\n        /* \"#utility.yul\":16221:16260   */\n      tag_396\n        /* \"#utility.yul\":16258:16259   */\n      0x00\n        /* \"#utility.yul\":16251:16256   */\n      dup3\n        /* \"#utility.yul\":16221:16260   */\n      tag_187\n      jump\t// in\n    tag_396:\n        /* \"#utility.yul\":16194:16195   */\n      0x01\n        /* \"#utility.yul\":16187:16192   */\n      dup2\n        /* \"#utility.yul\":16183:16196   */\n      add\n        /* \"#utility.yul\":16174:16196   */\n      swap1\n      pop\n        /* \"#utility.yul\":16150:16270   */\n      jump(tag_393)\n    tag_395:\n        /* \"#utility.yul\":16090:16276   */\n      pop\n      pop\n      jump\t// out\n        /* \"#utility.yul\":16282:16825   */\n    tag_189:\n        /* \"#utility.yul\":16383:16385   */\n      0x1f\n        /* \"#utility.yul\":16378:16381   */\n      dup3\n        /* \"#utility.yul\":16375:16386   */\n      gt\n        /* \"#utility.yul\":16372:16818   */\n      iszero\n      tag_398\n      jumpi\n        /* \"#utility.yul\":16417:16455   */\n      tag_399\n        /* \"#utility.yul\":16449:16454   */\n      dup2\n        /* \"#utility.yul\":16417:16455   */\n      tag_179\n      jump\t// in\n    tag_399:\n        /* \"#utility.yul\":16501:16530   */\n      tag_400\n        /* \"#utility.yul\":16519:16529   */\n      dup5\n        /* \"#utility.yul\":16501:16530   */\n      tag_180\n      jump\t// in\n    tag_400:\n        /* \"#utility.yul\":16491:16499   */\n      dup2\n        /* \"#utility.yul\":16487:16531   */\n      add\n        /* \"#utility.yul\":16684:16686   */\n      0x20\n        /* \"#utility.yul\":16672:16682   */\n      dup6\n        /* \"#utility.yul\":16669:16687   */\n      lt\n        /* \"#utility.yul\":16666:16715   */\n      iszero\n      tag_401\n      jumpi\n        /* \"#utility.yul\":16705:16713   */\n      dup2\n        /* \"#utility.yul\":16690:16713   */\n      swap1\n      pop\n        /* \"#utility.yul\":16666:16715   */\n    tag_401:\n        /* \"#utility.yul\":16728:16808   */\n      tag_402\n        /* \"#utility.yul\":16784:16806   */\n      tag_403\n        /* \"#utility.yul\":16802:16805   */\n      dup6\n        /* \"#utility.yul\":16784:16806   */\n      tag_180\n      jump\t// in\n    tag_403:\n        /* \"#utility.yul\":16774:16782   */\n      dup4\n        /* \"#utility.yul\":16770:16807   */\n      add\n        /* \"#utility.yul\":16757:16768   */\n      dup3\n        /* \"#utility.yul\":16728:16808   */\n      tag_188\n      jump\t// in\n    tag_402:\n        /* \"#utility.yul\":16387:16818   */\n      pop\n      pop\n        /* \"#utility.yul\":16372:16818   */\n    tag_398:\n        /* \"#utility.yul\":16282:16825   */\n      pop\n      pop\n      pop\n      jump\t// out\n        /* \"#utility.yul\":16831:16948   */\n    tag_190:\n        /* \"#utility.yul\":16885:16893   */\n      0x00\n        /* \"#utility.yul\":16935:16940   */\n      dup3\n        /* \"#utility.yul\":16929:16933   */\n      dup3\n        /* \"#utility.yul\":16925:16941   */\n      shr\n        /* \"#utility.yul\":16904:16941   */\n      swap1\n      pop\n        /* \"#utility.yul\":16831:16948   */\n      swap3\n      swap2\n      pop\n      pop\n      jump\t// out\n        /* \"#utility.yul\":16954:17123   */\n    tag_191:\n        /* \"#utility.yul\":16998:17004   */\n      0x00\n        /* \"#utility.yul\":17031:17082   */\n      tag_406\n        /* \"#utility.yul\":17079:17080   */\n      0x00\n        /* \"#utility.yul\":17075:17081   */\n      not\n        /* \"#utility.yul\":17067:17072   */\n      dup5\n        /* \"#utility.yul\":17064:17065   */\n      0x08\n        /* \"#utility.yul\":17060:17073   */\n      mul\n        /* \"#utility.yul\":17031:17082   */\n      tag_190\n      jump\t// in\n    tag_406:\n        /* \"#utility.yul\":17027:17083   */\n      not\n        /* \"#utility.yul\":17112:17116   */\n      dup1\n        /* \"#utility.yul\":17106:17110   */\n      dup4\n        /* \"#utility.yul\":17102:17117   */\n      and\n        /* \"#utility.yul\":17092:17117   */\n      swap2\n      pop\n        /* \"#utility.yul\":17005:17123   */\n      pop\n        /* \"#utility.yul\":16954:17123   */\n      swap3\n      swap2\n      pop\n      pop\n      jump\t// out\n        /* \"#utility.yul\":17128:17423   */\n    tag_192:\n        /* \"#utility.yul\":17204:17208   */\n      0x00\n        /* \"#utility.yul\":17350:17379   */\n      tag_408\n        /* \"#utility.yul\":17375:17378   */\n      dup4\n        /* \"#utility.yul\":17369:17373   */\n      dup4\n        /* \"#utility.yul\":17350:17379   */\n      tag_191\n      jump\t// in\n    tag_408:\n        /* \"#utility.yul\":17342:17379   */\n      swap2\n      pop\n        /* \"#utility.yul\":17412:17415   */\n      dup3\n        /* \"#utility.yul\":17409:17410   */\n      0x02\n        /* \"#utility.yul\":17405:17416   */\n      mul\n        /* \"#utility.yul\":17399:17403   */\n      dup3\n        /* \"#utility.yul\":17396:17417   */\n      or\n        /* \"#utility.yul\":17388:17417   */\n      swap1\n      pop\n        /* \"#utility.yul\":17128:17423   */\n      swap3\n      swap2\n      pop\n      pop\n      jump\t// out\n        /* \"#utility.yul\":17428:18823   */\n    tag_86:\n        /* \"#utility.yul\":17545:17582   */\n      tag_410\n        /* \"#utility.yul\":17578:17581   */\n      dup3\n        /* \"#utility.yul\":17545:17582   */\n      tag_168\n      jump\t// in\n    tag_410:\n        /* \"#utility.yul\":17647:17665   */\n      0xffffffffffffffff\n        /* \"#utility.yul\":17639:17645   */\n      dup2\n        /* \"#utility.yul\":17636:17666   */\n      gt\n        /* \"#utility.yul\":17633:17689   */\n      iszero\n      tag_411\n      jumpi\n        /* \"#utility.yul\":17669:17687   */\n      tag_412\n      tag_154\n      jump\t// in\n    tag_412:\n        /* \"#utility.yul\":17633:17689   */\n    tag_411:\n        /* \"#utility.yul\":17713:17751   */\n      tag_413\n        /* \"#utility.yul\":17745:17749   */\n      dup3\n        /* \"#utility.yul\":17739:17750   */\n      sload\n        /* \"#utility.yul\":17713:17751   */\n      tag_110\n      jump\t// in\n    tag_413:\n        /* \"#utility.yul\":17798:17865   */\n      tag_414\n        /* \"#utility.yul\":17858:17864   */\n      dup3\n        /* \"#utility.yul\":17850:17856   */\n      dup3\n        /* \"#utility.yul\":17844:17848   */\n      dup6\n        /* \"#utility.yul\":17798:17865   */\n      tag_189\n      jump\t// in\n    tag_414:\n        /* \"#utility.yul\":17892:17893   */\n      0x00\n        /* \"#utility.yul\":17916:17920   */\n      0x20\n        /* \"#utility.yul\":17903:17920   */\n      swap1\n      pop\n        /* \"#utility.yul\":17948:17950   */\n      0x1f\n        /* \"#utility.yul\":17940:17946   */\n      dup4\n        /* \"#utility.yul\":17937:17951   */\n      gt\n        /* \"#utility.yul\":17965:17966   */\n      0x01\n        /* \"#utility.yul\":17960:18578   */\n      dup2\n      eq\n      tag_416\n      jumpi\n        /* \"#utility.yul\":18622:18623   */\n      0x00\n        /* \"#utility.yul\":18639:18645   */\n      dup5\n        /* \"#utility.yul\":18636:18713   */\n      iszero\n      tag_417\n      jumpi\n        /* \"#utility.yul\":18688:18697   */\n      dup3\n        /* \"#utility.yul\":18683:18686   */\n      dup8\n        /* \"#utility.yul\":18679:18698   */\n      add\n        /* \"#utility.yul\":18673:18699   */\n      mload\n        /* \"#utility.yul\":18664:18699   */\n      swap1\n      pop\n        /* \"#utility.yul\":18636:18713   */\n    tag_417:\n        /* \"#utility.yul\":18739:18806   */\n      tag_418\n        /* \"#utility.yul\":18799:18805   */\n      dup6\n        /* \"#utility.yul\":18792:18797   */\n      dup3\n        /* \"#utility.yul\":18739:18806   */\n      tag_192\n      jump\t// in\n    tag_418:\n        /* \"#utility.yul\":18733:18737   */\n      dup7\n        /* \"#utility.yul\":18726:18807   */\n      sstore\n        /* \"#utility.yul\":18595:18817   */\n      pop\n        /* \"#utility.yul\":17930:18817   */\n      jump(tag_415)\n        /* \"#utility.yul\":17960:18578   */\n    tag_416:\n        /* \"#utility.yul\":18012:18016   */\n      0x1f\n        /* \"#utility.yul\":18008:18017   */\n      not\n        /* \"#utility.yul\":18000:18006   */\n      dup5\n        /* \"#utility.yul\":17996:18018   */\n      and\n        /* \"#utility.yul\":18046:18083   */\n      tag_419\n        /* \"#utility.yul\":18078:18082   */\n      dup7\n        /* \"#utility.yul\":18046:18083   */\n      tag_179\n      jump\t// in\n    tag_419:\n        /* \"#utility.yul\":18105:18106   */\n      0x00\n        /* \"#utility.yul\":18119:18327   */\n    tag_420:\n        /* \"#utility.yul\":18133:18140   */\n      dup3\n        /* \"#utility.yul\":18130:18131   */\n      dup2\n        /* \"#utility.yul\":18127:18141   */\n      lt\n        /* \"#utility.yul\":18119:18327   */\n      iszero\n      tag_422\n      jumpi\n        /* \"#utility.yul\":18212:18221   */\n      dup5\n        /* \"#utility.yul\":18207:18210   */\n      dup10\n        /* \"#utility.yul\":18203:18222   */\n      add\n        /* \"#utility.yul\":18197:18223   */\n      mload\n        /* \"#utility.yul\":18189:18195   */\n      dup3\n        /* \"#utility.yul\":18182:18224   */\n      sstore\n        /* \"#utility.yul\":18263:18264   */\n      0x01\n        /* \"#utility.yul\":18255:18261   */\n      dup3\n        /* \"#utility.yul\":18251:18265   */\n      add\n        /* \"#utility.yul\":18241:18265   */\n      swap2\n      pop\n        /* \"#utility.yul\":18310:18312   */\n      0x20\n        /* \"#utility.yul\":18299:18308   */\n      dup6\n        /* \"#utility.yul\":18295:18313   */\n      add\n        /* \"#utility.yul\":18282:18313   */\n      swap5\n      pop\n        /* \"#utility.yul\":18156:18160   */\n      0x20\n        /* \"#utility.yul\":18153:18154   */\n      dup2\n        /* \"#utility.yul\":18149:18161   */\n      add\n        /* \"#utility.yul\":18144:18161   */\n      swap1\n      pop\n        /* \"#utility.yul\":18119:18327   */\n      jump(tag_420)\n    tag_422:\n        /* \"#utility.yul\":18355:18361   */\n      dup7\n        /* \"#utility.yul\":18346:18353   */\n      dup4\n        /* \"#utility.yul\":18343:18362   */\n      lt\n        /* \"#utility.yul\":18340:18519   */\n      iszero\n      tag_423\n      jumpi\n        /* \"#utility.yul\":18413:18422   */\n      dup5\n        /* \"#utility.yul\":18408:18411   */\n      dup10\n        /* \"#utility.yul\":18404:18423   */\n      add\n        /* \"#utility.yul\":18398:18424   */\n      mload\n        /* \"#utility.yul\":18456:18504   */\n      tag_424\n        /* \"#utility.yul\":18498:18502   */\n      0x1f\n        /* \"#utility.yul\":18490:18496   */\n      dup10\n        /* \"#utility.yul\":18486:18503   */\n      and\n        /* \"#utility.yul\":18475:18484   */\n      dup3\n        /* \"#utility.yul\":18456:18504   */\n      tag_191\n      jump\t// in\n    tag_424:\n        /* \"#utility.yul\":18448:18454   */\n      dup4\n        /* \"#utility.yul\":18441:18505   */\n      sstore\n        /* \"#utility.yul\":18363:18519   */\n      pop\n        /* \"#utility.yul\":18340:18519   */\n    tag_423:\n        /* \"#utility.yul\":18565:18566   */\n      0x01\n        /* \"#utility.yul\":18561:18562   */\n      0x02\n        /* \"#utility.yul\":18553:18559   */\n      dup9\n        /* \"#utility.yul\":18549:18563   */\n      mul\n        /* \"#utility.yul\":18545:18567   */\n      add\n        /* \"#utility.yul\":18539:18543   */\n      dup9\n        /* \"#utility.yul\":18532:18568   */\n      sstore\n        /* \"#utility.yul\":17967:18578   */\n      pop\n      pop\n      pop\n        /* \"#utility.yul\":17930:18817   */\n    tag_415:\n      pop\n        /* \"#utility.yul\":17520:18823   */\n      pop\n      pop\n      pop\n        /* \"#utility.yul\":17428:18823   */\n      pop\n      pop\n      jump\t// out\n        /* \"#utility.yul\":18829:18914   */\n    tag_193:\n        /* \"#utility.yul\":18874:18881   */\n      0x00\n        /* \"#utility.yul\":18903:18908   */\n      dup2\n        /* \"#utility.yul\":18892:18908   */\n      swap1\n      pop\n        /* \"#utility.yul\":18829:18914   */\n      swap2\n      swap1\n      pop\n      jump\t// out\n        /* \"#utility.yul\":18920:19078   */\n    tag_194:\n        /* \"#utility.yul\":18978:18987   */\n      0x00\n        /* \"#utility.yul\":19011:19072   */\n      tag_427\n        /* \"#utility.yul\":19029:19071   */\n      tag_428\n        /* \"#utility.yul\":19038:19070   */\n      tag_429\n        /* \"#utility.yul\":19064:19069   */\n      dup5\n        /* \"#utility.yul\":19038:19070   */\n      tag_193\n      jump\t// in\n    tag_429:\n        /* \"#utility.yul\":19029:19071   */\n      tag_161\n      jump\t// in\n    tag_428:\n        /* \"#utility.yul\":19011:19072   */\n      tag_136\n      jump\t// in\n    tag_427:\n        /* \"#utility.yul\":18998:19072   */\n      swap1\n      pop\n        /* \"#utility.yul\":18920:19078   */\n      swap2\n      swap1\n      pop\n      jump\t// out\n        /* \"#utility.yul\":19084:19231   */\n    tag_195:\n        /* \"#utility.yul\":19179:19224   */\n      tag_431\n        /* \"#utility.yul\":19218:19223   */\n      dup2\n        /* \"#utility.yul\":19179:19224   */\n      tag_194\n      jump\t// in\n    tag_431:\n        /* \"#utility.yul\":19174:19177   */\n      dup3\n        /* \"#utility.yul\":19167:19225   */\n      mstore\n        /* \"#utility.yul\":19084:19231   */\n      pop\n      pop\n      jump\t// out\n        /* \"#utility.yul\":19237:20404   */\n    tag_89:\n        /* \"#utility.yul\":19560:19564   */\n      0x00\n        /* \"#utility.yul\":19598:19601   */\n      0x0100\n        /* \"#utility.yul\":19587:19596   */\n      dup3\n        /* \"#utility.yul\":19583:19602   */\n      add\n        /* \"#utility.yul\":19575:19602   */\n      swap1\n      pop\n        /* \"#utility.yul\":19612:19683   */\n      tag_433\n        /* \"#utility.yul\":19680:19681   */\n      0x00\n        /* \"#utility.yul\":19669:19678   */\n      dup4\n        /* \"#utility.yul\":19665:19682   */\n      add\n        /* \"#utility.yul\":19656:19662   */\n      dup12\n        /* \"#utility.yul\":19612:19683   */\n      tag_167\n      jump\t// in\n    tag_433:\n        /* \"#utility.yul\":19693:19759   */\n      tag_434\n        /* \"#utility.yul\":19755:19757   */\n      0x20\n        /* \"#utility.yul\":19744:19753   */\n      dup4\n        /* \"#utility.yul\":19740:19758   */\n      add\n        /* \"#utility.yul\":19731:19737   */\n      dup11\n        /* \"#utility.yul\":19693:19759   */\n      tag_145\n      jump\t// in\n    tag_434:\n        /* \"#utility.yul\":19769:19837   */\n      tag_435\n        /* \"#utility.yul\":19833:19835   */\n      0x40\n        /* \"#utility.yul\":19822:19831   */\n      dup4\n        /* \"#utility.yul\":19818:19836   */\n      add\n        /* \"#utility.yul\":19809:19815   */\n      dup10\n        /* \"#utility.yul\":19769:19837   */\n      tag_166\n      jump\t// in\n    tag_435:\n        /* \"#utility.yul\":19847:19915   */\n      tag_436\n        /* \"#utility.yul\":19911:19913   */\n      0x60\n        /* \"#utility.yul\":19900:19909   */\n      dup4\n        /* \"#utility.yul\":19896:19914   */\n      add\n        /* \"#utility.yul\":19887:19893   */\n      dup9\n        /* \"#utility.yul\":19847:19915   */\n      tag_166\n      jump\t// in\n    tag_436:\n        /* \"#utility.yul\":19925:19998   */\n      tag_437\n        /* \"#utility.yul\":19993:19996   */\n      0x80\n        /* \"#utility.yul\":19982:19991   */\n      dup4\n        /* \"#utility.yul\":19978:19997   */\n      add\n        /* \"#utility.yul\":19969:19975   */\n      dup8\n        /* \"#utility.yul\":19925:19998   */\n      tag_167\n      jump\t// in\n    tag_437:\n        /* \"#utility.yul\":20008:20089   */\n      tag_438\n        /* \"#utility.yul\":20084:20087   */\n      0xa0\n        /* \"#utility.yul\":20073:20082   */\n      dup4\n        /* \"#utility.yul\":20069:20088   */\n      add\n        /* \"#utility.yul\":20060:20066   */\n      dup7\n        /* \"#utility.yul\":20008:20089   */\n      tag_195\n      jump\t// in\n    tag_438:\n        /* \"#utility.yul\":20137:20146   */\n      dup2\n        /* \"#utility.yul\":20131:20135   */\n      dup2\n        /* \"#utility.yul\":20127:20147   */\n      sub\n        /* \"#utility.yul\":20121:20124   */\n      0xc0\n        /* \"#utility.yul\":20110:20119   */\n      dup4\n        /* \"#utility.yul\":20106:20125   */\n      add\n        /* \"#utility.yul\":20099:20148   */\n      mstore\n        /* \"#utility.yul\":20165:20243   */\n      tag_439\n        /* \"#utility.yul\":20238:20242   */\n      dup2\n        /* \"#utility.yul\":20229:20235   */\n      dup6\n        /* \"#utility.yul\":20165:20243   */\n      tag_171\n      jump\t// in\n    tag_439:\n        /* \"#utility.yul\":20157:20243   */\n      swap1\n      pop\n        /* \"#utility.yul\":20291:20300   */\n      dup2\n        /* \"#utility.yul\":20285:20289   */\n      dup2\n        /* \"#utility.yul\":20281:20301   */\n      sub\n        /* \"#utility.yul\":20275:20278   */\n      0xe0\n        /* \"#utility.yul\":20264:20273   */\n      dup4\n        /* \"#utility.yul\":20260:20279   */\n      add\n        /* \"#utility.yul\":20253:20302   */\n      mstore\n        /* \"#utility.yul\":20319:20397   */\n      tag_440\n        /* \"#utility.yul\":20392:20396   */\n      dup2\n        /* \"#utility.yul\":20383:20389   */\n      dup5\n        /* \"#utility.yul\":20319:20397   */\n      tag_171\n      jump\t// in\n    tag_440:\n        /* \"#utility.yul\":20311:20397   */\n      swap1\n      pop\n        /* \"#utility.yul\":19237:20404   */\n      swap10\n      swap9\n      pop\n      pop\n      pop\n      pop\n      pop\n      pop\n      pop\n      pop\n      pop\n      jump\t// out\n        /* \"#utility.yul\":20410:20591   */\n    tag_196:\n        /* \"#utility.yul\":20550:20583   */\n      0x537761702068617320616c7265616479206265656e2065786563757465642100\n        /* \"#utility.yul\":20546:20547   */\n      0x00\n        /* \"#utility.yul\":20538:20544   */\n      dup3\n        /* \"#utility.yul\":20534:20548   */\n      add\n        /* \"#utility.yul\":20527:20584   */\n      mstore\n        /* \"#utility.yul\":20410:20591   */\n      pop\n      jump\t// out\n        /* \"#utility.yul\":20597:20963   */\n    tag_197:\n        /* \"#utility.yul\":20739:20742   */\n      0x00\n        /* \"#utility.yul\":20760:20827   */\n      tag_443\n        /* \"#utility.yul\":20824:20826   */\n      0x1f\n        /* \"#utility.yul\":20819:20822   */\n      dup4\n        /* \"#utility.yul\":20760:20827   */\n      tag_169\n      jump\t// in\n    tag_443:\n        /* \"#utility.yul\":20753:20827   */\n      swap2\n      pop\n        /* \"#utility.yul\":20836:20929   */\n      tag_444\n        /* \"#utility.yul\":20925:20928   */\n      dup3\n        /* \"#utility.yul\":20836:20929   */\n      tag_196\n      jump\t// in\n    tag_444:\n        /* \"#utility.yul\":20954:20956   */\n      0x20\n        /* \"#utility.yul\":20949:20952   */\n      dup3\n        /* \"#utility.yul\":20945:20957   */\n      add\n        /* \"#utility.yul\":20938:20957   */\n      swap1\n      pop\n        /* \"#utility.yul\":20597:20963   */\n      swap2\n      swap1\n      pop\n      jump\t// out\n        /* \"#utility.yul\":20969:21388   */\n    tag_93:\n        /* \"#utility.yul\":21135:21139   */\n      0x00\n        /* \"#utility.yul\":21173:21175   */\n      0x20\n        /* \"#utility.yul\":21162:21171   */\n      dup3\n        /* \"#utility.yul\":21158:21176   */\n      add\n        /* \"#utility.yul\":21150:21176   */\n      swap1\n      pop\n        /* \"#utility.yul\":21222:21231   */\n      dup2\n        /* \"#utility.yul\":21216:21220   */\n      dup2\n        /* \"#utility.yul\":21212:21232   */\n      sub\n        /* \"#utility.yul\":21208:21209   */\n      0x00\n        /* \"#utility.yul\":21197:21206   */\n      dup4\n        /* \"#utility.yul\":21193:21210   */\n      add\n        /* \"#utility.yul\":21186:21233   */\n      mstore\n        /* \"#utility.yul\":21250:21381   */\n      tag_446\n        /* \"#utility.yul\":21376:21380   */\n      dup2\n        /* \"#utility.yul\":21250:21381   */\n      tag_197\n      jump\t// in\n    tag_446:\n        /* \"#utility.yul\":21242:21381   */\n      swap1\n      pop\n        /* \"#utility.yul\":20969:21388   */\n      swap2\n      swap1\n      pop\n      jump\t// out\n        /* \"#utility.yul\":21394:21571   */\n    tag_198:\n        /* \"#utility.yul\":21534:21563   */\n      0x4e6f206164647265737320666f7220696e70757420746f6b656e210000000000\n        /* \"#utility.yul\":21530:21531   */\n      0x00\n        /* \"#utility.yul\":21522:21528   */\n      dup3\n        /* \"#utility.yul\":21518:21532   */\n      add\n        /* \"#utility.yul\":21511:21564   */\n      mstore\n        /* \"#utility.yul\":21394:21571   */\n      pop\n      jump\t// out\n        /* \"#utility.yul\":21577:21943   */\n    tag_199:\n        /* \"#utility.yul\":21719:21722   */\n      0x00\n        /* \"#utility.yul\":21740:21807   */\n      tag_449\n        /* \"#utility.yul\":21804:21806   */\n      0x1b\n        /* \"#utility.yul\":21799:21802   */\n      dup4\n        /* \"#utility.yul\":21740:21807   */\n      tag_169\n      jump\t// in\n    tag_449:\n        /* \"#utility.yul\":21733:21807   */\n      swap2\n      pop\n        /* \"#utility.yul\":21816:21909   */\n      tag_450\n        /* \"#utility.yul\":21905:21908   */\n      dup3\n        /* \"#utility.yul\":21816:21909   */\n      tag_198\n      jump\t// in\n    tag_450:\n        /* \"#utility.yul\":21934:21936   */\n      0x20\n        /* \"#utility.yul\":21929:21932   */\n      dup3\n        /* \"#utility.yul\":21925:21937   */\n      add\n        /* \"#utility.yul\":21918:21937   */\n      swap1\n      pop\n        /* \"#utility.yul\":21577:21943   */\n      swap2\n      swap1\n      pop\n      jump\t// out\n        /* \"#utility.yul\":21949:22368   */\n    tag_96:\n        /* \"#utility.yul\":22115:22119   */\n      0x00\n        /* \"#utility.yul\":22153:22155   */\n      0x20\n        /* \"#utility.yul\":22142:22151   */\n      dup3\n        /* \"#utility.yul\":22138:22156   */\n      add\n        /* \"#utility.yul\":22130:22156   */\n      swap1\n      pop\n        /* \"#utility.yul\":22202:22211   */\n      dup2\n        /* \"#utility.yul\":22196:22200   */\n      dup2\n        /* \"#utility.yul\":22192:22212   */\n      sub\n        /* \"#utility.yul\":22188:22189   */\n      0x00\n        /* \"#utility.yul\":22177:22186   */\n      dup4\n        /* \"#utility.yul\":22173:22190   */\n      add\n        /* \"#utility.yul\":22166:22213   */\n      mstore\n        /* \"#utility.yul\":22230:22361   */\n      tag_452\n        /* \"#utility.yul\":22356:22360   */\n      dup2\n        /* \"#utility.yul\":22230:22361   */\n      tag_199\n      jump\t// in\n    tag_452:\n        /* \"#utility.yul\":22222:22361   */\n      swap1\n      pop\n        /* \"#utility.yul\":21949:22368   */\n      swap2\n      swap1\n      pop\n      jump\t// out\n        /* \"#utility.yul\":22374:22552   */\n    tag_200:\n        /* \"#utility.yul\":22514:22544   */\n      0x4e6f206164647265737320666f72206f757470757420746f6b656e2100000000\n        /* \"#utility.yul\":22510:22511   */\n      0x00\n        /* \"#utility.yul\":22502:22508   */\n      dup3\n        /* \"#utility.yul\":22498:22512   */\n      add\n        /* \"#utility.yul\":22491:22545   */\n      mstore\n        /* \"#utility.yul\":22374:22552   */\n      pop\n      jump\t// out\n        /* \"#utility.yul\":22558:22924   */\n    tag_201:\n        /* \"#utility.yul\":22700:22703   */\n      0x00\n        /* \"#utility.yul\":22721:22788   */\n      tag_455\n        /* \"#utility.yul\":22785:22787   */\n      0x1c\n        /* \"#utility.yul\":22780:22783   */\n      dup4\n        /* \"#utility.yul\":22721:22788   */\n      tag_169\n      jump\t// in\n    tag_455:\n        /* \"#utility.yul\":22714:22788   */\n      swap2\n      pop\n        /* \"#utility.yul\":22797:22890   */\n      tag_456\n        /* \"#utility.yul\":22886:22889   */\n      dup3\n        /* \"#utility.yul\":22797:22890   */\n      tag_200\n      jump\t// in\n    tag_456:\n        /* \"#utility.yul\":22915:22917   */\n      0x20\n        /* \"#utility.yul\":22910:22913   */\n      dup3\n        /* \"#utility.yul\":22906:22918   */\n      add\n        /* \"#utility.yul\":22899:22918   */\n      swap1\n      pop\n        /* \"#utility.yul\":22558:22924   */\n      swap2\n      swap1\n      pop\n      jump\t// out\n        /* \"#utility.yul\":22930:23349   */\n    tag_99:\n        /* \"#utility.yul\":23096:23100   */\n      0x00\n        /* \"#utility.yul\":23134:23136   */\n      0x20\n        /* \"#utility.yul\":23123:23132   */\n      dup3\n        /* \"#utility.yul\":23119:23137   */\n      add\n        /* \"#utility.yul\":23111:23137   */\n      swap1\n      pop\n        /* \"#utility.yul\":23183:23192   */\n      dup2\n        /* \"#utility.yul\":23177:23181   */\n      dup2\n        /* \"#utility.yul\":23173:23193   */\n      sub\n        /* \"#utility.yul\":23169:23170   */\n      0x00\n        /* \"#utility.yul\":23158:23167   */\n      dup4\n        /* \"#utility.yul\":23154:23171   */\n      add\n        /* \"#utility.yul\":23147:23194   */\n      mstore\n        /* \"#utility.yul\":23211:23342   */\n      tag_458\n        /* \"#utility.yul\":23337:23341   */\n      dup2\n        /* \"#utility.yul\":23211:23342   */\n      tag_201\n      jump\t// in\n    tag_458:\n        /* \"#utility.yul\":23203:23342   */\n      swap1\n      pop\n        /* \"#utility.yul\":22930:23349   */\n      swap2\n      swap1\n      pop\n      jump\t// out\n        /* \"#utility.yul\":23355:23463   */\n    tag_202:\n        /* \"#utility.yul\":23432:23456   */\n      tag_460\n        /* \"#utility.yul\":23450:23455   */\n      dup2\n        /* \"#utility.yul\":23432:23456   */\n      tag_140\n      jump\t// in\n    tag_460:\n        /* \"#utility.yul\":23427:23430   */\n      dup3\n        /* \"#utility.yul\":23420:23457   */\n      mstore\n        /* \"#utility.yul\":23355:23463   */\n      pop\n      pop\n      jump\t// out\n        /* \"#utility.yul\":23469:23560   */\n    tag_203:\n        /* \"#utility.yul\":23505:23512   */\n      0x00\n        /* \"#utility.yul\":23545:23553   */\n      0xffffff\n        /* \"#utility.yul\":23538:23543   */\n      dup3\n        /* \"#utility.yul\":23534:23554   */\n      and\n        /* \"#utility.yul\":23523:23554   */\n      swap1\n      pop\n        /* \"#utility.yul\":23469:23560   */\n      swap2\n      swap1\n      pop\n      jump\t// out\n        /* \"#utility.yul\":23566:23671   */\n    tag_204:\n        /* \"#utility.yul\":23641:23664   */\n      tag_463\n        /* \"#utility.yul\":23658:23663   */\n      dup2\n        /* \"#utility.yul\":23641:23664   */\n      tag_203\n      jump\t// in\n    tag_463:\n        /* \"#utility.yul\":23636:23639   */\n      dup3\n        /* \"#utility.yul\":23629:23665   */\n      mstore\n        /* \"#utility.yul\":23566:23671   */\n      pop\n      pop\n      jump\t// out\n        /* \"#utility.yul\":23677:23785   */\n    tag_205:\n        /* \"#utility.yul\":23754:23778   */\n      tag_465\n        /* \"#utility.yul\":23772:23777   */\n      dup2\n        /* \"#utility.yul\":23754:23778   */\n      tag_136\n      jump\t// in\n    tag_465:\n        /* \"#utility.yul\":23749:23752   */\n      dup3\n        /* \"#utility.yul\":23742:23779   */\n      mstore\n        /* \"#utility.yul\":23677:23785   */\n      pop\n      pop\n      jump\t// out\n        /* \"#utility.yul\":23791:23899   */\n    tag_206:\n        /* \"#utility.yul\":23868:23892   */\n      tag_467\n        /* \"#utility.yul\":23886:23891   */\n      dup2\n        /* \"#utility.yul\":23868:23892   */\n      tag_139\n      jump\t// in\n    tag_467:\n        /* \"#utility.yul\":23863:23866   */\n      dup3\n        /* \"#utility.yul\":23856:23893   */\n      mstore\n        /* \"#utility.yul\":23791:23899   */\n      pop\n      pop\n      jump\t// out\n        /* \"#utility.yul\":23999:25622   */\n    tag_207:\n        /* \"#utility.yul\":24174:24180   */\n      0x0100\n        /* \"#utility.yul\":24169:24172   */\n      dup3\n        /* \"#utility.yul\":24165:24181   */\n      add\n        /* \"#utility.yul\":24266:24270   */\n      0x00\n        /* \"#utility.yul\":24259:24264   */\n      dup3\n        /* \"#utility.yul\":24255:24271   */\n      add\n        /* \"#utility.yul\":24249:24272   */\n      mload\n        /* \"#utility.yul\":24285:24348   */\n      tag_469\n        /* \"#utility.yul\":24342:24346   */\n      0x00\n        /* \"#utility.yul\":24337:24340   */\n      dup6\n        /* \"#utility.yul\":24333:24347   */\n      add\n        /* \"#utility.yul\":24319:24331   */\n      dup3\n        /* \"#utility.yul\":24285:24348   */\n      tag_202\n      jump\t// in\n    tag_469:\n        /* \"#utility.yul\":24191:24358   */\n      pop\n        /* \"#utility.yul\":24444:24448   */\n      0x20\n        /* \"#utility.yul\":24437:24442   */\n      dup3\n        /* \"#utility.yul\":24433:24449   */\n      add\n        /* \"#utility.yul\":24427:24450   */\n      mload\n        /* \"#utility.yul\":24463:24526   */\n      tag_470\n        /* \"#utility.yul\":24520:24524   */\n      0x20\n        /* \"#utility.yul\":24515:24518   */\n      dup6\n        /* \"#utility.yul\":24511:24525   */\n      add\n        /* \"#utility.yul\":24497:24509   */\n      dup3\n        /* \"#utility.yul\":24463:24526   */\n      tag_202\n      jump\t// in\n    tag_470:\n        /* \"#utility.yul\":24368:24536   */\n      pop\n        /* \"#utility.yul\":24617:24621   */\n      0x40\n        /* \"#utility.yul\":24610:24615   */\n      dup3\n        /* \"#utility.yul\":24606:24622   */\n      add\n        /* \"#utility.yul\":24600:24623   */\n      mload\n        /* \"#utility.yul\":24636:24697   */\n      tag_471\n        /* \"#utility.yul\":24691:24695   */\n      0x40\n        /* \"#utility.yul\":24686:24689   */\n      dup6\n        /* \"#utility.yul\":24682:24696   */\n      add\n        /* \"#utility.yul\":24668:24680   */\n      dup3\n        /* \"#utility.yul\":24636:24697   */\n      tag_204\n      jump\t// in\n    tag_471:\n        /* \"#utility.yul\":24546:24707   */\n      pop\n        /* \"#utility.yul\":24794:24798   */\n      0x60\n        /* \"#utility.yul\":24787:24792   */\n      dup3\n        /* \"#utility.yul\":24783:24799   */\n      add\n        /* \"#utility.yul\":24777:24800   */\n      mload\n        /* \"#utility.yul\":24813:24876   */\n      tag_472\n        /* \"#utility.yul\":24870:24874   */\n      0x60\n        /* \"#utility.yul\":24865:24868   */\n      dup6\n        /* \"#utility.yul\":24861:24875   */\n      add\n        /* \"#utility.yul\":24847:24859   */\n      dup3\n        /* \"#utility.yul\":24813:24876   */\n      tag_202\n      jump\t// in\n    tag_472:\n        /* \"#utility.yul\":24717:24886   */\n      pop\n        /* \"#utility.yul\":24972:24976   */\n      0x80\n        /* \"#utility.yul\":24965:24970   */\n      dup3\n        /* \"#utility.yul\":24961:24977   */\n      add\n        /* \"#utility.yul\":24955:24978   */\n      mload\n        /* \"#utility.yul\":24991:25054   */\n      tag_473\n        /* \"#utility.yul\":25048:25052   */\n      0x80\n        /* \"#utility.yul\":25043:25046   */\n      dup6\n        /* \"#utility.yul\":25039:25053   */\n      add\n        /* \"#utility.yul\":25025:25037   */\n      dup3\n        /* \"#utility.yul\":24991:25054   */\n      tag_205\n      jump\t// in\n    tag_473:\n        /* \"#utility.yul\":24896:25064   */\n      pop\n        /* \"#utility.yul\":25150:25154   */\n      0xa0\n        /* \"#utility.yul\":25143:25148   */\n      dup3\n        /* \"#utility.yul\":25139:25155   */\n      add\n        /* \"#utility.yul\":25133:25156   */\n      mload\n        /* \"#utility.yul\":25169:25232   */\n      tag_474\n        /* \"#utility.yul\":25226:25230   */\n      0xa0\n        /* \"#utility.yul\":25221:25224   */\n      dup6\n        /* \"#utility.yul\":25217:25231   */\n      add\n        /* \"#utility.yul\":25203:25215   */\n      dup3\n        /* \"#utility.yul\":25169:25232   */\n      tag_205\n      jump\t// in\n    tag_474:\n        /* \"#utility.yul\":25074:25242   */\n      pop\n        /* \"#utility.yul\":25336:25340   */\n      0xc0\n        /* \"#utility.yul\":25329:25334   */\n      dup3\n        /* \"#utility.yul\":25325:25341   */\n      add\n        /* \"#utility.yul\":25319:25342   */\n      mload\n        /* \"#utility.yul\":25355:25418   */\n      tag_475\n        /* \"#utility.yul\":25412:25416   */\n      0xc0\n        /* \"#utility.yul\":25407:25410   */\n      dup6\n        /* \"#utility.yul\":25403:25417   */\n      add\n        /* \"#utility.yul\":25389:25401   */\n      dup3\n        /* \"#utility.yul\":25355:25418   */\n      tag_205\n      jump\t// in\n    tag_475:\n        /* \"#utility.yul\":25252:25428   */\n      pop\n        /* \"#utility.yul\":25523:25527   */\n      0xe0\n        /* \"#utility.yul\":25516:25521   */\n      dup3\n        /* \"#utility.yul\":25512:25528   */\n      add\n        /* \"#utility.yul\":25506:25529   */\n      mload\n        /* \"#utility.yul\":25542:25605   */\n      tag_476\n        /* \"#utility.yul\":25599:25603   */\n      0xe0\n        /* \"#utility.yul\":25594:25597   */\n      dup6\n        /* \"#utility.yul\":25590:25604   */\n      add\n        /* \"#utility.yul\":25576:25588   */\n      dup3\n        /* \"#utility.yul\":25542:25605   */\n      tag_206\n      jump\t// in\n    tag_476:\n        /* \"#utility.yul\":25438:25615   */\n      pop\n        /* \"#utility.yul\":24143:25622   */\n      pop\n        /* \"#utility.yul\":23999:25622   */\n      pop\n      pop\n      jump\t// out\n        /* \"#utility.yul\":25628:26007   */\n    tag_103:\n        /* \"#utility.yul\":25799:25803   */\n      0x00\n        /* \"#utility.yul\":25837:25840   */\n      0x0100\n        /* \"#utility.yul\":25826:25835   */\n      dup3\n        /* \"#utility.yul\":25822:25841   */\n      add\n        /* \"#utility.yul\":25814:25841   */\n      swap1\n      pop\n        /* \"#utility.yul\":25851:26000   */\n      tag_478\n        /* \"#utility.yul\":25997:25998   */\n      0x00\n        /* \"#utility.yul\":25986:25995   */\n      dup4\n        /* \"#utility.yul\":25982:25999   */\n      add\n        /* \"#utility.yul\":25973:25979   */\n      dup5\n        /* \"#utility.yul\":25851:26000   */\n      tag_207\n      jump\t// in\n    tag_478:\n        /* \"#utility.yul\":25628:26007   */\n      swap3\n      swap2\n      pop\n      pop\n      jump\t// out\n        /* \"#utility.yul\":26013:26345   */\n    tag_108:\n        /* \"#utility.yul\":26134:26138   */\n      0x00\n        /* \"#utility.yul\":26172:26174   */\n      0x40\n        /* \"#utility.yul\":26161:26170   */\n      dup3\n        /* \"#utility.yul\":26157:26175   */\n      add\n        /* \"#utility.yul\":26149:26175   */\n      swap1\n      pop\n        /* \"#utility.yul\":26185:26256   */\n      tag_480\n        /* \"#utility.yul\":26253:26254   */\n      0x00\n        /* \"#utility.yul\":26242:26251   */\n      dup4\n        /* \"#utility.yul\":26238:26255   */\n      add\n        /* \"#utility.yul\":26229:26235   */\n      dup6\n        /* \"#utility.yul\":26185:26256   */\n      tag_167\n      jump\t// in\n    tag_480:\n        /* \"#utility.yul\":26266:26338   */\n      tag_481\n        /* \"#utility.yul\":26334:26336   */\n      0x20\n        /* \"#utility.yul\":26323:26332   */\n      dup4\n        /* \"#utility.yul\":26319:26337   */\n      add\n        /* \"#utility.yul\":26310:26316   */\n      dup5\n        /* \"#utility.yul\":26266:26338   */\n      tag_167\n      jump\t// in\n    tag_481:\n        /* \"#utility.yul\":26013:26345   */\n      swap4\n      swap3\n      pop\n      pop\n      pop\n      jump\t// out\n        /* \"#utility.yul\":26351:26449   */\n    tag_208:\n        /* \"#utility.yul\":26402:26408   */\n      0x00\n        /* \"#utility.yul\":26436:26441   */\n      dup2\n        /* \"#utility.yul\":26430:26442   */\n      mload\n        /* \"#utility.yul\":26420:26442   */\n      swap1\n      pop\n        /* \"#utility.yul\":26351:26449   */\n      swap2\n      swap1\n      pop\n      jump\t// out\n        /* \"#utility.yul\":26455:26602   */\n    tag_209:\n        /* \"#utility.yul\":26556:26567   */\n      0x00\n        /* \"#utility.yul\":26593:26596   */\n      dup2\n        /* \"#utility.yul\":26578:26596   */\n      swap1\n      pop\n        /* \"#utility.yul\":26455:26602   */\n      swap3\n      swap2\n      pop\n      pop\n      jump\t// out\n        /* \"#utility.yul\":26608:26994   */\n    tag_210:\n        /* \"#utility.yul\":26712:26715   */\n      0x00\n        /* \"#utility.yul\":26740:26778   */\n      tag_485\n        /* \"#utility.yul\":26772:26777   */\n      dup3\n        /* \"#utility.yul\":26740:26778   */\n      tag_208\n      jump\t// in\n    tag_485:\n        /* \"#utility.yul\":26794:26882   */\n      tag_486\n        /* \"#utility.yul\":26875:26881   */\n      dup2\n        /* \"#utility.yul\":26870:26873   */\n      dup6\n        /* \"#utility.yul\":26794:26882   */\n      tag_209\n      jump\t// in\n    tag_486:\n        /* \"#utility.yul\":26787:26882   */\n      swap4\n      pop\n        /* \"#utility.yul\":26891:26956   */\n      tag_487\n        /* \"#utility.yul\":26949:26955   */\n      dup2\n        /* \"#utility.yul\":26944:26947   */\n      dup6\n        /* \"#utility.yul\":26937:26941   */\n      0x20\n        /* \"#utility.yul\":26930:26935   */\n      dup7\n        /* \"#utility.yul\":26926:26942   */\n      add\n        /* \"#utility.yul\":26891:26956   */\n      tag_170\n      jump\t// in\n    tag_487:\n        /* \"#utility.yul\":26981:26987   */\n      dup1\n        /* \"#utility.yul\":26976:26979   */\n      dup5\n        /* \"#utility.yul\":26972:26988   */\n      add\n        /* \"#utility.yul\":26965:26988   */\n      swap2\n      pop\n        /* \"#utility.yul\":26716:26994   */\n      pop\n        /* \"#utility.yul\":26608:26994   */\n      swap3\n      swap2\n      pop\n      pop\n      jump\t// out\n        /* \"#utility.yul\":27000:27271   */\n    tag_123:\n        /* \"#utility.yul\":27130:27133   */\n      0x00\n        /* \"#utility.yul\":27152:27245   */\n      tag_489\n        /* \"#utility.yul\":27241:27244   */\n      dup3\n        /* \"#utility.yul\":27232:27238   */\n      dup5\n        /* \"#utility.yul\":27152:27245   */\n      tag_210\n      jump\t// in\n    tag_489:\n        /* \"#utility.yul\":27145:27245   */\n      swap2\n      pop\n        /* \"#utility.yul\":27262:27265   */\n      dup2\n        /* \"#utility.yul\":27255:27265   */\n      swap1\n      pop\n        /* \"#utility.yul\":27000:27271   */\n      swap3\n      swap2\n      pop\n      pop\n      jump\t// out\n        /* \"#utility.yul\":27277:27429   */\n    tag_211:\n        /* \"#utility.yul\":27417:27421   */\n      0x5341000000000000000000000000000000000000000000000000000000000000\n        /* \"#utility.yul\":27413:27414   */\n      0x00\n        /* \"#utility.yul\":27405:27411   */\n      dup3\n        /* \"#utility.yul\":27401:27415   */\n      add\n        /* \"#utility.yul\":27394:27422   */\n      mstore\n        /* \"#utility.yul\":27277:27429   */\n      pop\n      jump\t// out\n        /* \"#utility.yul\":27435:27800   */\n    tag_212:\n        /* \"#utility.yul\":27577:27580   */\n      0x00\n        /* \"#utility.yul\":27598:27664   */\n      tag_492\n        /* \"#utility.yul\":27662:27663   */\n      0x02\n        /* \"#utility.yul\":27657:27660   */\n      dup4\n        /* \"#utility.yul\":27598:27664   */\n      tag_169\n      jump\t// in\n    tag_492:\n        /* \"#utility.yul\":27591:27664   */\n      swap2\n      pop\n        /* \"#utility.yul\":27673:27766   */\n      tag_493\n        /* \"#utility.yul\":27762:27765   */\n      dup3\n        /* \"#utility.yul\":27673:27766   */\n      tag_211\n      jump\t// in\n    tag_493:\n        /* \"#utility.yul\":27791:27793   */\n      0x20\n        /* \"#utility.yul\":27786:27789   */\n      dup3\n        /* \"#utility.yul\":27782:27794   */\n      add\n        /* \"#utility.yul\":27775:27794   */\n      swap1\n      pop\n        /* \"#utility.yul\":27435:27800   */\n      swap2\n      swap1\n      pop\n      jump\t// out\n        /* \"#utility.yul\":27806:28225   */\n    tag_132:\n        /* \"#utility.yul\":27972:27976   */\n      0x00\n        /* \"#utility.yul\":28010:28012   */\n      0x20\n        /* \"#utility.yul\":27999:28008   */\n      dup3\n        /* \"#utility.yul\":27995:28013   */\n      add\n        /* \"#utility.yul\":27987:28013   */\n      swap1\n      pop\n        /* \"#utility.yul\":28059:28068   */\n      dup2\n        /* \"#utility.yul\":28053:28057   */\n      dup2\n        /* \"#utility.yul\":28049:28069   */\n      sub\n        /* \"#utility.yul\":28045:28046   */\n      0x00\n        /* \"#utility.yul\":28034:28043   */\n      dup4\n        /* \"#utility.yul\":28030:28047   */\n      add\n        /* \"#utility.yul\":28023:28070   */\n      mstore\n        /* \"#utility.yul\":28087:28218   */\n      tag_495\n        /* \"#utility.yul\":28213:28217   */\n      dup2\n        /* \"#utility.yul\":28087:28218   */\n      tag_212\n      jump\t// in\n    tag_495:\n        /* \"#utility.yul\":28079:28218   */\n      swap1\n      pop\n        /* \"#utility.yul\":27806:28225   */\n      swap2\n      swap1\n      pop\n      jump\t// out\n\n    auxdata: 0xa26469706673582212202b21ede28efd973a00f5c992fba45c71e00d426794896fa0db79265066440edd64736f6c63430008140033\n}\n",
				"bytecode": {
					"linkReferences": {},
					"object": "60a060405234801562000010575f80fd5b5060405162001f7538038062001f758339818101604052810190620000369190620001ad565b8173ffffffffffffffffffffffffffffffffffffffff1660808173ffffffffffffffffffffffffffffffffffffffff1681525050335f806101000a81548173ffffffffffffffffffffffffffffffffffffffff021916908373ffffffffffffffffffffffffffffffffffffffff160217905550600160035f8373ffffffffffffffffffffffffffffffffffffffff1673ffffffffffffffffffffffffffffffffffffffff1681526020019081526020015f205f6101000a81548160ff0219169083151502179055505050620001f2565b5f80fd5b5f73ffffffffffffffffffffffffffffffffffffffff82169050919050565b5f62000135826200010a565b9050919050565b5f620001488262000129565b9050919050565b6200015a816200013c565b811462000165575f80fd5b50565b5f8151905062000178816200014f565b92915050565b620001898162000129565b811462000194575f80fd5b50565b5f81519050620001a7816200017e565b92915050565b5f8060408385031215620001c657620001c562000106565b5b5f620001d58582860162000168565b9250506020620001e88582860162000197565b9150509250929050565b608051611d5c620002195f395f8181610a6a01528181610b550152610c840152611d5c5ff3fe608060405234801561000f575f80fd5b5060043610610091575f3560e01c806378f9c8631161006457806378f9c8631461012d5780638da5cb5b14610149578063a9ab232b14610167578063c31c9c0714610183578063f09c5829146101a157610091565b80634f64b2be1461009557806351cff8d9146100c55780635300f841146100e157806357016b0a14610111575b5f80fd5b6100af60048036038101906100aa9190610fb9565b6101d8565b6040516100bc9190611023565b60405180910390f35b6100df60048036038101906100da9190611066565b610208565b005b6100fb60048036038101906100f69190611066565b610464565b60405161010891906110ab565b60405180910390f35b61012b600480360381019061012691906110c4565b610481565b005b6101476004803603810190610142919061129e565b6105b9565b005b610151610856565b60405161015e9190611023565b60405180910390f35b610181600480360381019061017c9190610fb9565b610879565b005b61018b610c82565b60405161019891906113ce565b60405180910390f35b6101bb60048036038101906101b69190610fb9565b610ca6565b6040516101cf98979695949392919061147f565b60405180910390f35b6002602052805f5260405f205f915054906101000a900473ffffffffffffffffffffffffffffffffffffffff1681565b6001151560035f3373ffffffffffffffffffffffffffffffffffffffff1673ffffffffffffffffffffffffffffffffffffffff1681526020019081526020015f205f9054906101000a900460ff16151514806102ae57505f8054906101000a900473ffffffffffffffffffffffffffffffffffffffff1673ffffffffffffffffffffffffffffffffffffffff163373ffffffffffffffffffffffffffffffffffffffff16145b6102ed576040517f08c379a00000000000000000000000000000000000000000000000000000000081526004016102e490611553565b60405180910390fd5b5f8173ffffffffffffffffffffffffffffffffffffffff166370a08231306040518263ffffffff1660e01b81526004016103279190611023565b602060405180830381865afa158015610342573d5f803e3d5ffd5b505050506040513d601f19601f820116820180604052508101906103669190611585565b90508173ffffffffffffffffffffffffffffffffffffffff1663095ea7b330836040518363ffffffff1660e01b81526004016103a39291906115b0565b6020604051808303815f875af11580156103bf573d5f803e3d5ffd5b505050506040513d601f19601f820116820180604052508101906103e391906115eb565b508173ffffffffffffffffffffffffffffffffffffffff1663a9059cbb33836040518363ffffffff1660e01b815260040161041f9291906115b0565b6020604051808303815f875af115801561043b573d5f803e3d5ffd5b505050506040513d601f19601f8201168201806040525081019061045f91906115eb565b505050565b6003602052805f5260405f205f915054906101000a900460ff1681565b6001151560035f3373ffffffffffffffffffffffffffffffffffffffff1673ffffffffffffffffffffffffffffffffffffffff1681526020019081526020015f205f9054906101000a900460ff161515148061052757505f8054906101000a900473ffffffffffffffffffffffffffffffffffffffff1673ffffffffffffffffffffffffffffffffffffffff163373ffffffffffffffffffffffffffffffffffffffff16145b610566576040517f08c379a000000000000000000000000000000000000000000000000000000000815260040161055d90611553565b60405180910390fd5b8060025f8481526020019081526020015f205f6101000a81548173ffffffffffffffffffffffffffffffffffffffff021916908373ffffffffffffffffffffffffffffffffffffffff1602179055505050565b6001151560035f3373ffffffffffffffffffffffffffffffffffffffff1673ffffffffffffffffffffffffffffffffffffffff1681526020019081526020015f205f9054906101000a900460ff161515148061065f57505f8054906101000a900473ffffffffffffffffffffffffffffffffffffffff1673ffffffffffffffffffffffffffffffffffffffff163373ffffffffffffffffffffffffffffffffffffffff16145b61069e576040517f08c379a000000000000000000000000000000000000000000000000000000000815260040161069590611553565b60405180910390fd5b5f60015f8981526020019081526020015f2060010154146106f4576040517f08c379a00000000000000000000000000000000000000000000000000000000081526004016106eb90611660565b60405180910390fd5b60405180610100016040528087151581526020018660ff1681526020018560ff1681526020018481526020015f81526020018381526020018281526020015f151581525060015f8981526020019081526020015f205f820151815f015f6101000a81548160ff0219169083151502179055506020820151815f0160016101000a81548160ff021916908360ff1602179055506040820151815f0160026101000a81548160ff021916908360ff160217905550606082015181600101556080820151816002015560a08201518160030190816107cf919061186f565b5060c08201518160040190816107e5919061186f565b5060e0820151816005015f6101000a81548160ff0219169083151502179055509050507f71e12b7c2304c92cc1e5751d94104c17c7d8a149f83020da78443fdb59f72e6e87878787875f8888604051610845989796959493929190611977565b60405180910390a150505050505050565b5f8054906101000a900473ffffffffffffffffffffffffffffffffffffffff1681565b60015f8281526020019081526020015f206005015f9054906101000a900460ff16156108da576040517f08c379a00000000000000000000000000000000000000000000000000000000081526004016108d190611a4b565b60405180910390fd5b5f60025f60015f8581526020019081526020015f205f0160019054906101000a900460ff1660ff1681526020019081526020015f205f9054906101000a900473ffffffffffffffffffffffffffffffffffffffff1690505f60025f60015f8681526020019081526020015f205f0160029054906101000a900460ff1660ff1681526020019081526020015f205f9054906101000a900473ffffffffffffffffffffffffffffffffffffffff1690505f73ffffffffffffffffffffffffffffffffffffffff168273ffffffffffffffffffffffffffffffffffffffff16036109f6576040517f08c379a00000000000000000000000000000000000000000000000000000000081526004016109ed90611ab3565b60405180910390fd5b5f73ffffffffffffffffffffffffffffffffffffffff168173ffffffffffffffffffffffffffffffffffffffff1603610a64576040517f08c379a0000000000000000000000000000000000000000000000000000000008152600401610a5b90611b1b565b60405180910390fd5b610aa3827f000000000000000000000000000000000000000000000000000000000000000060015f8781526020019081526020015f2060010154610e26565b5f6040518061010001604052808473ffffffffffffffffffffffffffffffffffffffff1681526020018373ffffffffffffffffffffffffffffffffffffffff168152602001610bb862ffffff1681526020013073ffffffffffffffffffffffffffffffffffffffff16815260200142815260200160015f8781526020019081526020015f206001015481526020015f81526020015f73ffffffffffffffffffffffffffffffffffffffff1681525090507f000000000000000000000000000000000000000000000000000000000000000073ffffffffffffffffffffffffffffffffffffffff1663414bf389826040518263ffffffff1660e01b8152600401610bac9190611c23565b6020604051808303815f875af1158015610bc8573d5f803e3d5ffd5b505050506040513d601f19601f82011682018060405250810190610bec9190611585565b60015f8681526020019081526020015f20600201819055507f4f73e5828387c436ef01a51b03853873e76d7a5551556837d452cbeb6f285cb58460015f8781526020019081526020015f2060020154604051610c49929190611c3d565b60405180910390a16001805f8681526020019081526020015f206005015f6101000a81548160ff02191690831515021790555050505050565b7f000000000000000000000000000000000000000000000000000000000000000081565b6001602052805f5260405f205f91509050805f015f9054906101000a900460ff1690805f0160019054906101000a900460ff1690805f0160029054906101000a900460ff1690806001015490806002015490806003018054610d07906116ab565b80601f0160208091040260200160405190810160405280929190818152602001828054610d33906116ab565b8015610d7e5780601f10610d5557610100808354040283529160200191610d7e565b820191905f5260205f20905b815481529060010190602001808311610d6157829003601f168201915b505050505090806004018054610d93906116ab565b80601f0160208091040260200160405190810160405280929190818152602001828054610dbf906116ab565b8015610e0a5780601f10610de157610100808354040283529160200191610e0a565b820191905f5260205f20905b815481529060010190602001808311610ded57829003601f168201915b505050505090806005015f9054906101000a900460ff16905088565b5f808473ffffffffffffffffffffffffffffffffffffffff1663095ea7b360e01b8585604051602401610e5a9291906115b0565b604051602081830303815290604052907bffffffffffffffffffffffffffffffffffffffffffffffffffffffff19166020820180517bffffffffffffffffffffffffffffffffffffffffffffffffffffffff8381831617835250505050604051610ec49190611ca8565b5f604051808303815f865af19150503d805f8114610efd576040519150601f19603f3d011682016040523d82523d5f602084013e610f02565b606091505b5091509150818015610f2f57505f81511480610f2e575080806020019051810190610f2d91906115eb565b5b5b610f6e576040517f08c379a0000000000000000000000000000000000000000000000000000000008152600401610f6590611d08565b60405180910390fd5b5050505050565b5f604051905090565b5f80fd5b5f80fd5b5f819050919050565b610f9881610f86565b8114610fa2575f80fd5b50565b5f81359050610fb381610f8f565b92915050565b5f60208284031215610fce57610fcd610f7e565b5b5f610fdb84828501610fa5565b91505092915050565b5f73ffffffffffffffffffffffffffffffffffffffff82169050919050565b5f61100d82610fe4565b9050919050565b61101d81611003565b82525050565b5f6020820190506110365f830184611014565b92915050565b61104581611003565b811461104f575f80fd5b50565b5f813590506110608161103c565b92915050565b5f6020828403121561107b5761107a610f7e565b5b5f61108884828501611052565b91505092915050565b5f8115159050919050565b6110a581611091565b82525050565b5f6020820190506110be5f83018461109c565b92915050565b5f80604083850312156110da576110d9610f7e565b5b5f6110e785828601610fa5565b92505060206110f885828601611052565b9150509250929050565b61110b81611091565b8114611115575f80fd5b50565b5f8135905061112681611102565b92915050565b5f60ff82169050919050565b6111418161112c565b811461114b575f80fd5b50565b5f8135905061115c81611138565b92915050565b5f80fd5b5f80fd5b5f601f19601f8301169050919050565b7f4e487b71000000000000000000000000000000000000000000000000000000005f52604160045260245ffd5b6111b08261116a565b810181811067ffffffffffffffff821117156111cf576111ce61117a565b5b80604052505050565b5f6111e1610f75565b90506111ed82826111a7565b919050565b5f67ffffffffffffffff82111561120c5761120b61117a565b5b6112158261116a565b9050602081019050919050565b828183375f83830152505050565b5f61124261123d846111f2565b6111d8565b90508281526020810184848401111561125e5761125d611166565b5b611269848285611222565b509392505050565b5f82601f83011261128557611284611162565b5b8135611295848260208601611230565b91505092915050565b5f805f805f805f60e0888a0312156112b9576112b8610f7e565b5b5f6112c68a828b01610fa5565b97505060206112d78a828b01611118565b96505060406112e88a828b0161114e565b95505060606112f98a828b0161114e565b945050608061130a8a828b01610fa5565b93505060a088013567ffffffffffffffff81111561132b5761132a610f82565b5b6113378a828b01611271565b92505060c088013567ffffffffffffffff81111561135857611357610f82565b5b6113648a828b01611271565b91505092959891949750929550565b5f819050919050565b5f61139661139161138c84610fe4565b611373565b610fe4565b9050919050565b5f6113a78261137c565b9050919050565b5f6113b88261139d565b9050919050565b6113c8816113ae565b82525050565b5f6020820190506113e15f8301846113bf565b92915050565b6113f08161112c565b82525050565b6113ff81610f86565b82525050565b5f81519050919050565b5f82825260208201905092915050565b5f5b8381101561143c578082015181840152602081019050611421565b5f8484015250505050565b5f61145182611405565b61145b818561140f565b935061146b81856020860161141f565b6114748161116a565b840191505092915050565b5f610100820190506114935f83018b61109c565b6114a0602083018a6113e7565b6114ad60408301896113e7565b6114ba60608301886113f6565b6114c760808301876113f6565b81810360a08301526114d98186611447565b905081810360c08301526114ed8185611447565b90506114fc60e083018461109c565b9998505050505050505050565b7f596f75277265206e6f7420616e2061646d696e210000000000000000000000005f82015250565b5f61153d60148361140f565b915061154882611509565b602082019050919050565b5f6020820190508181035f83015261156a81611531565b9050919050565b5f8151905061157f81610f8f565b92915050565b5f6020828403121561159a57611599610f7e565b5b5f6115a784828501611571565b91505092915050565b5f6040820190506115c35f830185611014565b6115d060208301846113f6565b9392505050565b5f815190506115e581611102565b92915050565b5f60208284031215611600576115ff610f7e565b5b5f61160d848285016115d7565b91505092915050565b7f5377617020616c726561647920657869737473210000000000000000000000005f82015250565b5f61164a60148361140f565b915061165582611616565b602082019050919050565b5f6020820190508181035f8301526116778161163e565b9050919050565b7f4e487b71000000000000000000000000000000000000000000000000000000005f52602260045260245ffd5b5f60028204905060018216806116c257607f821691505b6020821081036116d5576116d461167e565b5b50919050565b5f819050815f5260205f209050919050565b5f6020601f8301049050919050565b5f82821b905092915050565b5f600883026117377fffffffffffffffffffffffffffffffffffffffffffffffffffffffffffffffff826116fc565b61174186836116fc565b95508019841693508086168417925050509392505050565b5f61177361176e61176984610f86565b611373565b610f86565b9050919050565b5f819050919050565b61178c83611759565b6117a06117988261177a565b848454611708565b825550505050565b5f90565b6117b46117a8565b6117bf818484611783565b505050565b5b818110156117e2576117d75f826117ac565b6001810190506117c5565b5050565b601f821115611827576117f8816116db565b611801846116ed565b81016020851015611810578190505b61182461181c856116ed565b8301826117c4565b50505b505050565b5f82821c905092915050565b5f6118475f198460080261182c565b1980831691505092915050565b5f61185f8383611838565b9150826002028217905092915050565b61187882611405565b67ffffffffffffffff8111156118915761189061117a565b5b61189b82546116ab565b6118a68282856117e6565b5f60209050601f8311600181146118d7575f84156118c5578287015190505b6118cf8582611854565b865550611936565b601f1984166118e5866116db565b5f5b8281101561190c578489015182556001820191506020850194506020810190506118e7565b868310156119295784890151611925601f891682611838565b8355505b6001600288020188555050505b505050505050565b5f819050919050565b5f61196161195c6119578461193e565b611373565b610f86565b9050919050565b61197181611947565b82525050565b5f6101008201905061198b5f83018b6113f6565b611998602083018a61109c565b6119a560408301896113e7565b6119b260608301886113e7565b6119bf60808301876113f6565b6119cc60a0830186611968565b81810360c08301526119de8185611447565b905081810360e08301526119f28184611447565b90509998505050505050505050565b7f537761702068617320616c7265616479206265656e20657865637574656421005f82015250565b5f611a35601f8361140f565b9150611a4082611a01565b602082019050919050565b5f6020820190508181035f830152611a6281611a29565b9050919050565b7f4e6f206164647265737320666f7220696e70757420746f6b656e2100000000005f82015250565b5f611a9d601b8361140f565b9150611aa882611a69565b602082019050919050565b5f6020820190508181035f830152611aca81611a91565b9050919050565b7f4e6f206164647265737320666f72206f757470757420746f6b656e21000000005f82015250565b5f611b05601c8361140f565b9150611b1082611ad1565b602082019050919050565b5f6020820190508181035f830152611b3281611af9565b9050919050565b611b4281611003565b82525050565b5f62ffffff82169050919050565b611b5f81611b48565b82525050565b611b6e81610f86565b82525050565b611b7d81610fe4565b82525050565b61010082015f820151611b985f850182611b39565b506020820151611bab6020850182611b39565b506040820151611bbe6040850182611b56565b506060820151611bd16060850182611b39565b506080820151611be46080850182611b65565b5060a0820151611bf760a0850182611b65565b5060c0820151611c0a60c0850182611b65565b5060e0820151611c1d60e0850182611b74565b50505050565b5f61010082019050611c375f830184611b83565b92915050565b5f604082019050611c505f8301856113f6565b611c5d60208301846113f6565b9392505050565b5f81519050919050565b5f81905092915050565b5f611c8282611c64565b611c8c8185611c6e565b9350611c9c81856020860161141f565b80840191505092915050565b5f611cb38284611c78565b915081905092915050565b7f53410000000000000000000000000000000000000000000000000000000000005f82015250565b5f611cf260028361140f565b9150611cfd82611cbe565b602082019050919050565b5f6020820190508181035f830152611d1f81611ce6565b905091905056fea26469706673582212202b21ede28efd973a00f5c992fba45c71e00d426794896fa0db79265066440edd64736f6c63430008140033",
					"opcodes": "PUSH1 0xA0 PUSH1 0x40 MSTORE CALLVALUE DUP1 ISZERO PUSH3 0x10 JUMPI PUSH0 DUP1 REVERT JUMPDEST POP PUSH1 0x40 MLOAD PUSH3 0x1F75 CODESIZE SUB DUP1 PUSH3 0x1F75 DUP4 CODECOPY DUP2 DUP2 ADD PUSH1 0x40 MSTORE DUP2 ADD SWAP1 PUSH3 0x36 SWAP2 SWAP1 PUSH3 0x1AD JUMP JUMPDEST DUP2 PUSH20 0xFFFFFFFFFFFFFFFFFFFFFFFFFFFFFFFFFFFFFFFF AND PUSH1 0x80 DUP2 PUSH20 0xFFFFFFFFFFFFFFFFFFFFFFFFFFFFFFFFFFFFFFFF AND DUP2 MSTORE POP POP CALLER PUSH0 DUP1 PUSH2 0x100 EXP DUP2 SLOAD DUP2 PUSH20 0xFFFFFFFFFFFFFFFFFFFFFFFFFFFFFFFFFFFFFFFF MUL NOT AND SWAP1 DUP4 PUSH20 0xFFFFFFFFFFFFFFFFFFFFFFFFFFFFFFFFFFFFFFFF AND MUL OR SWAP1 SSTORE POP PUSH1 0x1 PUSH1 0x3 PUSH0 DUP4 PUSH20 0xFFFFFFFFFFFFFFFFFFFFFFFFFFFFFFFFFFFFFFFF AND PUSH20 0xFFFFFFFFFFFFFFFFFFFFFFFFFFFFFFFFFFFFFFFF AND DUP2 MSTORE PUSH1 0x20 ADD SWAP1 DUP2 MSTORE PUSH1 0x20 ADD PUSH0 KECCAK256 PUSH0 PUSH2 0x100 EXP DUP2 SLOAD DUP2 PUSH1 0xFF MUL NOT AND SWAP1 DUP4 ISZERO ISZERO MUL OR SWAP1 SSTORE POP POP POP PUSH3 0x1F2 JUMP JUMPDEST PUSH0 DUP1 REVERT JUMPDEST PUSH0 PUSH20 0xFFFFFFFFFFFFFFFFFFFFFFFFFFFFFFFFFFFFFFFF DUP3 AND SWAP1 POP SWAP2 SWAP1 POP JUMP JUMPDEST PUSH0 PUSH3 0x135 DUP3 PUSH3 0x10A JUMP JUMPDEST SWAP1 POP SWAP2 SWAP1 POP JUMP JUMPDEST PUSH0 PUSH3 0x148 DUP3 PUSH3 0x129 JUMP JUMPDEST SWAP1 POP SWAP2 SWAP1 POP JUMP JUMPDEST PUSH3 0x15A DUP2 PUSH3 0x13C JUMP JUMPDEST DUP2 EQ PUSH3 0x165 JUMPI PUSH0 DUP1 REVERT JUMPDEST POP JUMP JUMPDEST PUSH0 DUP2 MLOAD SWAP1 POP PUSH3 0x178 DUP2 PUSH3 0x14F JUMP JUMPDEST SWAP3 SWAP2 POP POP JUMP JUMPDEST PUSH3 0x189 DUP2 PUSH3 0x129 JUMP JUMPDEST DUP2 EQ PUSH3 0x194 JUMPI PUSH0 DUP1 REVERT JUMPDEST POP JUMP JUMPDEST PUSH0 DUP2 MLOAD SWAP1 POP PUSH3 0x1A7 DUP2 PUSH3 0x17E JUMP JUMPDEST SWAP3 SWAP2 POP POP JUMP JUMPDEST PUSH0 DUP1 PUSH1 0x40 DUP4 DUP6 SUB SLT ISZERO PUSH3 0x1C6 JUMPI PUSH3 0x1C5 PUSH3 0x106 JUMP JUMPDEST JUMPDEST PUSH0 PUSH3 0x1D5 DUP6 DUP3 DUP7 ADD PUSH3 0x168 JUMP JUMPDEST SWAP3 POP POP PUSH1 0x20 PUSH3 0x1E8 DUP6 DUP3 DUP7 ADD PUSH3 0x197 JUMP JUMPDEST SWAP2 POP POP SWAP3 POP SWAP3 SWAP1 POP JUMP JUMPDEST PUSH1 0x80 MLOAD PUSH2 0x1D5C PUSH3 0x219 PUSH0 CODECOPY PUSH0 DUP2 DUP2 PUSH2 0xA6A ADD MSTORE DUP2 DUP2 PUSH2 0xB55 ADD MSTORE PUSH2 0xC84 ADD MSTORE PUSH2 0x1D5C PUSH0 RETURN INVALID PUSH1 0x80 PUSH1 0x40 MSTORE CALLVALUE DUP1 ISZERO PUSH2 0xF JUMPI PUSH0 DUP1 REVERT JUMPDEST POP PUSH1 0x4 CALLDATASIZE LT PUSH2 0x91 JUMPI PUSH0 CALLDATALOAD PUSH1 0xE0 SHR DUP1 PUSH4 0x78F9C863 GT PUSH2 0x64 JUMPI DUP1 PUSH4 0x78F9C863 EQ PUSH2 0x12D JUMPI DUP1 PUSH4 0x8DA5CB5B EQ PUSH2 0x149 JUMPI DUP1 PUSH4 0xA9AB232B EQ PUSH2 0x167 JUMPI DUP1 PUSH4 0xC31C9C07 EQ PUSH2 0x183 JUMPI DUP1 PUSH4 0xF09C5829 EQ PUSH2 0x1A1 JUMPI PUSH2 0x91 JUMP JUMPDEST DUP1 PUSH4 0x4F64B2BE EQ PUSH2 0x95 JUMPI DUP1 PUSH4 0x51CFF8D9 EQ PUSH2 0xC5 JUMPI DUP1 PUSH4 0x5300F841 EQ PUSH2 0xE1 JUMPI DUP1 PUSH4 0x57016B0A EQ PUSH2 0x111 JUMPI JUMPDEST PUSH0 DUP1 REVERT JUMPDEST PUSH2 0xAF PUSH1 0x4 DUP1 CALLDATASIZE SUB DUP2 ADD SWAP1 PUSH2 0xAA SWAP2 SWAP1 PUSH2 0xFB9 JUMP JUMPDEST PUSH2 0x1D8 JUMP JUMPDEST PUSH1 0x40 MLOAD PUSH2 0xBC SWAP2 SWAP1 PUSH2 0x1023 JUMP JUMPDEST PUSH1 0x40 MLOAD DUP1 SWAP2 SUB SWAP1 RETURN JUMPDEST PUSH2 0xDF PUSH1 0x4 DUP1 CALLDATASIZE SUB DUP2 ADD SWAP1 PUSH2 0xDA SWAP2 SWAP1 PUSH2 0x1066 JUMP JUMPDEST PUSH2 0x208 JUMP JUMPDEST STOP JUMPDEST PUSH2 0xFB PUSH1 0x4 DUP1 CALLDATASIZE SUB DUP2 ADD SWAP1 PUSH2 0xF6 SWAP2 SWAP1 PUSH2 0x1066 JUMP JUMPDEST PUSH2 0x464 JUMP JUMPDEST PUSH1 0x40 MLOAD PUSH2 0x108 SWAP2 SWAP1 PUSH2 0x10AB JUMP JUMPDEST PUSH1 0x40 MLOAD DUP1 SWAP2 SUB SWAP1 RETURN JUMPDEST PUSH2 0x12B PUSH1 0x4 DUP1 CALLDATASIZE SUB DUP2 ADD SWAP1 PUSH2 0x126 SWAP2 SWAP1 PUSH2 0x10C4 JUMP JUMPDEST PUSH2 0x481 JUMP JUMPDEST STOP JUMPDEST PUSH2 0x147 PUSH1 0x4 DUP1 CALLDATASIZE SUB DUP2 ADD SWAP1 PUSH2 0x142 SWAP2 SWAP1 PUSH2 0x129E JUMP JUMPDEST PUSH2 0x5B9 JUMP JUMPDEST STOP JUMPDEST PUSH2 0x151 PUSH2 0x856 JUMP JUMPDEST PUSH1 0x40 MLOAD PUSH2 0x15E SWAP2 SWAP1 PUSH2 0x1023 JUMP JUMPDEST PUSH1 0x40 MLOAD DUP1 SWAP2 SUB SWAP1 RETURN JUMPDEST PUSH2 0x181 PUSH1 0x4 DUP1 CALLDATASIZE SUB DUP2 ADD SWAP1 PUSH2 0x17C SWAP2 SWAP1 PUSH2 0xFB9 JUMP JUMPDEST PUSH2 0x879 JUMP JUMPDEST STOP JUMPDEST PUSH2 0x18B PUSH2 0xC82 JUMP JUMPDEST PUSH1 0x40 MLOAD PUSH2 0x198 SWAP2 SWAP1 PUSH2 0x13CE JUMP JUMPDEST PUSH1 0x40 MLOAD DUP1 SWAP2 SUB SWAP1 RETURN JUMPDEST PUSH2 0x1BB PUSH1 0x4 DUP1 CALLDATASIZE SUB DUP2 ADD SWAP1 PUSH2 0x1B6 SWAP2 SWAP1 PUSH2 0xFB9 JUMP JUMPDEST PUSH2 0xCA6 JUMP JUMPDEST PUSH1 0x40 MLOAD PUSH2 0x1CF SWAP9 SWAP8 SWAP7 SWAP6 SWAP5 SWAP4 SWAP3 SWAP2 SWAP1 PUSH2 0x147F JUMP JUMPDEST PUSH1 0x40 MLOAD DUP1 SWAP2 SUB SWAP1 RETURN JUMPDEST PUSH1 0x2 PUSH1 0x20 MSTORE DUP1 PUSH0 MSTORE PUSH1 0x40 PUSH0 KECCAK256 PUSH0 SWAP2 POP SLOAD SWAP1 PUSH2 0x100 EXP SWAP1 DIV PUSH20 0xFFFFFFFFFFFFFFFFFFFFFFFFFFFFFFFFFFFFFFFF AND DUP2 JUMP JUMPDEST PUSH1 0x1 ISZERO ISZERO PUSH1 0x3 PUSH0 CALLER PUSH20 0xFFFFFFFFFFFFFFFFFFFFFFFFFFFFFFFFFFFFFFFF AND PUSH20 0xFFFFFFFFFFFFFFFFFFFFFFFFFFFFFFFFFFFFFFFF AND DUP2 MSTORE PUSH1 0x20 ADD SWAP1 DUP2 MSTORE PUSH1 0x20 ADD PUSH0 KECCAK256 PUSH0 SWAP1 SLOAD SWAP1 PUSH2 0x100 EXP SWAP1 DIV PUSH1 0xFF AND ISZERO ISZERO EQ DUP1 PUSH2 0x2AE JUMPI POP PUSH0 DUP1 SLOAD SWAP1 PUSH2 0x100 EXP SWAP1 DIV PUSH20 0xFFFFFFFFFFFFFFFFFFFFFFFFFFFFFFFFFFFFFFFF AND PUSH20 0xFFFFFFFFFFFFFFFFFFFFFFFFFFFFFFFFFFFFFFFF AND CALLER PUSH20 0xFFFFFFFFFFFFFFFFFFFFFFFFFFFFFFFFFFFFFFFF AND EQ JUMPDEST PUSH2 0x2ED JUMPI PUSH1 0x40 MLOAD PUSH32 0x8C379A000000000000000000000000000000000000000000000000000000000 DUP2 MSTORE PUSH1 0x4 ADD PUSH2 0x2E4 SWAP1 PUSH2 0x1553 JUMP JUMPDEST PUSH1 0x40 MLOAD DUP1 SWAP2 SUB SWAP1 REVERT JUMPDEST PUSH0 DUP2 PUSH20 0xFFFFFFFFFFFFFFFFFFFFFFFFFFFFFFFFFFFFFFFF AND PUSH4 0x70A08231 ADDRESS PUSH1 0x40 MLOAD DUP3 PUSH4 0xFFFFFFFF AND PUSH1 0xE0 SHL DUP2 MSTORE PUSH1 0x4 ADD PUSH2 0x327 SWAP2 SWAP1 PUSH2 0x1023 JUMP JUMPDEST PUSH1 0x20 PUSH1 0x40 MLOAD DUP1 DUP4 SUB DUP2 DUP7 GAS STATICCALL ISZERO DUP1 ISZERO PUSH2 0x342 JUMPI RETURNDATASIZE PUSH0 DUP1 RETURNDATACOPY RETURNDATASIZE PUSH0 REVERT JUMPDEST POP POP POP POP PUSH1 0x40 MLOAD RETURNDATASIZE PUSH1 0x1F NOT PUSH1 0x1F DUP3 ADD AND DUP3 ADD DUP1 PUSH1 0x40 MSTORE POP DUP2 ADD SWAP1 PUSH2 0x366 SWAP2 SWAP1 PUSH2 0x1585 JUMP JUMPDEST SWAP1 POP DUP2 PUSH20 0xFFFFFFFFFFFFFFFFFFFFFFFFFFFFFFFFFFFFFFFF AND PUSH4 0x95EA7B3 ADDRESS DUP4 PUSH1 0x40 MLOAD DUP4 PUSH4 0xFFFFFFFF AND PUSH1 0xE0 SHL DUP2 MSTORE PUSH1 0x4 ADD PUSH2 0x3A3 SWAP3 SWAP2 SWAP1 PUSH2 0x15B0 JUMP JUMPDEST PUSH1 0x20 PUSH1 0x40 MLOAD DUP1 DUP4 SUB DUP2 PUSH0 DUP8 GAS CALL ISZERO DUP1 ISZERO PUSH2 0x3BF JUMPI RETURNDATASIZE PUSH0 DUP1 RETURNDATACOPY RETURNDATASIZE PUSH0 REVERT JUMPDEST POP POP POP POP PUSH1 0x40 MLOAD RETURNDATASIZE PUSH1 0x1F NOT PUSH1 0x1F DUP3 ADD AND DUP3 ADD DUP1 PUSH1 0x40 MSTORE POP DUP2 ADD SWAP1 PUSH2 0x3E3 SWAP2 SWAP1 PUSH2 0x15EB JUMP JUMPDEST POP DUP2 PUSH20 0xFFFFFFFFFFFFFFFFFFFFFFFFFFFFFFFFFFFFFFFF AND PUSH4 0xA9059CBB CALLER DUP4 PUSH1 0x40 MLOAD DUP4 PUSH4 0xFFFFFFFF AND PUSH1 0xE0 SHL DUP2 MSTORE PUSH1 0x4 ADD PUSH2 0x41F SWAP3 SWAP2 SWAP1 PUSH2 0x15B0 JUMP JUMPDEST PUSH1 0x20 PUSH1 0x40 MLOAD DUP1 DUP4 SUB DUP2 PUSH0 DUP8 GAS CALL ISZERO DUP1 ISZERO PUSH2 0x43B JUMPI RETURNDATASIZE PUSH0 DUP1 RETURNDATACOPY RETURNDATASIZE PUSH0 REVERT JUMPDEST POP POP POP POP PUSH1 0x40 MLOAD RETURNDATASIZE PUSH1 0x1F NOT PUSH1 0x1F DUP3 ADD AND DUP3 ADD DUP1 PUSH1 0x40 MSTORE POP DUP2 ADD SWAP1 PUSH2 0x45F SWAP2 SWAP1 PUSH2 0x15EB JUMP JUMPDEST POP POP POP JUMP JUMPDEST PUSH1 0x3 PUSH1 0x20 MSTORE DUP1 PUSH0 MSTORE PUSH1 0x40 PUSH0 KECCAK256 PUSH0 SWAP2 POP SLOAD SWAP1 PUSH2 0x100 EXP SWAP1 DIV PUSH1 0xFF AND DUP2 JUMP JUMPDEST PUSH1 0x1 ISZERO ISZERO PUSH1 0x3 PUSH0 CALLER PUSH20 0xFFFFFFFFFFFFFFFFFFFFFFFFFFFFFFFFFFFFFFFF AND PUSH20 0xFFFFFFFFFFFFFFFFFFFFFFFFFFFFFFFFFFFFFFFF AND DUP2 MSTORE PUSH1 0x20 ADD SWAP1 DUP2 MSTORE PUSH1 0x20 ADD PUSH0 KECCAK256 PUSH0 SWAP1 SLOAD SWAP1 PUSH2 0x100 EXP SWAP1 DIV PUSH1 0xFF AND ISZERO ISZERO EQ DUP1 PUSH2 0x527 JUMPI POP PUSH0 DUP1 SLOAD SWAP1 PUSH2 0x100 EXP SWAP1 DIV PUSH20 0xFFFFFFFFFFFFFFFFFFFFFFFFFFFFFFFFFFFFFFFF AND PUSH20 0xFFFFFFFFFFFFFFFFFFFFFFFFFFFFFFFFFFFFFFFF AND CALLER PUSH20 0xFFFFFFFFFFFFFFFFFFFFFFFFFFFFFFFFFFFFFFFF AND EQ JUMPDEST PUSH2 0x566 JUMPI PUSH1 0x40 MLOAD PUSH32 0x8C379A000000000000000000000000000000000000000000000000000000000 DUP2 MSTORE PUSH1 0x4 ADD PUSH2 0x55D SWAP1 PUSH2 0x1553 JUMP JUMPDEST PUSH1 0x40 MLOAD DUP1 SWAP2 SUB SWAP1 REVERT JUMPDEST DUP1 PUSH1 0x2 PUSH0 DUP5 DUP2 MSTORE PUSH1 0x20 ADD SWAP1 DUP2 MSTORE PUSH1 0x20 ADD PUSH0 KECCAK256 PUSH0 PUSH2 0x100 EXP DUP2 SLOAD DUP2 PUSH20 0xFFFFFFFFFFFFFFFFFFFFFFFFFFFFFFFFFFFFFFFF MUL NOT AND SWAP1 DUP4 PUSH20 0xFFFFFFFFFFFFFFFFFFFFFFFFFFFFFFFFFFFFFFFF AND MUL OR SWAP1 SSTORE POP POP POP JUMP JUMPDEST PUSH1 0x1 ISZERO ISZERO PUSH1 0x3 PUSH0 CALLER PUSH20 0xFFFFFFFFFFFFFFFFFFFFFFFFFFFFFFFFFFFFFFFF AND PUSH20 0xFFFFFFFFFFFFFFFFFFFFFFFFFFFFFFFFFFFFFFFF AND DUP2 MSTORE PUSH1 0x20 ADD SWAP1 DUP2 MSTORE PUSH1 0x20 ADD PUSH0 KECCAK256 PUSH0 SWAP1 SLOAD SWAP1 PUSH2 0x100 EXP SWAP1 DIV PUSH1 0xFF AND ISZERO ISZERO EQ DUP1 PUSH2 0x65F JUMPI POP PUSH0 DUP1 SLOAD SWAP1 PUSH2 0x100 EXP SWAP1 DIV PUSH20 0xFFFFFFFFFFFFFFFFFFFFFFFFFFFFFFFFFFFFFFFF AND PUSH20 0xFFFFFFFFFFFFFFFFFFFFFFFFFFFFFFFFFFFFFFFF AND CALLER PUSH20 0xFFFFFFFFFFFFFFFFFFFFFFFFFFFFFFFFFFFFFFFF AND EQ JUMPDEST PUSH2 0x69E JUMPI PUSH1 0x40 MLOAD PUSH32 0x8C379A000000000000000000000000000000000000000000000000000000000 DUP2 MSTORE PUSH1 0x4 ADD PUSH2 0x695 SWAP1 PUSH2 0x1553 JUMP JUMPDEST PUSH1 0x40 MLOAD DUP1 SWAP2 SUB SWAP1 REVERT JUMPDEST PUSH0 PUSH1 0x1 PUSH0 DUP10 DUP2 MSTORE PUSH1 0x20 ADD SWAP1 DUP2 MSTORE PUSH1 0x20 ADD PUSH0 KECCAK256 PUSH1 0x1 ADD SLOAD EQ PUSH2 0x6F4 JUMPI PUSH1 0x40 MLOAD PUSH32 0x8C379A000000000000000000000000000000000000000000000000000000000 DUP2 MSTORE PUSH1 0x4 ADD PUSH2 0x6EB SWAP1 PUSH2 0x1660 JUMP JUMPDEST PUSH1 0x40 MLOAD DUP1 SWAP2 SUB SWAP1 REVERT JUMPDEST PUSH1 0x40 MLOAD DUP1 PUSH2 0x100 ADD PUSH1 0x40 MSTORE DUP1 DUP8 ISZERO ISZERO DUP2 MSTORE PUSH1 0x20 ADD DUP7 PUSH1 0xFF AND DUP2 MSTORE PUSH1 0x20 ADD DUP6 PUSH1 0xFF AND DUP2 MSTORE PUSH1 0x20 ADD DUP5 DUP2 MSTORE PUSH1 0x20 ADD PUSH0 DUP2 MSTORE PUSH1 0x20 ADD DUP4 DUP2 MSTORE PUSH1 0x20 ADD DUP3 DUP2 MSTORE PUSH1 0x20 ADD PUSH0 ISZERO ISZERO DUP2 MSTORE POP PUSH1 0x1 PUSH0 DUP10 DUP2 MSTORE PUSH1 0x20 ADD SWAP1 DUP2 MSTORE PUSH1 0x20 ADD PUSH0 KECCAK256 PUSH0 DUP3 ADD MLOAD DUP2 PUSH0 ADD PUSH0 PUSH2 0x100 EXP DUP2 SLOAD DUP2 PUSH1 0xFF MUL NOT AND SWAP1 DUP4 ISZERO ISZERO MUL OR SWAP1 SSTORE POP PUSH1 0x20 DUP3 ADD MLOAD DUP2 PUSH0 ADD PUSH1 0x1 PUSH2 0x100 EXP DUP2 SLOAD DUP2 PUSH1 0xFF MUL NOT AND SWAP1 DUP4 PUSH1 0xFF AND MUL OR SWAP1 SSTORE POP PUSH1 0x40 DUP3 ADD MLOAD DUP2 PUSH0 ADD PUSH1 0x2 PUSH2 0x100 EXP DUP2 SLOAD DUP2 PUSH1 0xFF MUL NOT AND SWAP1 DUP4 PUSH1 0xFF AND MUL OR SWAP1 SSTORE POP PUSH1 0x60 DUP3 ADD MLOAD DUP2 PUSH1 0x1 ADD SSTORE PUSH1 0x80 DUP3 ADD MLOAD DUP2 PUSH1 0x2 ADD SSTORE PUSH1 0xA0 DUP3 ADD MLOAD DUP2 PUSH1 0x3 ADD SWAP1 DUP2 PUSH2 0x7CF SWAP2 SWAP1 PUSH2 0x186F JUMP JUMPDEST POP PUSH1 0xC0 DUP3 ADD MLOAD DUP2 PUSH1 0x4 ADD SWAP1 DUP2 PUSH2 0x7E5 SWAP2 SWAP1 PUSH2 0x186F JUMP JUMPDEST POP PUSH1 0xE0 DUP3 ADD MLOAD DUP2 PUSH1 0x5 ADD PUSH0 PUSH2 0x100 EXP DUP2 SLOAD DUP2 PUSH1 0xFF MUL NOT AND SWAP1 DUP4 ISZERO ISZERO MUL OR SWAP1 SSTORE POP SWAP1 POP POP PUSH32 0x71E12B7C2304C92CC1E5751D94104C17C7D8A149F83020DA78443FDB59F72E6E DUP8 DUP8 DUP8 DUP8 DUP8 PUSH0 DUP9 DUP9 PUSH1 0x40 MLOAD PUSH2 0x845 SWAP9 SWAP8 SWAP7 SWAP6 SWAP5 SWAP4 SWAP3 SWAP2 SWAP1 PUSH2 0x1977 JUMP JUMPDEST PUSH1 0x40 MLOAD DUP1 SWAP2 SUB SWAP1 LOG1 POP POP POP POP POP POP POP JUMP JUMPDEST PUSH0 DUP1 SLOAD SWAP1 PUSH2 0x100 EXP SWAP1 DIV PUSH20 0xFFFFFFFFFFFFFFFFFFFFFFFFFFFFFFFFFFFFFFFF AND DUP2 JUMP JUMPDEST PUSH1 0x1 PUSH0 DUP3 DUP2 MSTORE PUSH1 0x20 ADD SWAP1 DUP2 MSTORE PUSH1 0x20 ADD PUSH0 KECCAK256 PUSH1 0x5 ADD PUSH0 SWAP1 SLOAD SWAP1 PUSH2 0x100 EXP SWAP1 DIV PUSH1 0xFF AND ISZERO PUSH2 0x8DA JUMPI PUSH1 0x40 MLOAD PUSH32 0x8C379A000000000000000000000000000000000000000000000000000000000 DUP2 MSTORE PUSH1 0x4 ADD PUSH2 0x8D1 SWAP1 PUSH2 0x1A4B JUMP JUMPDEST PUSH1 0x40 MLOAD DUP1 SWAP2 SUB SWAP1 REVERT JUMPDEST PUSH0 PUSH1 0x2 PUSH0 PUSH1 0x1 PUSH0 DUP6 DUP2 MSTORE PUSH1 0x20 ADD SWAP1 DUP2 MSTORE PUSH1 0x20 ADD PUSH0 KECCAK256 PUSH0 ADD PUSH1 0x1 SWAP1 SLOAD SWAP1 PUSH2 0x100 EXP SWAP1 DIV PUSH1 0xFF AND PUSH1 0xFF AND DUP2 MSTORE PUSH1 0x20 ADD SWAP1 DUP2 MSTORE PUSH1 0x20 ADD PUSH0 KECCAK256 PUSH0 SWAP1 SLOAD SWAP1 PUSH2 0x100 EXP SWAP1 DIV PUSH20 0xFFFFFFFFFFFFFFFFFFFFFFFFFFFFFFFFFFFFFFFF AND SWAP1 POP PUSH0 PUSH1 0x2 PUSH0 PUSH1 0x1 PUSH0 DUP7 DUP2 MSTORE PUSH1 0x20 ADD SWAP1 DUP2 MSTORE PUSH1 0x20 ADD PUSH0 KECCAK256 PUSH0 ADD PUSH1 0x2 SWAP1 SLOAD SWAP1 PUSH2 0x100 EXP SWAP1 DIV PUSH1 0xFF AND PUSH1 0xFF AND DUP2 MSTORE PUSH1 0x20 ADD SWAP1 DUP2 MSTORE PUSH1 0x20 ADD PUSH0 KECCAK256 PUSH0 SWAP1 SLOAD SWAP1 PUSH2 0x100 EXP SWAP1 DIV PUSH20 0xFFFFFFFFFFFFFFFFFFFFFFFFFFFFFFFFFFFFFFFF AND SWAP1 POP PUSH0 PUSH20 0xFFFFFFFFFFFFFFFFFFFFFFFFFFFFFFFFFFFFFFFF AND DUP3 PUSH20 0xFFFFFFFFFFFFFFFFFFFFFFFFFFFFFFFFFFFFFFFF AND SUB PUSH2 0x9F6 JUMPI PUSH1 0x40 MLOAD PUSH32 0x8C379A000000000000000000000000000000000000000000000000000000000 DUP2 MSTORE PUSH1 0x4 ADD PUSH2 0x9ED SWAP1 PUSH2 0x1AB3 JUMP JUMPDEST PUSH1 0x40 MLOAD DUP1 SWAP2 SUB SWAP1 REVERT JUMPDEST PUSH0 PUSH20 0xFFFFFFFFFFFFFFFFFFFFFFFFFFFFFFFFFFFFFFFF AND DUP2 PUSH20 0xFFFFFFFFFFFFFFFFFFFFFFFFFFFFFFFFFFFFFFFF AND SUB PUSH2 0xA64 JUMPI PUSH1 0x40 MLOAD PUSH32 0x8C379A000000000000000000000000000000000000000000000000000000000 DUP2 MSTORE PUSH1 0x4 ADD PUSH2 0xA5B SWAP1 PUSH2 0x1B1B JUMP JUMPDEST PUSH1 0x40 MLOAD DUP1 SWAP2 SUB SWAP1 REVERT JUMPDEST PUSH2 0xAA3 DUP3 PUSH32 0x0 PUSH1 0x1 PUSH0 DUP8 DUP2 MSTORE PUSH1 0x20 ADD SWAP1 DUP2 MSTORE PUSH1 0x20 ADD PUSH0 KECCAK256 PUSH1 0x1 ADD SLOAD PUSH2 0xE26 JUMP JUMPDEST PUSH0 PUSH1 0x40 MLOAD DUP1 PUSH2 0x100 ADD PUSH1 0x40 MSTORE DUP1 DUP5 PUSH20 0xFFFFFFFFFFFFFFFFFFFFFFFFFFFFFFFFFFFFFFFF AND DUP2 MSTORE PUSH1 0x20 ADD DUP4 PUSH20 0xFFFFFFFFFFFFFFFFFFFFFFFFFFFFFFFFFFFFFFFF AND DUP2 MSTORE PUSH1 0x20 ADD PUSH2 0xBB8 PUSH3 0xFFFFFF AND DUP2 MSTORE PUSH1 0x20 ADD ADDRESS PUSH20 0xFFFFFFFFFFFFFFFFFFFFFFFFFFFFFFFFFFFFFFFF AND DUP2 MSTORE PUSH1 0x20 ADD TIMESTAMP DUP2 MSTORE PUSH1 0x20 ADD PUSH1 0x1 PUSH0 DUP8 DUP2 MSTORE PUSH1 0x20 ADD SWAP1 DUP2 MSTORE PUSH1 0x20 ADD PUSH0 KECCAK256 PUSH1 0x1 ADD SLOAD DUP2 MSTORE PUSH1 0x20 ADD PUSH0 DUP2 MSTORE PUSH1 0x20 ADD PUSH0 PUSH20 0xFFFFFFFFFFFFFFFFFFFFFFFFFFFFFFFFFFFFFFFF AND DUP2 MSTORE POP SWAP1 POP PUSH32 0x0 PUSH20 0xFFFFFFFFFFFFFFFFFFFFFFFFFFFFFFFFFFFFFFFF AND PUSH4 0x414BF389 DUP3 PUSH1 0x40 MLOAD DUP3 PUSH4 0xFFFFFFFF AND PUSH1 0xE0 SHL DUP2 MSTORE PUSH1 0x4 ADD PUSH2 0xBAC SWAP2 SWAP1 PUSH2 0x1C23 JUMP JUMPDEST PUSH1 0x20 PUSH1 0x40 MLOAD DUP1 DUP4 SUB DUP2 PUSH0 DUP8 GAS CALL ISZERO DUP1 ISZERO PUSH2 0xBC8 JUMPI RETURNDATASIZE PUSH0 DUP1 RETURNDATACOPY RETURNDATASIZE PUSH0 REVERT JUMPDEST POP POP POP POP PUSH1 0x40 MLOAD RETURNDATASIZE PUSH1 0x1F NOT PUSH1 0x1F DUP3 ADD AND DUP3 ADD DUP1 PUSH1 0x40 MSTORE POP DUP2 ADD SWAP1 PUSH2 0xBEC SWAP2 SWAP1 PUSH2 0x1585 JUMP JUMPDEST PUSH1 0x1 PUSH0 DUP7 DUP2 MSTORE PUSH1 0x20 ADD SWAP1 DUP2 MSTORE PUSH1 0x20 ADD PUSH0 KECCAK256 PUSH1 0x2 ADD DUP2 SWAP1 SSTORE POP PUSH32 0x4F73E5828387C436EF01A51B03853873E76D7A5551556837D452CBEB6F285CB5 DUP5 PUSH1 0x1 PUSH0 DUP8 DUP2 MSTORE PUSH1 0x20 ADD SWAP1 DUP2 MSTORE PUSH1 0x20 ADD PUSH0 KECCAK256 PUSH1 0x2 ADD SLOAD PUSH1 0x40 MLOAD PUSH2 0xC49 SWAP3 SWAP2 SWAP1 PUSH2 0x1C3D JUMP JUMPDEST PUSH1 0x40 MLOAD DUP1 SWAP2 SUB SWAP1 LOG1 PUSH1 0x1 DUP1 PUSH0 DUP7 DUP2 MSTORE PUSH1 0x20 ADD SWAP1 DUP2 MSTORE PUSH1 0x20 ADD PUSH0 KECCAK256 PUSH1 0x5 ADD PUSH0 PUSH2 0x100 EXP DUP2 SLOAD DUP2 PUSH1 0xFF MUL NOT AND SWAP1 DUP4 ISZERO ISZERO MUL OR SWAP1 SSTORE POP POP POP POP POP JUMP JUMPDEST PUSH32 0x0 DUP2 JUMP JUMPDEST PUSH1 0x1 PUSH1 0x20 MSTORE DUP1 PUSH0 MSTORE PUSH1 0x40 PUSH0 KECCAK256 PUSH0 SWAP2 POP SWAP1 POP DUP1 PUSH0 ADD PUSH0 SWAP1 SLOAD SWAP1 PUSH2 0x100 EXP SWAP1 DIV PUSH1 0xFF AND SWAP1 DUP1 PUSH0 ADD PUSH1 0x1 SWAP1 SLOAD SWAP1 PUSH2 0x100 EXP SWAP1 DIV PUSH1 0xFF AND SWAP1 DUP1 PUSH0 ADD PUSH1 0x2 SWAP1 SLOAD SWAP1 PUSH2 0x100 EXP SWAP1 DIV PUSH1 0xFF AND SWAP1 DUP1 PUSH1 0x1 ADD SLOAD SWAP1 DUP1 PUSH1 0x2 ADD SLOAD SWAP1 DUP1 PUSH1 0x3 ADD DUP1 SLOAD PUSH2 0xD07 SWAP1 PUSH2 0x16AB JUMP JUMPDEST DUP1 PUSH1 0x1F ADD PUSH1 0x20 DUP1 SWAP2 DIV MUL PUSH1 0x20 ADD PUSH1 0x40 MLOAD SWAP1 DUP2 ADD PUSH1 0x40 MSTORE DUP1 SWAP3 SWAP2 SWAP1 DUP2 DUP2 MSTORE PUSH1 0x20 ADD DUP3 DUP1 SLOAD PUSH2 0xD33 SWAP1 PUSH2 0x16AB JUMP JUMPDEST DUP1 ISZERO PUSH2 0xD7E JUMPI DUP1 PUSH1 0x1F LT PUSH2 0xD55 JUMPI PUSH2 0x100 DUP1 DUP4 SLOAD DIV MUL DUP4 MSTORE SWAP2 PUSH1 0x20 ADD SWAP2 PUSH2 0xD7E JUMP JUMPDEST DUP3 ADD SWAP2 SWAP1 PUSH0 MSTORE PUSH1 0x20 PUSH0 KECCAK256 SWAP1 JUMPDEST DUP2 SLOAD DUP2 MSTORE SWAP1 PUSH1 0x1 ADD SWAP1 PUSH1 0x20 ADD DUP1 DUP4 GT PUSH2 0xD61 JUMPI DUP3 SWAP1 SUB PUSH1 0x1F AND DUP3 ADD SWAP2 JUMPDEST POP POP POP POP POP SWAP1 DUP1 PUSH1 0x4 ADD DUP1 SLOAD PUSH2 0xD93 SWAP1 PUSH2 0x16AB JUMP JUMPDEST DUP1 PUSH1 0x1F ADD PUSH1 0x20 DUP1 SWAP2 DIV MUL PUSH1 0x20 ADD PUSH1 0x40 MLOAD SWAP1 DUP2 ADD PUSH1 0x40 MSTORE DUP1 SWAP3 SWAP2 SWAP1 DUP2 DUP2 MSTORE PUSH1 0x20 ADD DUP3 DUP1 SLOAD PUSH2 0xDBF SWAP1 PUSH2 0x16AB JUMP JUMPDEST DUP1 ISZERO PUSH2 0xE0A JUMPI DUP1 PUSH1 0x1F LT PUSH2 0xDE1 JUMPI PUSH2 0x100 DUP1 DUP4 SLOAD DIV MUL DUP4 MSTORE SWAP2 PUSH1 0x20 ADD SWAP2 PUSH2 0xE0A JUMP JUMPDEST DUP3 ADD SWAP2 SWAP1 PUSH0 MSTORE PUSH1 0x20 PUSH0 KECCAK256 SWAP1 JUMPDEST DUP2 SLOAD DUP2 MSTORE SWAP1 PUSH1 0x1 ADD SWAP1 PUSH1 0x20 ADD DUP1 DUP4 GT PUSH2 0xDED JUMPI DUP3 SWAP1 SUB PUSH1 0x1F AND DUP3 ADD SWAP2 JUMPDEST POP POP POP POP POP SWAP1 DUP1 PUSH1 0x5 ADD PUSH0 SWAP1 SLOAD SWAP1 PUSH2 0x100 EXP SWAP1 DIV PUSH1 0xFF AND SWAP1 POP DUP9 JUMP JUMPDEST PUSH0 DUP1 DUP5 PUSH20 0xFFFFFFFFFFFFFFFFFFFFFFFFFFFFFFFFFFFFFFFF AND PUSH4 0x95EA7B3 PUSH1 0xE0 SHL DUP6 DUP6 PUSH1 0x40 MLOAD PUSH1 0x24 ADD PUSH2 0xE5A SWAP3 SWAP2 SWAP1 PUSH2 0x15B0 JUMP JUMPDEST PUSH1 0x40 MLOAD PUSH1 0x20 DUP2 DUP4 SUB SUB DUP2 MSTORE SWAP1 PUSH1 0x40 MSTORE SWAP1 PUSH28 0xFFFFFFFFFFFFFFFFFFFFFFFFFFFFFFFFFFFFFFFFFFFFFFFFFFFFFFFF NOT AND PUSH1 0x20 DUP3 ADD DUP1 MLOAD PUSH28 0xFFFFFFFFFFFFFFFFFFFFFFFFFFFFFFFFFFFFFFFFFFFFFFFFFFFFFFFF DUP4 DUP2 DUP4 AND OR DUP4 MSTORE POP POP POP POP PUSH1 0x40 MLOAD PUSH2 0xEC4 SWAP2 SWAP1 PUSH2 0x1CA8 JUMP JUMPDEST PUSH0 PUSH1 0x40 MLOAD DUP1 DUP4 SUB DUP2 PUSH0 DUP7 GAS CALL SWAP2 POP POP RETURNDATASIZE DUP1 PUSH0 DUP2 EQ PUSH2 0xEFD JUMPI PUSH1 0x40 MLOAD SWAP2 POP PUSH1 0x1F NOT PUSH1 0x3F RETURNDATASIZE ADD AND DUP3 ADD PUSH1 0x40 MSTORE RETURNDATASIZE DUP3 MSTORE RETURNDATASIZE PUSH0 PUSH1 0x20 DUP5 ADD RETURNDATACOPY PUSH2 0xF02 JUMP JUMPDEST PUSH1 0x60 SWAP2 POP JUMPDEST POP SWAP2 POP SWAP2 POP DUP2 DUP1 ISZERO PUSH2 0xF2F JUMPI POP PUSH0 DUP2 MLOAD EQ DUP1 PUSH2 0xF2E JUMPI POP DUP1 DUP1 PUSH1 0x20 ADD SWAP1 MLOAD DUP2 ADD SWAP1 PUSH2 0xF2D SWAP2 SWAP1 PUSH2 0x15EB JUMP JUMPDEST JUMPDEST JUMPDEST PUSH2 0xF6E JUMPI PUSH1 0x40 MLOAD PUSH32 0x8C379A000000000000000000000000000000000000000000000000000000000 DUP2 MSTORE PUSH1 0x4 ADD PUSH2 0xF65 SWAP1 PUSH2 0x1D08 JUMP JUMPDEST PUSH1 0x40 MLOAD DUP1 SWAP2 SUB SWAP1 REVERT JUMPDEST POP POP POP POP POP JUMP JUMPDEST PUSH0 PUSH1 0x40 MLOAD SWAP1 POP SWAP1 JUMP JUMPDEST PUSH0 DUP1 REVERT JUMPDEST PUSH0 DUP1 REVERT JUMPDEST PUSH0 DUP2 SWAP1 POP SWAP2 SWAP1 POP JUMP JUMPDEST PUSH2 0xF98 DUP2 PUSH2 0xF86 JUMP JUMPDEST DUP2 EQ PUSH2 0xFA2 JUMPI PUSH0 DUP1 REVERT JUMPDEST POP JUMP JUMPDEST PUSH0 DUP2 CALLDATALOAD SWAP1 POP PUSH2 0xFB3 DUP2 PUSH2 0xF8F JUMP JUMPDEST SWAP3 SWAP2 POP POP JUMP JUMPDEST PUSH0 PUSH1 0x20 DUP3 DUP5 SUB SLT ISZERO PUSH2 0xFCE JUMPI PUSH2 0xFCD PUSH2 0xF7E JUMP JUMPDEST JUMPDEST PUSH0 PUSH2 0xFDB DUP5 DUP3 DUP6 ADD PUSH2 0xFA5 JUMP JUMPDEST SWAP2 POP POP SWAP3 SWAP2 POP POP JUMP JUMPDEST PUSH0 PUSH20 0xFFFFFFFFFFFFFFFFFFFFFFFFFFFFFFFFFFFFFFFF DUP3 AND SWAP1 POP SWAP2 SWAP1 POP JUMP JUMPDEST PUSH0 PUSH2 0x100D DUP3 PUSH2 0xFE4 JUMP JUMPDEST SWAP1 POP SWAP2 SWAP1 POP JUMP JUMPDEST PUSH2 0x101D DUP2 PUSH2 0x1003 JUMP JUMPDEST DUP3 MSTORE POP POP JUMP JUMPDEST PUSH0 PUSH1 0x20 DUP3 ADD SWAP1 POP PUSH2 0x1036 PUSH0 DUP4 ADD DUP5 PUSH2 0x1014 JUMP JUMPDEST SWAP3 SWAP2 POP POP JUMP JUMPDEST PUSH2 0x1045 DUP2 PUSH2 0x1003 JUMP JUMPDEST DUP2 EQ PUSH2 0x104F JUMPI PUSH0 DUP1 REVERT JUMPDEST POP JUMP JUMPDEST PUSH0 DUP2 CALLDATALOAD SWAP1 POP PUSH2 0x1060 DUP2 PUSH2 0x103C JUMP JUMPDEST SWAP3 SWAP2 POP POP JUMP JUMPDEST PUSH0 PUSH1 0x20 DUP3 DUP5 SUB SLT ISZERO PUSH2 0x107B JUMPI PUSH2 0x107A PUSH2 0xF7E JUMP JUMPDEST JUMPDEST PUSH0 PUSH2 0x1088 DUP5 DUP3 DUP6 ADD PUSH2 0x1052 JUMP JUMPDEST SWAP2 POP POP SWAP3 SWAP2 POP POP JUMP JUMPDEST PUSH0 DUP2 ISZERO ISZERO SWAP1 POP SWAP2 SWAP1 POP JUMP JUMPDEST PUSH2 0x10A5 DUP2 PUSH2 0x1091 JUMP JUMPDEST DUP3 MSTORE POP POP JUMP JUMPDEST PUSH0 PUSH1 0x20 DUP3 ADD SWAP1 POP PUSH2 0x10BE PUSH0 DUP4 ADD DUP5 PUSH2 0x109C JUMP JUMPDEST SWAP3 SWAP2 POP POP JUMP JUMPDEST PUSH0 DUP1 PUSH1 0x40 DUP4 DUP6 SUB SLT ISZERO PUSH2 0x10DA JUMPI PUSH2 0x10D9 PUSH2 0xF7E JUMP JUMPDEST JUMPDEST PUSH0 PUSH2 0x10E7 DUP6 DUP3 DUP7 ADD PUSH2 0xFA5 JUMP JUMPDEST SWAP3 POP POP PUSH1 0x20 PUSH2 0x10F8 DUP6 DUP3 DUP7 ADD PUSH2 0x1052 JUMP JUMPDEST SWAP2 POP POP SWAP3 POP SWAP3 SWAP1 POP JUMP JUMPDEST PUSH2 0x110B DUP2 PUSH2 0x1091 JUMP JUMPDEST DUP2 EQ PUSH2 0x1115 JUMPI PUSH0 DUP1 REVERT JUMPDEST POP JUMP JUMPDEST PUSH0 DUP2 CALLDATALOAD SWAP1 POP PUSH2 0x1126 DUP2 PUSH2 0x1102 JUMP JUMPDEST SWAP3 SWAP2 POP POP JUMP JUMPDEST PUSH0 PUSH1 0xFF DUP3 AND SWAP1 POP SWAP2 SWAP1 POP JUMP JUMPDEST PUSH2 0x1141 DUP2 PUSH2 0x112C JUMP JUMPDEST DUP2 EQ PUSH2 0x114B JUMPI PUSH0 DUP1 REVERT JUMPDEST POP JUMP JUMPDEST PUSH0 DUP2 CALLDATALOAD SWAP1 POP PUSH2 0x115C DUP2 PUSH2 0x1138 JUMP JUMPDEST SWAP3 SWAP2 POP POP JUMP JUMPDEST PUSH0 DUP1 REVERT JUMPDEST PUSH0 DUP1 REVERT JUMPDEST PUSH0 PUSH1 0x1F NOT PUSH1 0x1F DUP4 ADD AND SWAP1 POP SWAP2 SWAP1 POP JUMP JUMPDEST PUSH32 0x4E487B7100000000000000000000000000000000000000000000000000000000 PUSH0 MSTORE PUSH1 0x41 PUSH1 0x4 MSTORE PUSH1 0x24 PUSH0 REVERT JUMPDEST PUSH2 0x11B0 DUP3 PUSH2 0x116A JUMP JUMPDEST DUP2 ADD DUP2 DUP2 LT PUSH8 0xFFFFFFFFFFFFFFFF DUP3 GT OR ISZERO PUSH2 0x11CF JUMPI PUSH2 0x11CE PUSH2 0x117A JUMP JUMPDEST JUMPDEST DUP1 PUSH1 0x40 MSTORE POP POP POP JUMP JUMPDEST PUSH0 PUSH2 0x11E1 PUSH2 0xF75 JUMP JUMPDEST SWAP1 POP PUSH2 0x11ED DUP3 DUP3 PUSH2 0x11A7 JUMP JUMPDEST SWAP2 SWAP1 POP JUMP JUMPDEST PUSH0 PUSH8 0xFFFFFFFFFFFFFFFF DUP3 GT ISZERO PUSH2 0x120C JUMPI PUSH2 0x120B PUSH2 0x117A JUMP JUMPDEST JUMPDEST PUSH2 0x1215 DUP3 PUSH2 0x116A JUMP JUMPDEST SWAP1 POP PUSH1 0x20 DUP2 ADD SWAP1 POP SWAP2 SWAP1 POP JUMP JUMPDEST DUP3 DUP2 DUP4 CALLDATACOPY PUSH0 DUP4 DUP4 ADD MSTORE POP POP POP JUMP JUMPDEST PUSH0 PUSH2 0x1242 PUSH2 0x123D DUP5 PUSH2 0x11F2 JUMP JUMPDEST PUSH2 0x11D8 JUMP JUMPDEST SWAP1 POP DUP3 DUP2 MSTORE PUSH1 0x20 DUP2 ADD DUP5 DUP5 DUP5 ADD GT ISZERO PUSH2 0x125E JUMPI PUSH2 0x125D PUSH2 0x1166 JUMP JUMPDEST JUMPDEST PUSH2 0x1269 DUP5 DUP3 DUP6 PUSH2 0x1222 JUMP JUMPDEST POP SWAP4 SWAP3 POP POP POP JUMP JUMPDEST PUSH0 DUP3 PUSH1 0x1F DUP4 ADD SLT PUSH2 0x1285 JUMPI PUSH2 0x1284 PUSH2 0x1162 JUMP JUMPDEST JUMPDEST DUP2 CALLDATALOAD PUSH2 0x1295 DUP5 DUP3 PUSH1 0x20 DUP7 ADD PUSH2 0x1230 JUMP JUMPDEST SWAP2 POP POP SWAP3 SWAP2 POP POP JUMP JUMPDEST PUSH0 DUP1 PUSH0 DUP1 PUSH0 DUP1 PUSH0 PUSH1 0xE0 DUP9 DUP11 SUB SLT ISZERO PUSH2 0x12B9 JUMPI PUSH2 0x12B8 PUSH2 0xF7E JUMP JUMPDEST JUMPDEST PUSH0 PUSH2 0x12C6 DUP11 DUP3 DUP12 ADD PUSH2 0xFA5 JUMP JUMPDEST SWAP8 POP POP PUSH1 0x20 PUSH2 0x12D7 DUP11 DUP3 DUP12 ADD PUSH2 0x1118 JUMP JUMPDEST SWAP7 POP POP PUSH1 0x40 PUSH2 0x12E8 DUP11 DUP3 DUP12 ADD PUSH2 0x114E JUMP JUMPDEST SWAP6 POP POP PUSH1 0x60 PUSH2 0x12F9 DUP11 DUP3 DUP12 ADD PUSH2 0x114E JUMP JUMPDEST SWAP5 POP POP PUSH1 0x80 PUSH2 0x130A DUP11 DUP3 DUP12 ADD PUSH2 0xFA5 JUMP JUMPDEST SWAP4 POP POP PUSH1 0xA0 DUP9 ADD CALLDATALOAD PUSH8 0xFFFFFFFFFFFFFFFF DUP2 GT ISZERO PUSH2 0x132B JUMPI PUSH2 0x132A PUSH2 0xF82 JUMP JUMPDEST JUMPDEST PUSH2 0x1337 DUP11 DUP3 DUP12 ADD PUSH2 0x1271 JUMP JUMPDEST SWAP3 POP POP PUSH1 0xC0 DUP9 ADD CALLDATALOAD PUSH8 0xFFFFFFFFFFFFFFFF DUP2 GT ISZERO PUSH2 0x1358 JUMPI PUSH2 0x1357 PUSH2 0xF82 JUMP JUMPDEST JUMPDEST PUSH2 0x1364 DUP11 DUP3 DUP12 ADD PUSH2 0x1271 JUMP JUMPDEST SWAP2 POP POP SWAP3 SWAP6 SWAP9 SWAP2 SWAP5 SWAP8 POP SWAP3 SWAP6 POP JUMP JUMPDEST PUSH0 DUP2 SWAP1 POP SWAP2 SWAP1 POP JUMP JUMPDEST PUSH0 PUSH2 0x1396 PUSH2 0x1391 PUSH2 0x138C DUP5 PUSH2 0xFE4 JUMP JUMPDEST PUSH2 0x1373 JUMP JUMPDEST PUSH2 0xFE4 JUMP JUMPDEST SWAP1 POP SWAP2 SWAP1 POP JUMP JUMPDEST PUSH0 PUSH2 0x13A7 DUP3 PUSH2 0x137C JUMP JUMPDEST SWAP1 POP SWAP2 SWAP1 POP JUMP JUMPDEST PUSH0 PUSH2 0x13B8 DUP3 PUSH2 0x139D JUMP JUMPDEST SWAP1 POP SWAP2 SWAP1 POP JUMP JUMPDEST PUSH2 0x13C8 DUP2 PUSH2 0x13AE JUMP JUMPDEST DUP3 MSTORE POP POP JUMP JUMPDEST PUSH0 PUSH1 0x20 DUP3 ADD SWAP1 POP PUSH2 0x13E1 PUSH0 DUP4 ADD DUP5 PUSH2 0x13BF JUMP JUMPDEST SWAP3 SWAP2 POP POP JUMP JUMPDEST PUSH2 0x13F0 DUP2 PUSH2 0x112C JUMP JUMPDEST DUP3 MSTORE POP POP JUMP JUMPDEST PUSH2 0x13FF DUP2 PUSH2 0xF86 JUMP JUMPDEST DUP3 MSTORE POP POP JUMP JUMPDEST PUSH0 DUP2 MLOAD SWAP1 POP SWAP2 SWAP1 POP JUMP JUMPDEST PUSH0 DUP3 DUP3 MSTORE PUSH1 0x20 DUP3 ADD SWAP1 POP SWAP3 SWAP2 POP POP JUMP JUMPDEST PUSH0 JUMPDEST DUP4 DUP2 LT ISZERO PUSH2 0x143C JUMPI DUP1 DUP3 ADD MLOAD DUP2 DUP5 ADD MSTORE PUSH1 0x20 DUP2 ADD SWAP1 POP PUSH2 0x1421 JUMP JUMPDEST PUSH0 DUP5 DUP5 ADD MSTORE POP POP POP POP JUMP JUMPDEST PUSH0 PUSH2 0x1451 DUP3 PUSH2 0x1405 JUMP JUMPDEST PUSH2 0x145B DUP2 DUP6 PUSH2 0x140F JUMP JUMPDEST SWAP4 POP PUSH2 0x146B DUP2 DUP6 PUSH1 0x20 DUP7 ADD PUSH2 0x141F JUMP JUMPDEST PUSH2 0x1474 DUP2 PUSH2 0x116A JUMP JUMPDEST DUP5 ADD SWAP2 POP POP SWAP3 SWAP2 POP POP JUMP JUMPDEST PUSH0 PUSH2 0x100 DUP3 ADD SWAP1 POP PUSH2 0x1493 PUSH0 DUP4 ADD DUP12 PUSH2 0x109C JUMP JUMPDEST PUSH2 0x14A0 PUSH1 0x20 DUP4 ADD DUP11 PUSH2 0x13E7 JUMP JUMPDEST PUSH2 0x14AD PUSH1 0x40 DUP4 ADD DUP10 PUSH2 0x13E7 JUMP JUMPDEST PUSH2 0x14BA PUSH1 0x60 DUP4 ADD DUP9 PUSH2 0x13F6 JUMP JUMPDEST PUSH2 0x14C7 PUSH1 0x80 DUP4 ADD DUP8 PUSH2 0x13F6 JUMP JUMPDEST DUP2 DUP2 SUB PUSH1 0xA0 DUP4 ADD MSTORE PUSH2 0x14D9 DUP2 DUP7 PUSH2 0x1447 JUMP JUMPDEST SWAP1 POP DUP2 DUP2 SUB PUSH1 0xC0 DUP4 ADD MSTORE PUSH2 0x14ED DUP2 DUP6 PUSH2 0x1447 JUMP JUMPDEST SWAP1 POP PUSH2 0x14FC PUSH1 0xE0 DUP4 ADD DUP5 PUSH2 0x109C JUMP JUMPDEST SWAP10 SWAP9 POP POP POP POP POP POP POP POP POP JUMP JUMPDEST PUSH32 0x596F75277265206E6F7420616E2061646D696E21000000000000000000000000 PUSH0 DUP3 ADD MSTORE POP JUMP JUMPDEST PUSH0 PUSH2 0x153D PUSH1 0x14 DUP4 PUSH2 0x140F JUMP JUMPDEST SWAP2 POP PUSH2 0x1548 DUP3 PUSH2 0x1509 JUMP JUMPDEST PUSH1 0x20 DUP3 ADD SWAP1 POP SWAP2 SWAP1 POP JUMP JUMPDEST PUSH0 PUSH1 0x20 DUP3 ADD SWAP1 POP DUP2 DUP2 SUB PUSH0 DUP4 ADD MSTORE PUSH2 0x156A DUP2 PUSH2 0x1531 JUMP JUMPDEST SWAP1 POP SWAP2 SWAP1 POP JUMP JUMPDEST PUSH0 DUP2 MLOAD SWAP1 POP PUSH2 0x157F DUP2 PUSH2 0xF8F JUMP JUMPDEST SWAP3 SWAP2 POP POP JUMP JUMPDEST PUSH0 PUSH1 0x20 DUP3 DUP5 SUB SLT ISZERO PUSH2 0x159A JUMPI PUSH2 0x1599 PUSH2 0xF7E JUMP JUMPDEST JUMPDEST PUSH0 PUSH2 0x15A7 DUP5 DUP3 DUP6 ADD PUSH2 0x1571 JUMP JUMPDEST SWAP2 POP POP SWAP3 SWAP2 POP POP JUMP JUMPDEST PUSH0 PUSH1 0x40 DUP3 ADD SWAP1 POP PUSH2 0x15C3 PUSH0 DUP4 ADD DUP6 PUSH2 0x1014 JUMP JUMPDEST PUSH2 0x15D0 PUSH1 0x20 DUP4 ADD DUP5 PUSH2 0x13F6 JUMP JUMPDEST SWAP4 SWAP3 POP POP POP JUMP JUMPDEST PUSH0 DUP2 MLOAD SWAP1 POP PUSH2 0x15E5 DUP2 PUSH2 0x1102 JUMP JUMPDEST SWAP3 SWAP2 POP POP JUMP JUMPDEST PUSH0 PUSH1 0x20 DUP3 DUP5 SUB SLT ISZERO PUSH2 0x1600 JUMPI PUSH2 0x15FF PUSH2 0xF7E JUMP JUMPDEST JUMPDEST PUSH0 PUSH2 0x160D DUP5 DUP3 DUP6 ADD PUSH2 0x15D7 JUMP JUMPDEST SWAP2 POP POP SWAP3 SWAP2 POP POP JUMP JUMPDEST PUSH32 0x5377617020616C72656164792065786973747321000000000000000000000000 PUSH0 DUP3 ADD MSTORE POP JUMP JUMPDEST PUSH0 PUSH2 0x164A PUSH1 0x14 DUP4 PUSH2 0x140F JUMP JUMPDEST SWAP2 POP PUSH2 0x1655 DUP3 PUSH2 0x1616 JUMP JUMPDEST PUSH1 0x20 DUP3 ADD SWAP1 POP SWAP2 SWAP1 POP JUMP JUMPDEST PUSH0 PUSH1 0x20 DUP3 ADD SWAP1 POP DUP2 DUP2 SUB PUSH0 DUP4 ADD MSTORE PUSH2 0x1677 DUP2 PUSH2 0x163E JUMP JUMPDEST SWAP1 POP SWAP2 SWAP1 POP JUMP JUMPDEST PUSH32 0x4E487B7100000000000000000000000000000000000000000000000000000000 PUSH0 MSTORE PUSH1 0x22 PUSH1 0x4 MSTORE PUSH1 0x24 PUSH0 REVERT JUMPDEST PUSH0 PUSH1 0x2 DUP3 DIV SWAP1 POP PUSH1 0x1 DUP3 AND DUP1 PUSH2 0x16C2 JUMPI PUSH1 0x7F DUP3 AND SWAP2 POP JUMPDEST PUSH1 0x20 DUP3 LT DUP2 SUB PUSH2 0x16D5 JUMPI PUSH2 0x16D4 PUSH2 0x167E JUMP JUMPDEST JUMPDEST POP SWAP2 SWAP1 POP JUMP JUMPDEST PUSH0 DUP2 SWAP1 POP DUP2 PUSH0 MSTORE PUSH1 0x20 PUSH0 KECCAK256 SWAP1 POP SWAP2 SWAP1 POP JUMP JUMPDEST PUSH0 PUSH1 0x20 PUSH1 0x1F DUP4 ADD DIV SWAP1 POP SWAP2 SWAP1 POP JUMP JUMPDEST PUSH0 DUP3 DUP3 SHL SWAP1 POP SWAP3 SWAP2 POP POP JUMP JUMPDEST PUSH0 PUSH1 0x8 DUP4 MUL PUSH2 0x1737 PUSH32 0xFFFFFFFFFFFFFFFFFFFFFFFFFFFFFFFFFFFFFFFFFFFFFFFFFFFFFFFFFFFFFFFF DUP3 PUSH2 0x16FC JUMP JUMPDEST PUSH2 0x1741 DUP7 DUP4 PUSH2 0x16FC JUMP JUMPDEST SWAP6 POP DUP1 NOT DUP5 AND SWAP4 POP DUP1 DUP7 AND DUP5 OR SWAP3 POP POP POP SWAP4 SWAP3 POP POP POP JUMP JUMPDEST PUSH0 PUSH2 0x1773 PUSH2 0x176E PUSH2 0x1769 DUP5 PUSH2 0xF86 JUMP JUMPDEST PUSH2 0x1373 JUMP JUMPDEST PUSH2 0xF86 JUMP JUMPDEST SWAP1 POP SWAP2 SWAP1 POP JUMP JUMPDEST PUSH0 DUP2 SWAP1 POP SWAP2 SWAP1 POP JUMP JUMPDEST PUSH2 0x178C DUP4 PUSH2 0x1759 JUMP JUMPDEST PUSH2 0x17A0 PUSH2 0x1798 DUP3 PUSH2 0x177A JUMP JUMPDEST DUP5 DUP5 SLOAD PUSH2 0x1708 JUMP JUMPDEST DUP3 SSTORE POP POP POP POP JUMP JUMPDEST PUSH0 SWAP1 JUMP JUMPDEST PUSH2 0x17B4 PUSH2 0x17A8 JUMP JUMPDEST PUSH2 0x17BF DUP2 DUP5 DUP5 PUSH2 0x1783 JUMP JUMPDEST POP POP POP JUMP JUMPDEST JUMPDEST DUP2 DUP2 LT ISZERO PUSH2 0x17E2 JUMPI PUSH2 0x17D7 PUSH0 DUP3 PUSH2 0x17AC JUMP JUMPDEST PUSH1 0x1 DUP2 ADD SWAP1 POP PUSH2 0x17C5 JUMP JUMPDEST POP POP JUMP JUMPDEST PUSH1 0x1F DUP3 GT ISZERO PUSH2 0x1827 JUMPI PUSH2 0x17F8 DUP2 PUSH2 0x16DB JUMP JUMPDEST PUSH2 0x1801 DUP5 PUSH2 0x16ED JUMP JUMPDEST DUP2 ADD PUSH1 0x20 DUP6 LT ISZERO PUSH2 0x1810 JUMPI DUP2 SWAP1 POP JUMPDEST PUSH2 0x1824 PUSH2 0x181C DUP6 PUSH2 0x16ED JUMP JUMPDEST DUP4 ADD DUP3 PUSH2 0x17C4 JUMP JUMPDEST POP POP JUMPDEST POP POP POP JUMP JUMPDEST PUSH0 DUP3 DUP3 SHR SWAP1 POP SWAP3 SWAP2 POP POP JUMP JUMPDEST PUSH0 PUSH2 0x1847 PUSH0 NOT DUP5 PUSH1 0x8 MUL PUSH2 0x182C JUMP JUMPDEST NOT DUP1 DUP4 AND SWAP2 POP POP SWAP3 SWAP2 POP POP JUMP JUMPDEST PUSH0 PUSH2 0x185F DUP4 DUP4 PUSH2 0x1838 JUMP JUMPDEST SWAP2 POP DUP3 PUSH1 0x2 MUL DUP3 OR SWAP1 POP SWAP3 SWAP2 POP POP JUMP JUMPDEST PUSH2 0x1878 DUP3 PUSH2 0x1405 JUMP JUMPDEST PUSH8 0xFFFFFFFFFFFFFFFF DUP2 GT ISZERO PUSH2 0x1891 JUMPI PUSH2 0x1890 PUSH2 0x117A JUMP JUMPDEST JUMPDEST PUSH2 0x189B DUP3 SLOAD PUSH2 0x16AB JUMP JUMPDEST PUSH2 0x18A6 DUP3 DUP3 DUP6 PUSH2 0x17E6 JUMP JUMPDEST PUSH0 PUSH1 0x20 SWAP1 POP PUSH1 0x1F DUP4 GT PUSH1 0x1 DUP2 EQ PUSH2 0x18D7 JUMPI PUSH0 DUP5 ISZERO PUSH2 0x18C5 JUMPI DUP3 DUP8 ADD MLOAD SWAP1 POP JUMPDEST PUSH2 0x18CF DUP6 DUP3 PUSH2 0x1854 JUMP JUMPDEST DUP7 SSTORE POP PUSH2 0x1936 JUMP JUMPDEST PUSH1 0x1F NOT DUP5 AND PUSH2 0x18E5 DUP7 PUSH2 0x16DB JUMP JUMPDEST PUSH0 JUMPDEST DUP3 DUP2 LT ISZERO PUSH2 0x190C JUMPI DUP5 DUP10 ADD MLOAD DUP3 SSTORE PUSH1 0x1 DUP3 ADD SWAP2 POP PUSH1 0x20 DUP6 ADD SWAP5 POP PUSH1 0x20 DUP2 ADD SWAP1 POP PUSH2 0x18E7 JUMP JUMPDEST DUP7 DUP4 LT ISZERO PUSH2 0x1929 JUMPI DUP5 DUP10 ADD MLOAD PUSH2 0x1925 PUSH1 0x1F DUP10 AND DUP3 PUSH2 0x1838 JUMP JUMPDEST DUP4 SSTORE POP JUMPDEST PUSH1 0x1 PUSH1 0x2 DUP9 MUL ADD DUP9 SSTORE POP POP POP JUMPDEST POP POP POP POP POP POP JUMP JUMPDEST PUSH0 DUP2 SWAP1 POP SWAP2 SWAP1 POP JUMP JUMPDEST PUSH0 PUSH2 0x1961 PUSH2 0x195C PUSH2 0x1957 DUP5 PUSH2 0x193E JUMP JUMPDEST PUSH2 0x1373 JUMP JUMPDEST PUSH2 0xF86 JUMP JUMPDEST SWAP1 POP SWAP2 SWAP1 POP JUMP JUMPDEST PUSH2 0x1971 DUP2 PUSH2 0x1947 JUMP JUMPDEST DUP3 MSTORE POP POP JUMP JUMPDEST PUSH0 PUSH2 0x100 DUP3 ADD SWAP1 POP PUSH2 0x198B PUSH0 DUP4 ADD DUP12 PUSH2 0x13F6 JUMP JUMPDEST PUSH2 0x1998 PUSH1 0x20 DUP4 ADD DUP11 PUSH2 0x109C JUMP JUMPDEST PUSH2 0x19A5 PUSH1 0x40 DUP4 ADD DUP10 PUSH2 0x13E7 JUMP JUMPDEST PUSH2 0x19B2 PUSH1 0x60 DUP4 ADD DUP9 PUSH2 0x13E7 JUMP JUMPDEST PUSH2 0x19BF PUSH1 0x80 DUP4 ADD DUP8 PUSH2 0x13F6 JUMP JUMPDEST PUSH2 0x19CC PUSH1 0xA0 DUP4 ADD DUP7 PUSH2 0x1968 JUMP JUMPDEST DUP2 DUP2 SUB PUSH1 0xC0 DUP4 ADD MSTORE PUSH2 0x19DE DUP2 DUP6 PUSH2 0x1447 JUMP JUMPDEST SWAP1 POP DUP2 DUP2 SUB PUSH1 0xE0 DUP4 ADD MSTORE PUSH2 0x19F2 DUP2 DUP5 PUSH2 0x1447 JUMP JUMPDEST SWAP1 POP SWAP10 SWAP9 POP POP POP POP POP POP POP POP POP JUMP JUMPDEST PUSH32 0x537761702068617320616C7265616479206265656E2065786563757465642100 PUSH0 DUP3 ADD MSTORE POP JUMP JUMPDEST PUSH0 PUSH2 0x1A35 PUSH1 0x1F DUP4 PUSH2 0x140F JUMP JUMPDEST SWAP2 POP PUSH2 0x1A40 DUP3 PUSH2 0x1A01 JUMP JUMPDEST PUSH1 0x20 DUP3 ADD SWAP1 POP SWAP2 SWAP1 POP JUMP JUMPDEST PUSH0 PUSH1 0x20 DUP3 ADD SWAP1 POP DUP2 DUP2 SUB PUSH0 DUP4 ADD MSTORE PUSH2 0x1A62 DUP2 PUSH2 0x1A29 JUMP JUMPDEST SWAP1 POP SWAP2 SWAP1 POP JUMP JUMPDEST PUSH32 0x4E6F206164647265737320666F7220696E70757420746F6B656E210000000000 PUSH0 DUP3 ADD MSTORE POP JUMP JUMPDEST PUSH0 PUSH2 0x1A9D PUSH1 0x1B DUP4 PUSH2 0x140F JUMP JUMPDEST SWAP2 POP PUSH2 0x1AA8 DUP3 PUSH2 0x1A69 JUMP JUMPDEST PUSH1 0x20 DUP3 ADD SWAP1 POP SWAP2 SWAP1 POP JUMP JUMPDEST PUSH0 PUSH1 0x20 DUP3 ADD SWAP1 POP DUP2 DUP2 SUB PUSH0 DUP4 ADD MSTORE PUSH2 0x1ACA DUP2 PUSH2 0x1A91 JUMP JUMPDEST SWAP1 POP SWAP2 SWAP1 POP JUMP JUMPDEST PUSH32 0x4E6F206164647265737320666F72206F757470757420746F6B656E2100000000 PUSH0 DUP3 ADD MSTORE POP JUMP JUMPDEST PUSH0 PUSH2 0x1B05 PUSH1 0x1C DUP4 PUSH2 0x140F JUMP JUMPDEST SWAP2 POP PUSH2 0x1B10 DUP3 PUSH2 0x1AD1 JUMP JUMPDEST PUSH1 0x20 DUP3 ADD SWAP1 POP SWAP2 SWAP1 POP JUMP JUMPDEST PUSH0 PUSH1 0x20 DUP3 ADD SWAP1 POP DUP2 DUP2 SUB PUSH0 DUP4 ADD MSTORE PUSH2 0x1B32 DUP2 PUSH2 0x1AF9 JUMP JUMPDEST SWAP1 POP SWAP2 SWAP1 POP JUMP JUMPDEST PUSH2 0x1B42 DUP2 PUSH2 0x1003 JUMP JUMPDEST DUP3 MSTORE POP POP JUMP JUMPDEST PUSH0 PUSH3 0xFFFFFF DUP3 AND SWAP1 POP SWAP2 SWAP1 POP JUMP JUMPDEST PUSH2 0x1B5F DUP2 PUSH2 0x1B48 JUMP JUMPDEST DUP3 MSTORE POP POP JUMP JUMPDEST PUSH2 0x1B6E DUP2 PUSH2 0xF86 JUMP JUMPDEST DUP3 MSTORE POP POP JUMP JUMPDEST PUSH2 0x1B7D DUP2 PUSH2 0xFE4 JUMP JUMPDEST DUP3 MSTORE POP POP JUMP JUMPDEST PUSH2 0x100 DUP3 ADD PUSH0 DUP3 ADD MLOAD PUSH2 0x1B98 PUSH0 DUP6 ADD DUP3 PUSH2 0x1B39 JUMP JUMPDEST POP PUSH1 0x20 DUP3 ADD MLOAD PUSH2 0x1BAB PUSH1 0x20 DUP6 ADD DUP3 PUSH2 0x1B39 JUMP JUMPDEST POP PUSH1 0x40 DUP3 ADD MLOAD PUSH2 0x1BBE PUSH1 0x40 DUP6 ADD DUP3 PUSH2 0x1B56 JUMP JUMPDEST POP PUSH1 0x60 DUP3 ADD MLOAD PUSH2 0x1BD1 PUSH1 0x60 DUP6 ADD DUP3 PUSH2 0x1B39 JUMP JUMPDEST POP PUSH1 0x80 DUP3 ADD MLOAD PUSH2 0x1BE4 PUSH1 0x80 DUP6 ADD DUP3 PUSH2 0x1B65 JUMP JUMPDEST POP PUSH1 0xA0 DUP3 ADD MLOAD PUSH2 0x1BF7 PUSH1 0xA0 DUP6 ADD DUP3 PUSH2 0x1B65 JUMP JUMPDEST POP PUSH1 0xC0 DUP3 ADD MLOAD PUSH2 0x1C0A PUSH1 0xC0 DUP6 ADD DUP3 PUSH2 0x1B65 JUMP JUMPDEST POP PUSH1 0xE0 DUP3 ADD MLOAD PUSH2 0x1C1D PUSH1 0xE0 DUP6 ADD DUP3 PUSH2 0x1B74 JUMP JUMPDEST POP POP POP POP JUMP JUMPDEST PUSH0 PUSH2 0x100 DUP3 ADD SWAP1 POP PUSH2 0x1C37 PUSH0 DUP4 ADD DUP5 PUSH2 0x1B83 JUMP JUMPDEST SWAP3 SWAP2 POP POP JUMP JUMPDEST PUSH0 PUSH1 0x40 DUP3 ADD SWAP1 POP PUSH2 0x1C50 PUSH0 DUP4 ADD DUP6 PUSH2 0x13F6 JUMP JUMPDEST PUSH2 0x1C5D PUSH1 0x20 DUP4 ADD DUP5 PUSH2 0x13F6 JUMP JUMPDEST SWAP4 SWAP3 POP POP POP JUMP JUMPDEST PUSH0 DUP2 MLOAD SWAP1 POP SWAP2 SWAP1 POP JUMP JUMPDEST PUSH0 DUP2 SWAP1 POP SWAP3 SWAP2 POP POP JUMP JUMPDEST PUSH0 PUSH2 0x1C82 DUP3 PUSH2 0x1C64 JUMP JUMPDEST PUSH2 0x1C8C DUP2 DUP6 PUSH2 0x1C6E JUMP JUMPDEST SWAP4 POP PUSH2 0x1C9C DUP2 DUP6 PUSH1 0x20 DUP7 ADD PUSH2 0x141F JUMP JUMPDEST DUP1 DUP5 ADD SWAP2 POP POP SWAP3 SWAP2 POP POP JUMP JUMPDEST PUSH0 PUSH2 0x1CB3 DUP3 DUP5 PUSH2 0x1C78 JUMP JUMPDEST SWAP2 POP DUP2 SWAP1 POP SWAP3 SWAP2 POP POP JUMP JUMPDEST PUSH32 0x5341000000000000000000000000000000000000000000000000000000000000 PUSH0 DUP3 ADD MSTORE POP JUMP JUMPDEST PUSH0 PUSH2 0x1CF2 PUSH1 0x2 DUP4 PUSH2 0x140F JUMP JUMPDEST SWAP2 POP PUSH2 0x1CFD DUP3 PUSH2 0x1CBE JUMP JUMPDEST PUSH1 0x20 DUP3 ADD SWAP1 POP SWAP2 SWAP1 POP JUMP JUMPDEST PUSH0 PUSH1 0x20 DUP3 ADD SWAP1 POP DUP2 DUP2 SUB PUSH0 DUP4 ADD MSTORE PUSH2 0x1D1F DUP2 PUSH2 0x1CE6 JUMP JUMPDEST SWAP1 POP SWAP2 SWAP1 POP JUMP INVALID LOG2 PUSH5 0x6970667358 0x22 SLT KECCAK256 0x2B 0x21 0xED 0xE2 DUP15 REVERT SWAP8 GASPRICE STOP CREATE2 0xC9 SWAP3 0xFB LOG4 0x5C PUSH18 0xE00D426794896FA0DB79265066440EDD6473 PUSH16 0x6C634300081400330000000000000000 "
				},
				"gasEstimates": {
					"creation": {
						"codeDepositCost": "1503200",
						"executionCost": "infinite",
						"totalCost": "infinite"
					},
					"external": {
						"addToken(uint256,address)": "29457",
						"createSwap(uint256,bool,uint8,uint8,uint256,string,string)": "infinite",
						"executeSwap(uint256)": "infinite",
						"owner()": "2527",
						"relayers(address)": "2878",
						"swapRouter()": "infinite",
						"swaps(uint256)": "infinite",
						"tokens(uint256)": "2828",
						"withdraw(address)": "infinite"
					}
				},
				"methodIdentifiers": {
					"addToken(uint256,address)": "57016b0a",
					"createSwap(uint256,bool,uint8,uint8,uint256,string,string)": "78f9c863",
					"executeSwap(uint256)": "a9ab232b",
					"owner()": "8da5cb5b",
					"relayers(address)": "5300f841",
					"swapRouter()": "c31c9c07",
					"swaps(uint256)": "f09c5829",
					"tokens(uint256)": "4f64b2be",
					"withdraw(address)": "51cff8d9"
				}
			},
			"storageLayout": {
				"storage": [
					{
						"astId": 386,
						"contract": "contracts/Bridge.sol:Bridge",
						"label": "owner",
						"offset": 0,
						"slot": "0",
						"type": "t_address"
					},
					{
						"astId": 394,
						"contract": "contracts/Bridge.sol:Bridge",
						"label": "swaps",
						"offset": 0,
						"slot": "1",
						"type": "t_mapping(t_uint256,t_struct(Swap)384_storage)"
					},
					{
						"astId": 398,
						"contract": "contracts/Bridge.sol:Bridge",
						"label": "tokens",
						"offset": 0,
						"slot": "2",
						"type": "t_mapping(t_uint256,t_address)"
					},
					{
						"astId": 402,
						"contract": "contracts/Bridge.sol:Bridge",
						"label": "relayers",
						"offset": 0,
						"slot": "3",
						"type": "t_mapping(t_address,t_bool)"
					}
				],
				"types": {
					"t_address": {
						"encoding": "inplace",
						"label": "address",
						"numberOfBytes": "20"
					},
					"t_bool": {
						"encoding": "inplace",
						"label": "bool",
						"numberOfBytes": "1"
					},
					"t_mapping(t_address,t_bool)": {
						"encoding": "mapping",
						"key": "t_address",
						"label": "mapping(address => bool)",
						"numberOfBytes": "32",
						"value": "t_bool"
					},
					"t_mapping(t_uint256,t_address)": {
						"encoding": "mapping",
						"key": "t_uint256",
						"label": "mapping(uint256 => address)",
						"numberOfBytes": "32",
						"value": "t_address"
					},
					"t_mapping(t_uint256,t_struct(Swap)384_storage)": {
						"encoding": "mapping",
						"key": "t_uint256",
						"label": "mapping(uint256 => struct Bridge.Swap)",
						"numberOfBytes": "32",
						"value": "t_struct(Swap)384_storage"
					},
					"t_string_storage": {
						"encoding": "bytes",
						"label": "string",
						"numberOfBytes": "32"
					},
					"t_struct(Swap)384_storage": {
						"encoding": "inplace",
						"label": "struct Bridge.Swap",
						"members": [
							{
								"astId": 369,
								"contract": "contracts/Bridge.sol:Bridge",
								"label": "isPrivate",
								"offset": 0,
								"slot": "0",
								"type": "t_bool"
							},
							{
								"astId": 371,
								"contract": "contracts/Bridge.sol:Bridge",
								"label": "inTokenId",
								"offset": 1,
								"slot": "0",
								"type": "t_uint8"
							},
							{
								"astId": 373,
								"contract": "contracts/Bridge.sol:Bridge",
								"label": "outTokenId",
								"offset": 2,
								"slot": "0",
								"type": "t_uint8"
							},
							{
								"astId": 375,
								"contract": "contracts/Bridge.sol:Bridge",
								"label": "inTokenAmount",
								"offset": 0,
								"slot": "1",
								"type": "t_uint256"
							},
							{
								"astId": 377,
								"contract": "contracts/Bridge.sol:Bridge",
								"label": "outTokenAmount",
								"offset": 0,
								"slot": "2",
								"type": "t_uint256"
							},
							{
								"astId": 379,
								"contract": "contracts/Bridge.sol:Bridge",
								"label": "l2Address",
								"offset": 0,
								"slot": "3",
								"type": "t_string_storage"
							},
							{
								"astId": 381,
								"contract": "contracts/Bridge.sol:Bridge",
								"label": "l2SecretHash",
								"offset": 0,
								"slot": "4",
								"type": "t_string_storage"
							},
							{
								"astId": 383,
								"contract": "contracts/Bridge.sol:Bridge",
								"label": "isExecuted",
								"offset": 0,
								"slot": "5",
								"type": "t_bool"
							}
						],
						"numberOfBytes": "192"
					},
					"t_uint256": {
						"encoding": "inplace",
						"label": "uint256",
						"numberOfBytes": "32"
					},
					"t_uint8": {
						"encoding": "inplace",
						"label": "uint8",
						"numberOfBytes": "1"
					}
				}
			},
			"userdoc": {
				"kind": "user",
				"methods": {},
				"version": 1
			}
		}
	}
}